:100000000C941B010C944C010C944C010C944C016D
:100010000C944C010C944C010C944C010C944C012C
:100020000C944C010C944C010C944C010C944C011C
:100030000C944C010C944C010C944C010C944C010C
:100040000C944C010C944C010C944C010C944C01FC
:100050000C944C010C944C010C944C010C941E100B
:100060000C944C010C9492100C9468100C944C015C
:100070000C944C010C944C010C944C010C944C01CC
:100080000C944C010C944C010C944C010C944C01BC
:100090000C944C010C944C010C944C010C944C01AC
:1000A0000C944C010C944C010C944C010C944C019C
:1000B0000C944C010C944C010C944C010C944C018C
:1000C0000C944C010C944C010C944C010C944C017C
:1000D0000C944C010C944C010C944C010C944C016C
:1000E0000C944C010C9460020C94AC010C94A7018C
:1000F0000C94C6010C946F020C9416030C94E1014D
:100100000C94CD010C94C9020C94D3010C94EF0112
:100110000C94EB010C9491020C94CA010C94C20152
:100120000C94F9010C94FD010C94DD010C94F30185
:100130000C94E5010C9433020C94BE010C9427142A
:100140000C9483020C94D7010000220025002800A3
:100150002B002E00310034000201000005010801CF
:100160000B0105050505070508080808020202023B
:100170000A0A080804040404010101010101010143
:100180000303030303030303040707070C0C0C0C0E
:100190000C0C0C0C020202020606060606060606F7
:1001A0000B0B0B0B0B0B0B0B010210202008081084
:1001B00020401020408002010201080402010102D7
:1001C00004081020408080402010080402018004B0
:1001D000020180402010080402010804020101020B
:1001E0000408102040800102040810204080000014
:1001F0000A0B02090C0D0E080703040100000000A1
:1002000000000000000000000000000000000000EE
:1002100000000000000000000000121110000000AB
:1002200000000000000000000000000000000000CE
:1002300000000000271411241FBECFEFDFEFDEBF48
:10024000CDBF00E00CBF14E0A0E0B2E0E4E8FBE2C8
:1002500000E00BBF02C007900D92A83DB107D9F78F
:1002600029E0A8EDB4E001C01D92A832B207E1F781
:1002700011E0CBE1D1E000E006C021970109802F19
:10028000FE010E945414CA31D10780E00807A9F783
:100290000E94C8100C94C0150C940000FC0181E071
:1002A00080838283148216821782108611861286BA
:1002B0001386148615861786118A128A138A148A61
:1002C000158A168A178A108E128E148E168E178E25
:1002D00010A211A212A213A214A215A217A210A674
:1002E00011A612A613A614A615A616A60895282FC1
:1002F00030E0F901E251FE4F9491F901E855FE4FCB
:1003000044912E593E4FF9012491222309F435C01E
:10031000992311F191509231F8F4E92FF0E08827F8
:10032000EB56FE4F8F4F0C945414C601CA01A7011F
:10033000BE01C201AC01CD01D301D701DD01E10154
:10034000E501EB01EF01AC01F301F901FD01809141
:1003500080008F7780938000E22FF0E0EE0FFF1F88
:10036000E85BFE4FA591B4918FB7F894EC916111C1
:1003700048C040954E234C938FBF089580918000D4
:100380008F7DE8CF80918000877FE4CF84B58F7721
:1003900084BDE2CF84B58F7DFBCF8091B0008F7795
:1003A0008093B000D9CF8091B0008F7DF9CF80913C
:1003B00090008F7780939000CFCF809190008F7DB9
:1003C000F9CF80919000877FF5CF8091A0008F7743
:1003D0008093A000C1CF8091A0008F7DF9CF809144
:1003E000A000877FF5CF809120018F778093200137
:1003F000B3CF809120018F7DF9CF80912001877F3D
:10040000F5CF4E2BB8CF8230910538F0880F991F69
:10041000880F991F05970197F1F708953FB7F89452
:100420008091200990912109A0912209B09123097E
:1004300026B5A89B05C02F3F19F00196A11DB11D3F
:100440003FBFBA2FA92F982F8827BC01CD01620F7B
:10045000711D811D911D42E0660F771F881F991F36
:100460004A95D1F70895AF92BF92CF92DF92EF9263
:10047000FF920F931F93CF93DF936C017B018B014E
:10048000040F151FEB015E01AE18BF08C017D1079E
:1004900059F06991D601ED91FC910190F081E02D28
:1004A000C6011995892B79F7C501DF91CF911F916D
:1004B0000F91FF90EF90DF90CF90BF90AF90089595
:1004C000FC01538D448D252F30E0842F90E0821B5A
:1004D000930B541710F0CF96089501970895FC01DF
:1004E000918D828D981761F0A28DAE0FBF2FB11D37
:1004F0005D968C91928D9F5F9F73928F90E008958F
:100500008FEF9FEF0895FC01918D828D981731F048
:10051000828DE80FF11D858D90E008958FEF9FEF9C
:100520000895FC01918D228D892F90E0805C9F4F72
:10053000821B91098F73992708958DEC97E00E9493
:10054000910221E0892B09F420E0822F0895FC011B
:10055000A48DA80FB92FB11DA35ABF4F2C91848D24
:1005600090E001968F739927848FA689B7892C9381
:10057000A089B1898C91837080648C93938D848DD4
:10058000981306C00288F389E02D80818F7D8083D7
:100590000895EF92FF920F931F93CF93DF93EC0197
:1005A00081E0888F9B8D8C8D98131AC0E889F9891A
:1005B000808185FF15C09FB7F894EE89FF8960831D
:1005C000E889F98980818370806480839FBF81E09E
:1005D00090E0DF91CF911F910F91FF90EF900895E0
:1005E000F62E0B8D10E00F5F1F4F0F731127E02EBB
:1005F0008C8D8E110CC00FB607FCFACFE889F989F3
:10060000808185FFF5CFCE010E94A702F1CFEB8D4F
:10061000EC0FFD2FF11DE35AFF4FF0829FB7F894C6
:100620000B8FEA89FB8980818062CFCFCF93DF93E4
:10063000EC01888D8823B9F0AA89BB89E889F989FA
:100640008C9185FD03C0808186FD0DC00FB607FC2F
:10065000F7CF8C9185FFF2CF808185FFEDCFCE0162
:100660000E94A702E9CFDF91CF91089580E090E04A
:10067000892B29F00E949D0281110E94000080E0D8
:1006800090E0892B49F080E090E0892B29F00E94CE
:10069000000081110E94000080E090E0892B49F069
:1006A00080E090E0892B29F00E94000081110E94D7
:1006B000000080E090E0892B49F080E090E0892BF9
:1006C00029F00E94000081110C9400000895FC01A3
:1006D00084819581A681B781408151816281738136
:1006E000811526E3920725E6A20724ECB2073CF029
:1006F00014161506160617068CF4B7FF0FC04150E6
:100700005109610971094083518362837383965350
:10071000A546B44C84839583A683B7838481958151
:10072000A681B781408151816281738181302AEC39
:1007300092072AE9A2072BE3B2073CF477FF14C023
:10074000181619061A061B067CF44F5F5F4F6F4F91
:100750007F4F40835183628373839A5CAA49BB4372
:1007600084839583A683B7830895880F991F880F84
:10077000991FFC01EC5EFB4F8081918122813381C6
:100780002A30310541F02F30310529F02230310572
:1007900011F080E090E008958432910598F4880F7C
:1007A000991F880F991FFC01EC5EFB4F828193819A
:1007B00002978E30910530F48A5F9B4FFC01808157
:1007C00090E0089590E080E008952091DB0420956A
:1007D00030E0F901EA5FFC4F908190952A5F3D4F30
:1007E000D9018C914091D9045091DA0442505109B9
:1007F000EBEDF4E031969F012B5D34402417350773
:1008000070F420819227292F30E0D901AA5FBC4FD4
:100810009C9198272A5F3D4FD9018C91EBCF089589
:1008200023E030E03093DA042093D904EBEDF4E0D8
:100830009091BA07908380588183628308950F93C3
:100840001F93582F577001E010E020E030E004C003
:10085000000F111F221F331F5A95D2F723E09695E0
:1008600087952A95E1F79927E091C407F091C5078C
:10087000662321F0E091CA07F091CB07E80FF91F3A
:100880008081442329F0082B00831F910F91089544
:1008900000950823F9CFCF92DF92EF92FF920F934A
:1008A0001F93CF93DF93CDB7DEB789899A89AB8940
:1008B000BC894D895E896F89788D098D1A8D2B8D44
:1008C0003C8DCD8CDE8CEF8CF8A080179107A207B1
:1008D000B30759F44C195D096E097F091416150602
:1008E000160617065CF081E00AC0801B910BA20B74
:1008F000B30B181619061A061B06ACF780E0DF9139
:10090000CF911F910F91FF90EF90DF90CF900895BE
:100910004F925F926F927F928F929F92AF92BF920F
:10092000CF92DF92EF92FF920F931F93CF93DF93BB
:10093000CDB7DEB7A0970FB6F894DEBF0FBECDBF20
:10094000FC0123812270308131111AC0211101C0B4
:100950001282A0960FB6F894DEBF0FBECDBFDF9116
:10096000CF911F910F91FF90EF90DF90CF90BF90AC
:10097000AF909F908F907F906F905F904F90089571
:10098000211102C021E02283FC0126A121FD09C022
:1009900028E0E6E0F9E0DC015E9601900D922A95F0
:1009A000E1F78C01FC01F28C8481F1101BC0948D65
:1009B0009111EAC08823C1F0838D81FD02C081E0DE
:1009C000828FF801808981FF1786F80187A581FD54
:1009D0001FC088E07E96D801979601900D928A9567
:1009E000E1F716C081111BC0F801818D81FD08C09F
:1009F000118A128A138A148A158A168A178A108E07
:100A0000F801808981FF1786F801838D81FF128E9E
:100A1000F801858D81FD9DCF8481848F9ACFF1E08F
:100A2000FF12F6CFF80183A594A5A5A5B6A58284EB
:100A30009384A484B58447A150A561A572A546807E
:100A4000578060847184440D551D661D771D498350
:100A50005A836B837C83880D991DAA1DBB1D8D83D2
:100A60009E83AF83B887CE0101960E94670388E01A
:100A7000FE013196DE01519601900D928A95E1F7C3
:100A800088E0FE017196DE01599601900D928A95DB
:100A9000E1F700D000D01F921F92ADB7BEB71196FC
:100AA00088E0F8017E9601900D928A95E1F700D0DA
:100AB00000D01F921F92ADB7BEB7119688E0FE011D
:100AC000799601900D928A95E1F71F9282E0E82EC7
:100AD000EF921F921F92FF920E944B040FB6F89460
:100AE000DEBF0FBECDBFF801918D882389F0838DC5
:100AF00081FFE28EF801808981FD02C081E0878755
:100B000088E0F801369691FD83CFD801519665CFE4
:100B100091FD7ECF82A193A1A4A1B5A1C3A4D4A429
:100B2000E5A4F6A4468D578D60A171A187A090A47D
:100B3000A1A4B2A4481959096A097B0949875A87AF
:100B40006B877C878C199D09AE09BF098D879E87AD
:100B5000AF87B88BCE0109960E94670388E0FE013B
:100B60003996DE01119601900D928A95E1F788E0A1
:100B7000FE013196DE01199601900D928A95E1F7FA
:100B800088E0FE013996C1CF811142CF2DCF2F923F
:100B90003F924F925F926F927F928F929F92AF920D
:100BA000BF92CF92DF92EF92FF920F931F93CF935A
:100BB000DF93CDB7DEB7C354D1090FB6F894DEBFCB
:100BC0000FBECDBF10E000E0F801EE0FFF1FE65BA7
:100BD000F84F0190F081E02D309749F041E080819D
:100BE000811101C040E060E0C8010E941F040F5F56
:100BF0001F4F0833110541F7E090BB07F090BC0789
:100C00000AE017E019AF08AF8701005C1F4FF7013A
:100C10002AE037E0D9018D919D919D01009729F03F
:100C2000DC018D919C919183808332960E171F0772
:100C300089F7D12CC12CF601EE0FFF1FE656F94FB4
:100C40000190F081E02D309749F041E080818111E1
:100C500001C040E061E0C6010E941F04BFEFCB1A53
:100C6000DB0AE8E3CE16D10431F74AE556E0E0911D
:100C7000C707F091C8079F01205C3F4FDA018D91B3
:100C80009D91AD01009729F0DC018D919C9191839C
:100C9000808332962E173F0789F7E2E3F6E0FBAF39
:100CA000EAAFF80108E6E00EF11C22E336E0D901D4
:100CB0008D919D919D01009729F0DC018D919C9172
:100CC000918380833296EE16FF0689F7EAE0F6E01C
:100CD000FDAFECAFE091BE07F091BF079F01205B35
:100CE0003F4F0AE016E0D8018D919D918D0100974C
:100CF00049F0DC014D915D916D917C914083518370
:100D00006283738334962E173F0769F7E2EEF5E0AE
:100D1000FFAFEEAFE091C107F091C2079F012056EF
:100D20003F4F82EE95E0DC01CD90DD90CD01C11406
:100D3000D104F1F0D601EC901196FC901197129627
:100D40000C91129713961C91139714967C911497FB
:100D500015966C91159716965C91169717964C916F
:100D6000E082F18202831383748365835683478311
:100D700038962E173F07B9F61092DA041092D9046C
:100D80008091E0059091E105DC01ED91FC910084FA
:100D9000F185E02D1995892B09F483C08091E00538
:100DA0009091E105DC01ED91FC910084F185E02D4D
:100DB00019952091D9043091DA04A091E005B09101
:100DC000E105ED91FC9111970084F185E02D281744
:100DD000390768F4CD0119959093DA048093D9040A
:100DE0008091DD059091DE050E940302D7CFCD01F1
:100DF0001995813091400CF054C08091E00590919C
:100E0000E105DC01ED91FC910084F185E02D19955F
:100E100006970CF446C04BED842E44E0942E8401DA
:100E2000E090D904F090DA04C8018B5D94408E15EF
:100E30009F0578F48091E0059091E105DC01ED914A
:100E4000FC910284F385E02D1995F80181938F01BF
:100E5000E7CF1091DC048FEB810F853080F00E948A
:100E6000E503970125523B4FF9013297408121500C
:100E70003109D9012C91342F2817390791F4909119
:100E8000DB048091BA07981709F4CDC08091E00582
:100E90009091E105DC01ED91FC910680F781E02D58
:100EA00019954091C4075091C50730E020E0F90141
:100EB000EE0FFF1FE65BF84F0190F081E02D3097B9
:100EC00099F0D90183E0B695A7958A95E1F7A40F2B
:100ED000B51F8C9190E0622F677002C09595879541
:100EE0006A95E2F7817080832F5F3F4F2833310589
:100EF000F1F68091BB079091BC07BC01605C7F4F0D
:100F0000DC01E8ADF9AD21913191F9AFE8AF2115E0
:100F1000310531F04D915C911197F9015183408376
:100F200012966A177B0769F7FB0188599F4FAAAD94
:100F3000BBAD4D915D91BBAFAAAF4115510529F0F5
:100F400020813181DA012D933C9332968E179F07D1
:100F500071F7E091BE07F091BF07CF01805B9F4F13
:100F6000ACADBDAD2D913D91BDAFACAF21153105FF
:100F700051F04081518162817381D9014D935D931C
:100F80006D937C93139734968E179F0749F7E091E2
:100F9000C107F091C207CF0180569F4FAEADBFADE4
:100FA000ED90FD90BFAFAEAFE114F104F1F0008120
:100FB0001181728163815481458136812781D701F6
:100FC0000C9311961C93119712967C93129713967B
:100FD0006C93139714965C93149715964C931597EE
:100FE00016963C93169717962C9338968E179F0754
:100FF000A9F6CD5BDF4F0FB6F894DEBF0FBECDBFB5
:10100000DF91CF911F910F91FF90EF90DF90CF90E4
:10101000BF90AF909F908F907F906F905F904F9018
:101020003F902F900895B2E0EB1AF108F092DA04A5
:10103000E092D9048091DD049091DE04382E292EAF
:101040006090DF047090E004762467247624D090CA
:10105000DF042091E10430E01F3009F48AC5A0F5D7
:10106000133009F480C158F4113009F4F5C312307B
:1010700009F484C461E070E0812F90E022C0153053
:1010800009F457C508F40BC51630A1F72091BD0728
:101090008091C00790E0880F991FE22FF0E08E0F3B
:1010A0009F1F4091C30704E0409FA0011124480FF7
:1010B000591F2416350608F449C062E070E086E046
:1010C00090E00E9410044FC0123409F4FCC698F45A
:1010D000103109F462C2113469F684E090E0909313
:1010E000DA048093D9041093DC041092DD0484E2C6
:1010F0008093DE0438C0143409F45FC608F4DDC5FB
:10110000153409F0B7CF8D3ABEED9B0709F083C7C0
:101110001092D80485E48093DC048EE78093DD048C
:1011200081E2E6EBF4E0DE01119601900D928A95E2
:10113000E1F7FE013196AEEDB4E081919D012B5DAA
:101140003440882309F475C78D93F7CF2E163F06D8
:10115000D8F4220C331CE091BB07F091BC07E20DE0
:10116000F31D718260828091D9049091DA04029615
:101170008130914008F45AC58091DC0464E070E04D
:1011800090E00E94100452C528163906F0F5A3011C
:1011900070E060E08091BE079091BF0720FC1CC00A
:1011A00091012E1B3F0BF901EE0FFF1FEC7FF37037
:1011B000E80FF91F80819181A281B381AA27BB2703
:1011C000BA0155274427842B952BA62BB72B808358
:1011D0009183A283B383C7CFE095F095E20DF31D11
:1011E000EE0FFF1FEC7FF370E80FF91F6080718036
:1011F0008280938066247724462957296829792993
:101200004083518362837383AECF91012370332770
:101210004301B12CA12CC12CD12C7601E091C10746
:10122000F091C2072115310549F5281A390A220C17
:10123000331C38EF232237E03322E20DF31D5080B8
:10124000618072801381B481A581940140E050E0F7
:1012500060E070E080E090E000E30E945C142529EB
:101260002083632A6182742A7282152B1383B62B22
:10127000B483A72BA5838683978375CF213031054F
:1012800041F54FEF241A340A281A390A220C331C6C
:1012900088EF282287E03822E20DF31D508061801C
:1012A00072801381B681A7819401A501B601C7019F
:1012B00000E20E945C14522A5082632A6182742ADE
:1012C0007282152B1383648375838B2B86839A2BF1
:1012D000D3CF2230310529F5A2E02A0E311C281A7D
:1012E000390A220C331CB8EF2B22B7E03B22E20D67
:1012F000F31D5080618074801581B681A7819401AF
:10130000A501B601C70100E10E945C14522A508277
:10131000632A618242835383762A7482172B158352
:10132000D4CF03E0200E311C281A390A220C331CBA
:1013300018EF212217E03122E20DF31D5281438183
:101340003481258196818781808291825A295283B6
:101350004B2943833C2934832D2925839E29968359
:101360008F29878300CFC301019763E070E08D3739
:101370009105C8F46101C60CD71C4091BD07E091EE
:10138000C007F0E0EE0FFF1FE40FF11D8091C307CF
:1013900024E0829FC00111248E0F9F1FC816D9061A
:1013A00028F062E070E083E090E08BCE660C771C62
:1013B000C30103969093DA048093D904ABEDB4E0B3
:1013C00011969D012B5D34402817390710F41C92AB
:1013D000F7CF93E09093DC0483508093DD04E0909A
:1013E000C107F090C207A090BE07B090BF07A091C0
:1013F000BB07B091BC07BAA7A9A7A42FB0E0BBABAD
:10140000AAAB83E090E02C014E1A5F0A3D01609484
:1014100070942C143D0409F4A6CEAAA9BBA92A16DF
:101420003B0660F49101220F331FA9A5BAA52A0F2C
:101430003B1FD9018C9111963C911AC02E163F0684
:1014400070F520FC22C0C101AAA9BBA98A1B9B0B75
:10145000880F991F8C7F93708A0D9B1DDC014D9125
:101460005D916D917C91AB0166277727842F352F95
:10147000D40113963C93139714968C93B2E08B0E81
:10148000911C0FEF201A300AC4CF9301220D331D97
:10149000220F331F2C7F33702A0D3B1DCACF8101D1
:1014A000037011270115110521F581010E1B1F0B7A
:1014B000000F111F087F17700E0D1F1DD8012C91F2
:1014C00011963C91119712964C91129713965C913C
:1014D000139714966C91149715967C911597169600
:1014E0008C91169717969C9100E30E947714822F97
:1014F000BFCF0130110511F50E1B1F0B020D131D7F
:10150000000F111F087F17700E0D1F1DD8012C91A1
:1015100011963C91119712964C91129713965C91EB
:10152000139714966C91149715967C9115971696AF
:101530008C91169717969C9100E2D7CF0230110537
:1015400011F50E1B1F0B020D131D000F111F087F3D
:1015500017700E0D1F1DD8012C9111963C911197FB
:1015600012964C91129713965C91139714966C9166
:10157000149715967C91159716968C911697179639
:101580009C9100E1B2CF9201220D331D220F331F37
:10159000287F37702E0D3F1D4CCFC30101978B372D
:1015A000910530F4C301880F991F2817390729F0D6
:1015B00063E070E080E190E084CDD101A60DB71D1D
:1015C000BDABACAB8091BD074090C007512C440C23
:1015D000551CA82EB12C4A0C5B1C2091C307B4E00B
:1015E0002B9F90011124240D351DECA9FDA9E217B4
:1015F000F30718F062E070E0DDCF26E030E03093D2
:10160000DA042093D9041093DC043092DD04209294
:10161000DE041092DF046092E0046090C1077090D5
:10162000C207C090BE07D090BF07DFAACEAA4091E4
:10163000BB075091BC079101220F331F7A01E20EC4
:10164000F31EFBAAEAAAD101A419B509C501809528
:101650009095FC01E40DF51D2296FFAFEEAF2297A9
:101660006201CA18DB082496DFAECEAE2497ECA840
:10167000FDA82E143F0409F4D9C2F40147818085E6
:10168000542F482F2A143B0488F4EAA9FBA951835C
:101690004083EAA9FBA93296FBABEAAB1196FFEFB8
:1016A0002F1A3F0A02E0800E911CE1CF241435046A
:1016B000C8F570E060E020FC20C02496EEADFFADE0
:1016C0002497EA0FFB1FEE0FFF1FEC7FF370CEA8ED
:1016D000DFA8EC0DFD1D00811181228133812227BD
:1016E0003327BA0155274427402B512B622B732BEC
:1016F0004083518362837383CCCF2296EEADFFADDE
:101700002297EA0FFB1FEE0FFF1FEC7FF370EEA88E
:10171000FFA8EE0DFF1D008111812281338100277A
:101720001127E2CFC101837099276A01F12CE12CC6
:1017300000E010E09801C9A6DAA6EBA6FCA60DA76A
:101740001EA72FA738ABFD01009741F5EE0FFF1F35
:10175000E87FF770E60DF71DD080D9AAC180D2804E
:10176000E380F480158129A53AA540E050E060E0CF
:1017700070E080E090E000E30E945C1409A9202B57
:1017800020833C2931834D2942835E295383F62AE5
:10179000F482172B1583868397837BCF8130910545
:1017A00041F53196EE0FFF1FE87FF770E60DF71D4C
:1017B000108119ABC180D280E380F680178129A502
:1017C0003AA540E050E060E070E080E090E000E2A8
:1017D0000E945C1409A9202B20833C2931834D29C8
:1017E0004283E52AE382648375838F298683912B64
:1017F000D3CF029729F53296EE0FFF1FE87FF770DF
:10180000E60DF71D108119ABC180D480E580F6800C
:10181000178129A53AA540E050E060E070E080E043
:1018200090E000E10E945C1409A9202B20833C2950
:10183000318342835383D62AD482E72AE582D5CFE7
:101840003396EE0FFF1FE87FF770E60DF71D19A521
:1018500010832AA521831DCFC301019763E070E0A7
:10186000803D974068F52091C607C101860D971D00
:1018700062E070E02817190618F1C30143E096955D
:1018800087954A95E1F79C012D5F3F4F3093DA042D
:101890002093D904930127703327232B29F0049632
:1018A0009093DA048093D9048091D9049091DA045A
:1018B000EBEDF4E0813021E0920728F064E070E085
:1018C00081E090E0FECB31969F012B5D34402817DC
:1018D000390710F41082F7CF91E09093DC04835025
:1018E0008093DD040091C4071091C50770E060E0AB
:1018F00020E0C12CD12C7601C394D701C601022E61
:1019000004C0880F991FAA1FBB1F0A94D2F789A78A
:101910009AA7ABA7BCA7FB0183E0F695E7958A954C
:10192000E1F7E252FB4F3081A10193E056954795D4
:101930009A95E1F74F715527400F511FDA014C91ED
:1019400050E0B22DB77002C055954795BA95E2F7B1
:1019500089A540FF0FC0832B80832F5F283009F4B7
:1019600020E0EFEF2E1A3E0A6F5F7F4F6616770674
:1019700021F6F9CB809538233083EFCFC30101974F
:1019800063E070E0803D974068F52091CC07C1018D
:10199000860D971D62E070E02817190618F1C30143
:1019A00013E0969587951A95E1F79C012D5F3F4FBF
:1019B0003093DA042093D904930127703327232B23
:1019C00029F004969093DA048093D9048091D90485
:1019D0009091DA04EBEDF4E0813001E0900728F01B
:1019E00064E070E082E090E06CCB31969F012B5D6B
:1019F00034402817390710F41082F7CF92E0909303
:101A0000DC0483508093DD046091CA077091CB079A
:101A100050E040E010E0C12CD12C7601C394D701F6
:101A2000C601012E04C0880F991FAA1FBB1F0A946C
:101A3000D2F789A79AA7ABA7BCA7FA0133E0F6951E
:101A4000E7953A95E1F7E252FB4F00819101A3E05F
:101A500036952795AA95E1F7260F372F311DD90125
:101A60002C9130E0B22DB77002C035952795BA950C
:101A7000E2F789A520FF0FC0802B80831F5F1830FD
:101A800009F410E0EFEF2E1A3E0A4F5F5F4F641625
:101A9000750629F668CB809508230083EFCFC30134
:101AA000019763E070E08D37910550F42091C907EC
:101AB000C101860D971D2817190628F462E070E011
:101AC00084E090E0FECAC301880F991F03969093AB
:101AD000DA048093D904EBEDF4E031969F012B5D9D
:101AE00034402817390710F41082F7CF94E0909310
:101AF000DC0483508093DD04220C331CE091C70783
:101B0000F091C807E20DF31D01E0601A710812E0C0
:101B1000810E911C2FEF6216720609F424CB80818E
:101B200091813296D40111969C93119712968C93C1
:101B3000EBCF6114BFEF7B0629F063E070E0611426
:101B4000710449F48091C6078150990B8215930561
:101B500028F462E070E085E090E0B3CA41E06114EF
:101B6000EFEF7E0609F040E060E0C1010E941F0433
:101B7000FACAA30113E0569547951A95E1F7842F09
:101B8000B30167707727672B11F081E0840FA30101
:101B900041505109403B574018F48217130629F071
:101BA00063E070E08FE090E08CCA2091C607C1012D
:101BB000860D971D2817190618F462E070E0F2CF21
:101BC00086E090E09093DA048093D9048FE08093CC
:101BD000DC043092DD042092DE047092DF04609217
:101BE000E00410E000E0F12CF801A3E0F695E795A1
:101BF000AA95E1F7E552FB4F478150E00F2C02C058
:101C0000559547950A94E2F7417060E0C101800F55
:101C1000911F0E941F04F394B8E0CB2EFC1001C06A
:101C2000F12C0F5F1F4F60167106F1F60091D90479
:101C30001091DA04780122E0E20EF11CF092DA044D
:101C4000E092D9040E94E503F801E552FB4F90832E
:101C500081838091DF0587FD09C061E00E947701E3
:101C60008091DB059091DC050E9403028091E005E4
:101C70009091E105DC01ED91FC910280F381E02D72
:101C8000A7016BED74E019958091E0059091E10555
:101C9000DC01ED91FC910680F781E02D1995809192
:101CA000DB059091DC050E9403028091DF0587FD32
:101CB000F8C860E00E947701F4C804E220163104FD
:101CC00008F070C014E26116710408F06BC0621471
:101CD000730408F467C0C101880F991F880F991F0A
:101CE0009C012C5E3B4F6901510176EE872E74E01A
:101CF000972E90E080E0D60112962D913C912250D3
:101D0000310910E000E02E30310528F42A5F3B4F06
:101D1000F901008110E07C01E00EF11E9701255FC2
:101D20003F4F21303140E0F5C5010E94B503A801C5
:101D3000BC01C4010E94B715800E911E95012F5F52
:101D40003F4F04E0C00ED11CC70115016216730697
:101D500028F5C70107969093DA048093D90483E4A9
:101D60008093DC048EE78093DD041092DE042092E1
:101D7000DF0480910E0990910F0920911009309194
:101D800011093093E0042093E1049093E2048093DE
:101D9000E3041092E404E092E504E5C95901ABCFF5
:101DA0007C01D7CF83E090E09093DA048093D9044C
:101DB00083E48093DC0481E828C025E12216310405
:101DC000D8F4CE0101962C01FC01D12CC12C92E05B
:101DD000890E911C2C143D04D9F0D40112968C91DB
:101DE000129713969C91892798278927819391931D
:101DF000BFEFCB1ADB0AEBCF83E090E09093DA04DD
:101E00008093D9041093DC0482E88093DD04ABC98D
:101E1000B12CA12C19A6712C612C0BE010E0CA1476
:101E2000DB0469F1F201E190F1902F01F4E2EF1689
:101E3000F10440F083E090E09093DA048093D904B9
:101E400084E4B7CFC7010E94CC034C011C01200ED3
:101E5000311E21E02216320690F4C7010E94B5031C
:101E6000A401BC01C80185529B4F0E94B715680CA4
:101E7000791C3FEFA31AB30AE9A68101D0CF1093D2
:101E8000DA040093D90484E48093DC048EE7809321
:101E9000DD041092DE04C9A4C092DF0480910E0913
:101EA00090910F0920911009309111093093E004AD
:101EB0002093E1049093E2048093E3047092E4049D
:101EC0006092E50450C904E22016310450F4809178
:101ED000E0049091E1049827892798278A3F91058B
:101EE00040F083E090E09093DA048093D90482E498
:101EF00060CF8101000F111F000F111FF801EC5E70
:101F0000FB4FE280F3808091D8048130E1F0F8014A
:101F1000EC5EFB4F00811181D11035C0BAE0EB16A9
:101F2000F10409F46EC0EFE0EE16F10409F46FC09D
:101F3000F2E0EF16F10409F04FC0D80111968C9130
:101F400011978D7F3AC020E1E216F10401F3C1013F
:101F50000E94CC039C0136952795FC01E552FB4F6E
:101F6000ABEDB4E03197CD018B5D944082179307C0
:101F700070F617968C911797978117969C931797E1
:101F800087831196EFCFC1010E94CC03AC013AE0E8
:101F9000E316F104A9F08FE0E816F10441F192E0B4
:101FA000E916F104C9F462EE74E0C8010E94B715A5
:101FB000D80111968C911197826011968C930CC068
:101FC00062EE74E0C8010E94B715D80118968C9192
:101FD0001897826018968C9383E090E09093DA04CF
:101FE0008093D90482E48093DC048EE70ECF62EE06
:101FF00074E0C8010E94B715F80181818260818375
:10200000EBCFD80118968C9118978D7FE3CFF8010C
:1020100081818D7FF4CF8E3D9D4A21F481E08093B4
:10202000D80478C883E090E09093DA048093D904D0
:1020300071C83093DA042093D90495C81F920F9287
:102040000FB60F9211242F933F938F939F93AF93CB
:10205000BF9380911C0990911D09A0911E09B09118
:102060001F0930911B0923E0230F2D3758F50196E6
:10207000A11DB11D20931B0980931C0990931D097C
:10208000A0931E09B0931F09809120099091210906
:10209000A0912209B09123090196A11DB11D809341
:1020A000200990932109A0932209B0932309BF919D
:1020B000AF919F918F913F912F910F900FBE0F90F5
:1020C0001F90189526E8230F0296A11DB11DD2CFAF
:1020D0001F920F920FB60F9211240BB60F922F93EF
:1020E0003F934F935F936F937F938F939F93AF93A0
:1020F000BF93EF93FF938DEC97E00E94A702FF91AF
:10210000EF91BF91AF919F918F917F916F915F916F
:102110004F913F912F910F900BBE0F900FBE0F90DC
:102120001F9018951F920F920FB60F9211240BB6A5
:102130000F922F938F939F93EF93FF93E091DD077F
:10214000F091DE078081E091E307F091E40782FDE2
:102150001DC090818091E6078F5F8F732091E70704
:10216000821741F0E091E607F0E0E353F84F958FD6
:102170008093E607FF91EF919F918F912F910F90A0
:102180000BBE0F900FBE0F901F9018958081F2CF5D
:10219000789484B5826084BD84B5816084BD85B542
:1021A000826085BD85B5816085BD80916E0081604E
:1021B00080936E00109281008091810082608093F4
:1021C00081008091810081608093810080918000F6
:1021D0008160809380008091B10084608093B10021
:1021E0008091B00081608093B00080919100826006
:1021F0008093910080919100816080939100809103
:1022000090008160809390008091A1008260809313
:10221000A1008091A10081608093A1008091A00025
:1022200081608093A00080912101826080932101D0
:102230008091210181608093210180912001816042
:102240008093200180917A00846080937A0080914D
:102250007A00826080937A0080917A008160809316
:102260007A0080917A00806880937A001092C10091
:1022700010926A0810926C0810926E08C1E0C09328
:102280007008109272081092740886E798E00E9415
:102290004E0186EA98E00E944E0186ED98E00E9489
:1022A0004E01E091DD07F091DE0782E08083E0914E
:1022B000D907F091DA071082E091DB07F091DC0793
:1022C00080E180831092E507E091E107F091E20759
:1022D00086E08083E091DF07F091E00780818061F4
:1022E0008083E091DF07F091E00780818860808340
:1022F000E091DF07F091E007808180688083E091C2
:10230000DF07F091E00780818F7D80838DEC97E07F
:102310009093E1058093E0058FEF8093DF058EEECB
:1023200092E09093DE058093DD0581E49AE090933E
:10233000DC058093DB05C093BA0784E38093BD0777
:1023400084E18093C0078093C30788E38093C60726
:1023500090E29093C9078093CC0787E090E00E94B9
:1023600092149093C5078093C407009709F451C055
:10237000C7E0FC012C2F11922A95E9F788E690E03E
:102380000E9492149093BC078093BB07009709F4B6
:1023900040C028E6FC0111922A95E9F780E590E01B
:1023A0000E9492149093BF078093BE07009789F113
:1023B00020E5FC0111922A95E9F780EA90E00E945D
:1023C00092149093C2078093C107009711F120EAFD
:1023D000FC0111922A95E9F787E090E00E9492149F
:1023E0009093CB078093CA07009799F0FC01119254
:1023F000CA95E9F780E490E00E9492149093C80790
:102400008093C707009729F020E4FC0111922A95D8
:10241000E9F7D0E0C0E08E01000F111F065B184FF6
:10242000F80180819181892B49F481E090E00E943C
:102430009214F80191838083FC0110822196C833A5
:10244000D10549F7E090BB07F090BC07EAE0F7E060
:1024500090E080E021913191232B39F4DF01129734
:102460009701280F391F2D933C93029680349105D4
:1024700089F7D12CC12CE601CC0FDD1FC656D94FF0
:1024800088819981892B41F481E090E00E94921427
:1024900099838883FC011082FFEFCF1ADF0A28E3BB
:1024A000C216D10441F72091C7073091C807EAE569
:1024B000F6E090E080E041915191452B39F4DF0145
:1024C0001297A901480F591F4D935C9302968034CF
:1024D000910589F7E2E3F6E090E080E020E4E20E87
:1024E000F11C21913191232B39F4DF0112979701CF
:1024F000280F391F2D933C9302968832910589F756
:102500004091BE075091BF07EAE0F6E090E080E01E
:1025100021913191232B59F4DF0112979C01220F55
:10252000331F220F331F240F351F2D933C93019629
:102530008431910569F74091C1075091C207E2EEDD
:10254000F5E090E080E021913191232B61F4DF01EF
:1025500012979C0163E0220F331F6A95E1F7240F65
:10256000351F2D933C9301968431910561F780E2EC
:102570009EE4A0E0B0E08093130990931409A09327
:102580001509B09316090E940E0260931709709303
:1025900018098093190990931A09C1E08DE0C82E9B
:1025A000D12CE12CF12C93E0892E912CA12CB12C73
:1025B0002AE0422E512C612C712C0E940E020091B7
:1025C0001709109118092091190930911A09601BF7
:1025D000710B820B930B0091130910911409209138
:1025E000150930911609601771078207930708F4DF
:1025F000F5C080910E0990910F09A0911009B0913A
:1026000011090196A11DB11D80930E0990930F0928
:10261000A0931009B093110980917B0881FD04C03B
:102620008091700880937A088091840881FD10C0A1
:1026300040927C0850927D0860927E0870927F08DC
:1026400010928008109281081092820810928308DC
:1026500086E798E00E94880480918508882351F0DD
:102660008091710881FF109270088091730881FF3A
:10267000C09372088091AB0881FD04C080917208FC
:102680008093AA088091B40881FD10C08092AC08A4
:102690009092AD08A092AE08B092AF081092B00828
:1026A0001092B1081092B2081092B30886EA98E02E
:1026B0000E9488048091B508882351F080917308A6
:1026C00081FF109272088091750881FFC093740891
:1026D0008091DB0881FD04C0809174088093DA0842
:1026E0008091E40881FD10C0C092DC08D092DD0822
:1026F000E092DE08F092DF081092E0081092E10804
:102700001092E2081092E30886ED98E00E94880497
:102710008091E508882351F08091750881FF10921F
:1027200074088091710881FFC093700880910A0934
:1027300090910B09A0910C09B0910D09AC01BD015C
:10274000535D6E4C7E4F4115EAEC5E07EAE96E0779
:10275000EBE37E0708F05BC040930A0950930B0936
:1027600060930C0970930D090E94C70580911209AE
:10277000811118C0C09312090E940E020091130922
:10278000109114092091150930911609601B710BE5
:10279000820B930B609317097093180980931909A2
:1027A00090931A098091170990911809A09119091D
:1027B000B0911A09409113095091140960911509BB
:1027C00070911609840F951FA61FB71F80931709D4
:1027D00090931809A0931909B0931A090E940E0248
:1027E00000911709109118092091190930911A09BF
:1027F000601B710B820B930B603177428105910551
:1028000010F00E94C70588950E943603D6CE4091ED
:1028100006095091070960910809709109099D59AD
:10282000A946BA4380930A0990930B09A0930C0917
:10283000B0930D094F5F5F4F6F4F7F4F4093060975
:102840005093070960930809709309098DCFEDEC47
:10285000F7E01382128288EE93E0A0E0B0E0848378
:102860009583A683B78388EA94E09183808385EC7F
:1028700090E09587848784EC90E09787868780EC4A
:1028800090E0918B808B81EC90E0938B828B82EC3B
:1028900090E0958B848B86EC90E0978B868B118EE5
:1028A000128E138E148E0895EE0FFF1F881F8BBF9C
:1028B0000790F691E02D1994002E083090F0982F93
:1028C000872F762F652F542F432F322F2227085022
:1028D000F4CF220F331F441F551F661F771F881F19
:1028E000991F0A95B2F7002D089597FD1094002EB8
:1028F000083098F00850232F342F452F562F672F7C
:10290000782F892F912DF4CF1594979587957795EA
:10291000679557954795379527950A95AAF71124F6
:10292000002D08950F931F93CF93DF93823091056D
:1029300010F482E090E0E0912609F091270930E060
:1029400020E0B0E0A0E0309799F42115310509F4BA
:102950004AC0281B390B24303105D8F58A819B8168
:102960006115710589F1FB0193838283FE0111C01A
:10297000408151810281138148175907E0F04817BF
:10298000590799F4109761F012960C9312971396C9
:102990001C933296CF01DF91CF911F910F91089533
:1029A0000093260910932709F4CF2115310551F022
:1029B0004217530738F0A901DB019A01BD01DF017D
:1029C000F801C1CFEF01F9CF909327098093260931
:1029D000CDCFFE01E20FF31F819391932250310975
:1029E00039832883D7CF2091240930912509232BBF
:1029F00041F4209102023091030230932509209383
:102A0000240920910002309101022115310541F481
:102A10002DB73EB74091040250910502241B350B9F
:102A2000E0912409F0912509E217F307A0F42E1B89
:102A30003F0B2817390778F0AC014E5F5F4F241722
:102A4000350748F04E0F5F1F509325094093240926
:102A5000819391939FCFF0E0E0E09CCFCF93DF9301
:102A60000097E9F0FC01329713821282A0912609A7
:102A7000B0912709ED0130E020E01097A1F420810A
:102A80003181820F931F2091240930912509281745
:102A9000390709F061C0F0932509E0932409DF911B
:102AA000CF910895EA01CE17DF07E8F54A815B81EF
:102AB0009E0141155105B1F7E901FB83EA83499174
:102AC0005991C40FD51FEC17FD0761F480819181E6
:102AD0000296840F951FE9019983888382819381EF
:102AE0009B838A83F0E0E0E012968D919C9113978E
:102AF0000097B9F52D913C911197CD010296820F67
:102B0000931F20912409309125092817390739F698
:102B1000309751F51092270910922609B093250994
:102B2000A0932409BCCFD383C28340815181840FF9
:102B3000951FC817D90761F44E5F5F4F888199814F
:102B4000480F591F518340838A819B8193838283DD
:102B50002115310509F0B0CFF0932709E09326093C
:102B60009ECFFD01DC01C0CF13821282D7CFFB01C3
:102B7000DC0102C001900D9241505040D8F70895F9
:042B8000F894FFCFF7
:102B840000002809800000C0C101C30302C2C606B8
:102B940007C705C5C404CC0C0DCD0FCFCE0E0ACA91
:102BA400CB0BC90908C8D81819D91BDBDA1A1EDEE1
:102BB400DF1FDD1D1CDC14D4D515D71716D6D21291
:102BC40013D311D1D010F03031F133F3F23236F6A1
:102BD400F737F53534F43CFCFD3DFF3F3EFEFA3A51
:102BE4003BFB39F9F83828E8E929EB2B2AEAEE2EE1
:102BF4002FEF2DEDEC2CE42425E527E7E62622E251
:102C0400E323E12120E0A06061A163A3A26266A6A0
:102C1400A767A56564A46CACAD6DAF6F6EAEAA6A10
:102C24006BAB69A9A86878B8B979BB7B7ABABE7E60
:102C34007FBF7DBDBC7CB47475B577B7B67672B210
:102C4400B373B17170B050909151935352929656A0
:102C54005797559594549C5C5D9D5F9F9E5E5A9AD0
:102C64009B5B99595898884849894B8B8A4A4E8E60
:102C74008F4F8D4D4C8C44848545874746868242D0
:102C840043834181804000C1814001C0804101C033
:102C9400804100C1814001C0804100C1814000C128
:102CA400814001C0804101C0804100C1814000C118
:102CB400814001C0804100C1814001C0804101C008
:102CC400804100C1814001C0804100C1814000C1F8
:102CD400814001C0804100C1814001C0804101C0E8
:102CE400804100C1814000C1814001C0804101C0D8
:102CF400804100C1814001C0804100C1814000C1C8
:102D0400814001C0804101C0804100C1814000C1B7
:102D1400814001C0804100C1814001C0804101C0A7
:102D2400804100C1814000C1814001C0804101C097
:102D3400804100C1814001C0804100C1814000C187
:102D4400814001C0804100C1814001C0804101C077
:102D5400804100C1814001C0804100C1814000C167
:102D6400814001C0804101C0804100C1814000C157
:102D7400814001C0804100C1814001C0804101C047
:102D8400804100C1814001000000000000000800F3
:102D9400000000016A080F006C080F006E080F00A5
:102DA40070080F0072080F0074080F0076080F00F7
:102DB40078080F007A080F007C080A0085080F00C5
:102DC40087080A009008020092080F0094080A007D
:102DD4009D080A00A6080F00A8080F00AA080F0003
:102DE400AC080A00B5080F00B7080A00C0080200C2
:102DF400C2080F00C4080A00CD080A00D6080F0054
:102E0400D8080F00DA080F00DC080A00E5080F00F4
:102E1400E7080A00F0080200F2080F00F4080A00AC
:102E2400FD080A0000000000C90233026002160314
:102E340091026F028302623464373562336137383A
:102E440062636232383131616631303666653837F3
:082E54006237373861630000AA
:00000001FF
