:020000040000FA
:100000000C941B010C944C010C944C010C944C016D
:100010000C944C010C944C010C944C010C944C012C
:100020000C944C010C944C010C944C010C944C011C
:100030000C944C010C944C010C944C010C944C010C
:100040000C944C010C944C010C944C010C944C01FC
:100050000C944C010C944C010C944C010C941E100B
:100060000C944C010C9492100C9468100C944C015C
:100070000C944C010C944C010C944C010C944C01CC
:100080000C944C010C944C010C944C010C944C01BC
:100090000C944C010C944C010C944C010C944C01AC
:1000A0000C944C010C944C010C944C010C944C019C
:1000B0000C944C010C944C010C944C010C944C018C
:1000C0000C944C010C944C010C944C010C944C017C
:1000D0000C944C010C944C010C944C010C944C016C
:1000E0000C944C010C9460020C94AC010C94A7018C
:1000F0000C94C6010C946F020C9416030C94E1014D
:100100000C94CD010C94C9020C94D3010C94EF0112
:100110000C94EB010C9491020C94CA010C94C20152
:100120000C94F9010C94FD010C94DD010C94F30185
:100130000C94E5010C9433020C94BE010C9427142A
:100140000C9483020C94D7010000220025002800A3
:100150002B002E00310034000201000005010801CF
:100160000B0105050505070508080808020202023B
:100170000A0A080804040404010101010101010143
:100180000303030303030303040707070C0C0C0C0E
:100190000C0C0C0C020202020606060606060606F7
:1001A0000B0B0B0B0B0B0B0B010210202008081084
:1001B00020401020408002010201080402010102D7
:1001C00004081020408080402010080402018004B0
:1001D000020180402010080402010804020101020B
:1001E0000408102040800102040810204080000014
:1001F0000A0B02090C0D0E080703040100000000A1
:1002000000000000000000000000000000000000EE
:1002100000000000000000000000121110000000AB
:1002200000000000000000000000000000000000CE
:1002300000000000271411241FBECFEFDFEFDEBF48
:10024000CDBF00E00CBF14E0A0E0B2E0E4E8FBE2C8
:1002500000E00BBF02C007900D92A83DB107D9F78F
:1002600029E0A8EDB4E001C01D92A832B207E1F781
:1002700011E0CBE1D1E000E006C021970109802F19
:10028000FE010E945414CA31D10780E00807A9F783
:100290000E94C8100C94C0150C940000FC0181E071
:1002A00080838283148216821782108611861286BA
:1002B0001386148615861786118A128A138A148A61
:1002C000158A168A178A108E128E148E168E178E25
:1002D00010A211A212A213A214A215A217A210A674
:1002E00011A612A613A614A615A616A60895282FC1
:1002F00030E0F901E251FE4F9491F901E855FE4FCB
:1003000044912E593E4FF9012491222309F435C01E
:10031000992311F191509231F8F4E92FF0E08827F8
:10032000EB56FE4F8F4F0C945414C601CA01A7011F
:10033000BE01C201AC01CD01D301D701DD01E10154
:10034000E501EB01EF01AC01F301F901FD01809141
:1003500080008F7780938000E22FF0E0EE0FFF1F88
:10036000E85BFE4FA591B4918FB7F894EC916111C1
:1003700048C040954E234C938FBF089580918000D4
:100380008F7DE8CF80918000877FE4CF84B58F7721
:1003900084BDE2CF84B58F7DFBCF8091B0008F7795
:1003A0008093B000D9CF8091B0008F7DF9CF80913C
:1003B00090008F7780939000CFCF809190008F7DB9
:1003C000F9CF80919000877FF5CF8091A0008F7743
:1003D0008093A000C1CF8091A0008F7DF9CF809144
:1003E000A000877FF5CF809120018F778093200137
:1003F000B3CF809120018F7DF9CF80912001877F3D
:10040000F5CF4E2BB8CF8230910538F0880F991F69
:10041000880F991F05970197F1F708953FB7F89452
:100420008091200990912109A0912209B09123097E
:1004300026B5A89B05C02F3F19F00196A11DB11D3F
:100440003FBFBA2FA92F982F8827BC01CD01620F7B
:10045000711D811D911D42E0660F771F881F991F36
:100460004A95D1F70895AF92BF92CF92DF92EF9263
:10047000FF920F931F93CF93DF936C017B018B014E
:10048000040F151FEB015E01AE18BF08C017D1079E
:1004900059F06991D601ED91FC910190F081E02D28
:1004A000C6011995892B79F7C501DF91CF911F916D
:1004B0000F91FF90EF90DF90CF90BF90AF90089595
:1004C000FC01538D448D252F30E0842F90E0821B5A
:1004D000930B541710F0CF96089501970895FC01DF
:1004E000918D828D981761F0A28DAE0FBF2FB11D37
:1004F0005D968C91928D9F5F9F73928F90E008958F
:100500008FEF9FEF0895FC01918D828D981731F048
:10051000828DE80FF11D858D90E008958FEF9FEF9C
:100520000895FC01918D228D892F90E0805C9F4F72
:10053000821B91098F73992708958DEC97E00E9493
:10054000910221E0892B09F420E0822F0895FC011B
:10055000A48DA80FB92FB11DA35ABF4F2C91848D24
:1005600090E001968F739927848FA689B7892C9381
:10057000A089B1898C91837080648C93938D848DD4
:10058000981306C00288F389E02D80818F7D8083D7
:100590000895EF92FF920F931F93CF93DF93EC0197
:1005A00081E0888F9B8D8C8D98131AC0E889F9891A
:1005B000808185FF15C09FB7F894EE89FF8960831D
:1005C000E889F98980818370806480839FBF81E09E
:1005D00090E0DF91CF911F910F91FF90EF900895E0
:1005E000F62E0B8D10E00F5F1F4F0F731127E02EBB
:1005F0008C8D8E110CC00FB607FCFACFE889F989F3
:10060000808185FFF5CFCE010E94A702F1CFEB8D4F
:10061000EC0FFD2FF11DE35AFF4FF0829FB7F894C6
:100620000B8FEA89FB8980818062CFCFCF93DF93E4
:10063000EC01888D8823B9F0AA89BB89E889F989FA
:100640008C9185FD03C0808186FD0DC00FB607FC2F
:10065000F7CF8C9185FFF2CF808185FFEDCFCE0162
:100660000E94A702E9CFDF91CF91089580E090E04A
:10067000892B29F00E949D0281110E94000080E0D8
:1006800090E0892B49F080E090E0892B29F00E94CE
:10069000000081110E94000080E090E0892B49F069
:1006A00080E090E0892B29F00E94000081110E94D7
:1006B000000080E090E0892B49F080E090E0892BF9
:1006C00029F00E94000081110C9400000895FC01A3
:1006D00084819581A681B781408151816281738136
:1006E000811526E3920725E6A20724ECB2073CF029
:1006F00014161506160617068CF4B7FF0FC04150E6
:100700005109610971094083518362837383965350
:10071000A546B44C84839583A683B7838481958151
:10072000A681B781408151816281738181302AEC39
:1007300092072AE9A2072BE3B2073CF477FF14C023
:10074000181619061A061B067CF44F5F5F4F6F4F91
:100750007F4F40835183628373839A5CAA49BB4372
:1007600084839583A683B7830895880F991F880F84
:10077000991FFC01EC5EFB4F8081918122813381C6
:100780002A30310541F02F30310529F02230310572
:1007900011F080E090E008958432910598F4880F7C
:1007A000991F880F991FFC01EC5EFB4F828193819A
:1007B00002978E30910530F48A5F9B4FFC01808157
:1007C00090E0089590E080E008952091DB0420956A
:1007D00030E0F901EA5FFC4F908190952A5F3D4F30
:1007E000D9018C914091D9045091DA0442505109B9
:1007F000EBEDF4E031969F012B5D34402417350773
:1008000070F420819227292F30E0D901AA5FBC4FD4
:100810009C9198272A5F3D4FD9018C91EBCF089589
:1008200023E030E03093DA042093D904EBEDF4E0D8
:100830009091BA07908380588183628308950F93C3
:100840001F93582F577001E010E020E030E004C003
:10085000000F111F221F331F5A95D2F723E09695E0
:1008600087952A95E1F79927E091C407F091C5078C
:10087000662321F0E091CA07F091CB07E80FF91F3A
:100880008081442329F0082B00831F910F91089544
:1008900000950823F9CFCF92DF92EF92FF920F934A
:1008A0001F93CF93DF93CDB7DEB789899A89AB8940
:1008B000BC894D895E896F89788D098D1A8D2B8D44
:1008C0003C8DCD8CDE8CEF8CF8A080179107A207B1
:1008D000B30759F44C195D096E097F091416150602
:1008E000160617065CF081E00AC0801B910BA20B74
:1008F000B30B181619061A061B06ACF780E0DF9139
:10090000CF911F910F91FF90EF90DF90CF900895BE
:100910004F925F926F927F928F929F92AF92BF920F
:10092000CF92DF92EF92FF920F931F93CF93DF93BB
:10093000CDB7DEB7A0970FB6F894DEBF0FBECDBF20
:10094000FC0123812270308131111AC0211101C0B4
:100950001282A0960FB6F894DEBF0FBECDBFDF9116
:10096000CF911F910F91FF90EF90DF90CF90BF90AC
:10097000AF909F908F907F906F905F904F90089571
:10098000211102C021E02283FC0126A121FD09C022
:1009900028E0E6E0F9E0DC015E9601900D922A95F0
:1009A000E1F78C01FC01F28C8481F1101BC0948D65
:1009B0009111EAC08823C1F0838D81FD02C081E0DE
:1009C000828FF801808981FF1786F80187A581FD54
:1009D0001FC088E07E96D801979601900D928A9567
:1009E000E1F716C081111BC0F801818D81FD08C09F
:1009F000118A128A138A148A158A168A178A108E07
:100A0000F801808981FF1786F801838D81FF128E9E
:100A1000F801858D81FD9DCF8481848F9ACFF1E08F
:100A2000FF12F6CFF80183A594A5A5A5B6A58284EB
:100A30009384A484B58447A150A561A572A546807E
:100A4000578060847184440D551D661D771D498350
:100A50005A836B837C83880D991DAA1DBB1D8D83D2
:100A60009E83AF83B887CE0101960E94670388E01A
:100A7000FE013196DE01519601900D928A95E1F7C3
:100A800088E0FE017196DE01599601900D928A95DB
:100A9000E1F700D000D01F921F92ADB7BEB71196FC
:100AA00088E0F8017E9601900D928A95E1F700D0DA
:100AB00000D01F921F92ADB7BEB7119688E0FE011D
:100AC000799601900D928A95E1F71F9282E0E82EC7
:100AD000EF921F921F92FF920E944B040FB6F89460
:100AE000DEBF0FBECDBFF801918D882389F0838DC5
:100AF00081FFE28EF801808981FD02C081E0878755
:100B000088E0F801369691FD83CFD801519665CFE4
:100B100091FD7ECF82A193A1A4A1B5A1C3A4D4A429
:100B2000E5A4F6A4468D578D60A171A187A090A47D
:100B3000A1A4B2A4481959096A097B0949875A87AF
:100B40006B877C878C199D09AE09BF098D879E87AD
:100B5000AF87B88BCE0109960E94670388E0FE013B
:100B60003996DE01119601900D928A95E1F788E0A1
:100B7000FE013196DE01199601900D928A95E1F7FA
:100B800088E0FE013996C1CF811142CF2DCF2F923F
:100B90003F924F925F926F927F928F929F92AF920D
:100BA000BF92CF92DF92EF92FF920F931F93CF935A
:100BB000DF93CDB7DEB7C354D1090FB6F894DEBFCB
:100BC0000FBECDBF10E000E0F801EE0FFF1FE65BA7
:100BD000F84F0190F081E02D309749F041E080819D
:100BE000811101C040E060E0C8010E941F040F5F56
:100BF0001F4F0833110541F7E090BB07F090BC0789
:100C00000AE017E019AF08AF8701005C1F4FF7013A
:100C10002AE037E0D9018D919D919D01009729F03F
:100C2000DC018D919C919183808332960E171F0772
:100C300089F7D12CC12CF601EE0FFF1FE656F94FB4
:100C40000190F081E02D309749F041E080818111E1
:100C500001C040E061E0C6010E941F04BFEFCB1A53
:100C6000DB0AE8E3CE16D10431F74AE556E0E0911D
:100C7000C707F091C8079F01205C3F4FDA018D91B3
:100C80009D91AD01009729F0DC018D919C9191839C
:100C9000808332962E173F0789F7E2E3F6E0FBAF39
:100CA000EAAFF80108E6E00EF11C22E336E0D901D4
:100CB0008D919D919D01009729F0DC018D919C9172
:100CC000918380833296EE16FF0689F7EAE0F6E01C
:100CD000FDAFECAFE091BE07F091BF079F01205B35
:100CE0003F4F0AE016E0D8018D919D918D0100974C
:100CF00049F0DC014D915D916D917C914083518370
:100D00006283738334962E173F0769F7E2EEF5E0AE
:100D1000FFAFEEAFE091C107F091C2079F012056EF
:100D20003F4F82EE95E0DC01CD90DD90CD01C11406
:100D3000D104F1F0D601EC901196FC901197129627
:100D40000C91129713961C91139714967C911497FB
:100D500015966C91159716965C91169717964C916F
:100D6000E082F18202831383748365835683478311
:100D700038962E173F07B9F61092DA041092D9046C
:100D80008091E0059091E105DC01ED91FC910084FA
:100D9000F185E02D1995892B09F483C08091E00538
:100DA0009091E105DC01ED91FC910084F185E02D4D
:100DB00019952091D9043091DA04A091E005B09101
:100DC000E105ED91FC9111970084F185E02D281744
:100DD000390768F4CD0119959093DA048093D9040A
:100DE0008091DD059091DE050E940302D7CFCD01F1
:100DF0001995813091400CF054C08091E00590919C
:100E0000E105DC01ED91FC910084F185E02D19955F
:100E100006970CF446C04BED842E44E0942E8401DA
:100E2000E090D904F090DA04C8018B5D94408E15EF
:100E30009F0578F48091E0059091E105DC01ED914A
:100E4000FC910284F385E02D1995F80181938F01BF
:100E5000E7CF1091DC048FEB810F853080F00E948A
:100E6000E503970125523B4FF9013297408121500C
:100E70003109D9012C91342F2817390791F4909119
:100E8000DB048091BA07981709F4CDC08091E00582
:100E90009091E105DC01ED91FC910680F781E02D58
:100EA00019954091C4075091C50730E020E0F90141
:100EB000EE0FFF1FE65BF84F0190F081E02D3097B9
:100EC00099F0D90183E0B695A7958A95E1F7A40F2B
:100ED000B51F8C9190E0622F677002C09595879541
:100EE0006A95E2F7817080832F5F3F4F2833310589
:100EF000F1F68091BB079091BC07BC01605C7F4F0D
:100F0000DC01E8ADF9AD21913191F9AFE8AF2115E0
:100F1000310531F04D915C911197F9015183408376
:100F200012966A177B0769F7FB0188599F4FAAAD94
:100F3000BBAD4D915D91BBAFAAAF4115510529F0F5
:100F400020813181DA012D933C9332968E179F07D1
:100F500071F7E091BE07F091BF07CF01805B9F4F13
:100F6000ACADBDAD2D913D91BDAFACAF21153105FF
:100F700051F04081518162817381D9014D935D931C
:100F80006D937C93139734968E179F0749F7E091E2
:100F9000C107F091C207CF0180569F4FAEADBFADE4
:100FA000ED90FD90BFAFAEAFE114F104F1F0008120
:100FB0001181728163815481458136812781D701F6
:100FC0000C9311961C93119712967C93129713967B
:100FD0006C93139714965C93149715964C931597EE
:100FE00016963C93169717962C9338968E179F0754
:100FF000A9F6CD5BDF4F0FB6F894DEBF0FBECDBFB5
:10100000DF91CF911F910F91FF90EF90DF90CF90E4
:10101000BF90AF909F908F907F906F905F904F9018
:101020003F902F900895B2E0EB1AF108F092DA04A5
:10103000E092D9048091DD049091DE04382E292EAF
:101040006090DF047090E004762467247624D090CA
:10105000DF042091E10430E01F3009F48AC5A0F5D7
:10106000133009F480C158F4113009F4F5C312307B
:1010700009F484C461E070E0812F90E022C0153053
:1010800009F457C508F40BC51630A1F72091BD0728
:101090008091C00790E0880F991FE22FF0E08E0F3B
:1010A0009F1F4091C30704E0409FA0011124480FF7
:1010B000591F2416350608F449C062E070E086E046
:1010C00090E00E9410044FC0123409F4FCC698F45A
:1010D000103109F462C2113469F684E090E0909313
:1010E000DA048093D9041093DC041092DD0484E2C6
:1010F0008093DE0438C0143409F45FC608F4DDC5FB
:10110000153409F0B7CF8D3ABEED9B0709F083C7C0
:101110001092D80485E48093DC048EE78093DD048C
:1011200081E2E6EBF4E0DE01119601900D928A95E2
:10113000E1F7FE013196AEEDB4E081919D012B5DAA
:101140003440882309F475C78D93F7CF2E163F06D8
:10115000D8F4220C331CE091BB07F091BC07E20DE0
:10116000F31D718260828091D9049091DA04029615
:101170008130914008F45AC58091DC0464E070E04D
:1011800090E00E94100452C528163906F0F5A3011C
:1011900070E060E08091BE079091BF0720FC1CC00A
:1011A00091012E1B3F0BF901EE0FFF1FEC7FF37037
:1011B000E80FF91F80819181A281B381AA27BB2703
:1011C000BA0155274427842B952BA62BB72B808358
:1011D0009183A283B383C7CFE095F095E20DF31D11
:1011E000EE0FFF1FEC7FF370E80FF91F6080718036
:1011F0008280938066247724462957296829792993
:101200004083518362837383AECF91012370332770
:101210004301B12CA12CC12CD12C7601E091C10746
:10122000F091C2072115310549F5281A390A220C17
:10123000331C38EF232237E03322E20DF31D5080B8
:10124000618072801381B481A581940140E050E0F7
:1012500060E070E080E090E000E30E945C142529EB
:101260002083632A6182742A7282152B1383B62B22
:10127000B483A72BA5838683978375CF213031054F
:1012800041F54FEF241A340A281A390A220C331C6C
:1012900088EF282287E03822E20DF31D508061801C
:1012A00072801381B681A7819401A501B601C7019F
:1012B00000E20E945C14522A5082632A6182742ADE
:1012C0007282152B1383648375838B2B86839A2BF1
:1012D000D3CF2230310529F5A2E02A0E311C281A7D
:1012E000390A220C331CB8EF2B22B7E03B22E20D67
:1012F000F31D5080618074801581B681A7819401AF
:10130000A501B601C70100E10E945C14522A508277
:10131000632A618242835383762A7482172B158352
:10132000D4CF03E0200E311C281A390A220C331CBA
:1013300018EF212217E03122E20DF31D5281438183
:101340003481258196818781808291825A295283B6
:101350004B2943833C2934832D2925839E29968359
:101360008F29878300CFC301019763E070E08D3739
:101370009105C8F46101C60CD71C4091BD07E091EE
:10138000C007F0E0EE0FFF1FE40FF11D8091C307CF
:1013900024E0829FC00111248E0F9F1FC816D9061A
:1013A00028F062E070E083E090E08BCE660C771C62
:1013B000C30103969093DA048093D904ABEDB4E0B3
:1013C00011969D012B5D34402817390710F41C92AB
:1013D000F7CF93E09093DC0483508093DD04E0909A
:1013E000C107F090C207A090BE07B090BF07A091C0
:1013F000BB07B091BC07BAA7A9A7A42FB0E0BBABAD
:10140000AAAB83E090E02C014E1A5F0A3D01609484
:1014100070942C143D0409F4A6CEAAA9BBA92A16DF
:101420003B0660F49101220F331FA9A5BAA52A0F2C
:101430003B1FD9018C9111963C911AC02E163F0684
:1014400070F520FC22C0C101AAA9BBA98A1B9B0B75
:10145000880F991F8C7F93708A0D9B1DDC014D9125
:101460005D916D917C91AB0166277727842F352F95
:10147000D40113963C93139714968C93B2E08B0E81
:10148000911C0FEF201A300AC4CF9301220D331D97
:10149000220F331F2C7F33702A0D3B1DCACF8101D1
:1014A000037011270115110521F581010E1B1F0B7A
:1014B000000F111F087F17700E0D1F1DD8012C91F2
:1014C00011963C91119712964C91129713965C913C
:1014D000139714966C91149715967C911597169600
:1014E0008C91169717969C9100E30E947714822F97
:1014F000BFCF0130110511F50E1B1F0B020D131D7F
:10150000000F111F087F17700E0D1F1DD8012C91A1
:1015100011963C91119712964C91129713965C91EB
:10152000139714966C91149715967C9115971696AF
:101530008C91169717969C9100E2D7CF0230110537
:1015400011F50E1B1F0B020D131D000F111F087F3D
:1015500017700E0D1F1DD8012C9111963C911197FB
:1015600012964C91129713965C91139714966C9166
:10157000149715967C91159716968C911697179639
:101580009C9100E1B2CF9201220D331D220F331F37
:10159000287F37702E0D3F1D4CCFC30101978B372D
:1015A000910530F4C301880F991F2817390729F0D6
:1015B00063E070E080E190E084CDD101A60DB71D1D
:1015C000BDABACAB8091BD074090C007512C440C23
:1015D000551CA82EB12C4A0C5B1C2091C307B4E00B
:1015E0002B9F90011124240D351DECA9FDA9E217B4
:1015F000F30718F062E070E0DDCF26E030E03093D2
:10160000DA042093D9041093DC043092DD04209294
:10161000DE041092DF046092E0046090C1077090D5
:10162000C207C090BE07D090BF07DFAACEAA4091E4
:10163000BB075091BC079101220F331F7A01E20EC4
:10164000F31EFBAAEAAAD101A419B509C501809528
:101650009095FC01E40DF51D2296FFAFEEAF2297A9
:101660006201CA18DB082496DFAECEAE2497ECA840
:10167000FDA82E143F0409F4D9C2F40147818085E6
:10168000542F482F2A143B0488F4EAA9FBA951835C
:101690004083EAA9FBA93296FBABEAAB1196FFEFB8
:1016A0002F1A3F0A02E0800E911CE1CF241435046A
:1016B000C8F570E060E020FC20C02496EEADFFADE0
:1016C0002497EA0FFB1FEE0FFF1FEC7FF370CEA8ED
:1016D000DFA8EC0DFD1D00811181228133812227BD
:1016E0003327BA0155274427402B512B622B732BEC
:1016F0004083518362837383CCCF2296EEADFFADDE
:101700002297EA0FFB1FEE0FFF1FEC7FF370EEA88E
:10171000FFA8EE0DFF1D008111812281338100277A
:101720001127E2CFC101837099276A01F12CE12CC6
:1017300000E010E09801C9A6DAA6EBA6FCA60DA76A
:101740001EA72FA738ABFD01009741F5EE0FFF1F35
:10175000E87FF770E60DF71DD080D9AAC180D2804E
:10176000E380F480158129A53AA540E050E060E0CF
:1017700070E080E090E000E30E945C1409A9202B57
:1017800020833C2931834D2942835E295383F62AE5
:10179000F482172B1583868397837BCF8130910545
:1017A00041F53196EE0FFF1FE87FF770E60DF71D4C
:1017B000108119ABC180D280E380F680178129A502
:1017C0003AA540E050E060E070E080E090E000E2A8
:1017D0000E945C1409A9202B20833C2931834D29C8
:1017E0004283E52AE382648375838F298683912B64
:1017F000D3CF029729F53296EE0FFF1FE87FF770DF
:10180000E60DF71D108119ABC180D480E580F6800C
:10181000178129A53AA540E050E060E070E080E043
:1018200090E000E10E945C1409A9202B20833C2950
:10183000318342835383D62AD482E72AE582D5CFE7
:101840003396EE0FFF1FE87FF770E60DF71D19A521
:1018500010832AA521831DCFC301019763E070E0A7
:10186000803D974068F52091C607C101860D971D00
:1018700062E070E02817190618F1C30143E096955D
:1018800087954A95E1F79C012D5F3F4F3093DA042D
:101890002093D904930127703327232B29F0049632
:1018A0009093DA048093D9048091D9049091DA045A
:1018B000EBEDF4E0813021E0920728F064E070E085
:1018C00081E090E0FECB31969F012B5D34402817DC
:1018D000390710F41082F7CF91E09093DC04835025
:1018E0008093DD040091C4071091C50770E060E0AB
:1018F00020E0C12CD12C7601C394D701C601022E61
:1019000004C0880F991FAA1FBB1F0A94D2F789A78A
:101910009AA7ABA7BCA7FB0183E0F695E7958A954C
:10192000E1F7E252FB4F3081A10193E056954795D4
:101930009A95E1F74F715527400F511FDA014C91ED
:1019400050E0B22DB77002C055954795BA95E2F7B1
:1019500089A540FF0FC0832B80832F5F283009F4B7
:1019600020E0EFEF2E1A3E0A6F5F7F4F6616770674
:1019700021F6F9CB809538233083EFCFC30101974F
:1019800063E070E0803D974068F52091CC07C1018D
:10199000860D971D62E070E02817190618F1C30143
:1019A00013E0969587951A95E1F79C012D5F3F4FBF
:1019B0003093DA042093D904930127703327232B23
:1019C00029F004969093DA048093D9048091D90485
:1019D0009091DA04EBEDF4E0813001E0900728F01B
:1019E00064E070E082E090E06CCB31969F012B5D6B
:1019F00034402817390710F41082F7CF92E0909303
:101A0000DC0483508093DD046091CA077091CB079A
:101A100050E040E010E0C12CD12C7601C394D701F6
:101A2000C601012E04C0880F991FAA1FBB1F0A946C
:101A3000D2F789A79AA7ABA7BCA7FA0133E0F6951E
:101A4000E7953A95E1F7E252FB4F00819101A3E05F
:101A500036952795AA95E1F7260F372F311DD90125
:101A60002C9130E0B22DB77002C035952795BA950C
:101A7000E2F789A520FF0FC0802B80831F5F1830FD
:101A800009F410E0EFEF2E1A3E0A4F5F5F4F641625
:101A9000750629F668CB809508230083EFCFC30134
:101AA000019763E070E08D37910550F42091C907EC
:101AB000C101860D971D2817190628F462E070E011
:101AC00084E090E0FECAC301880F991F03969093AB
:101AD000DA048093D904EBEDF4E031969F012B5D9D
:101AE00034402817390710F41082F7CF94E0909310
:101AF000DC0483508093DD04220C331CE091C70783
:101B0000F091C807E20DF31D01E0601A710812E0C0
:101B1000810E911C2FEF6216720609F424CB80818E
:101B200091813296D40111969C93119712968C93C1
:101B3000EBCF6114BFEF7B0629F063E070E0611426
:101B4000710449F48091C6078150990B8215930561
:101B500028F462E070E085E090E0B3CA41E06114EF
:101B6000EFEF7E0609F040E060E0C1010E941F0433
:101B7000FACAA30113E0569547951A95E1F7842F09
:101B8000B30167707727672B11F081E0840FA30101
:101B900041505109403B574018F48217130629F071
:101BA00063E070E08FE090E08CCA2091C607C1012D
:101BB000860D971D2817190618F462E070E0F2CF21
:101BC00086E090E09093DA048093D9048FE08093CC
:101BD000DC043092DD042092DE047092DF04609217
:101BE000E00410E000E0F12CF801A3E0F695E795A1
:101BF000AA95E1F7E552FB4F478150E00F2C02C058
:101C0000559547950A94E2F7417060E0C101800F55
:101C1000911F0E941F04F394B8E0CB2EFC1001C06A
:101C2000F12C0F5F1F4F60167106F1F60091D90479
:101C30001091DA04780122E0E20EF11CF092DA044D
:101C4000E092D9040E94E503F801E552FB4F90832E
:101C500081838091DF0587FD09C061E00E947701E3
:101C60008091DB059091DC050E9403028091E005E4
:101C70009091E105DC01ED91FC910280F381E02D72
:101C8000A7016BED74E019958091E0059091E10555
:101C9000DC01ED91FC910680F781E02D1995809192
:101CA000DB059091DC050E9403028091DF0587FD32
:101CB000F8C860E00E947701F4C804E220163104FD
:101CC00008F070C014E26116710408F06BC0621471
:101CD000730408F467C0C101880F991F880F991F0A
:101CE0009C012C5E3B4F6901510176EE872E74E01A
:101CF000972E90E080E0D60112962D913C912250D3
:101D0000310910E000E02E30310528F42A5F3B4F06
:101D1000F901008110E07C01E00EF11E9701255FC2
:101D20003F4F21303140E0F5C5010E94B503A801C5
:101D3000BC01C4010E94B715800E911E95012F5F52
:101D40003F4F04E0C00ED11CC70115016216730697
:101D500028F5C70107969093DA048093D90483E4A9
:101D60008093DC048EE78093DD041092DE042092E1
:101D7000DF0480910E0990910F0920911009309194
:101D800011093093E0042093E1049093E2048093DE
:101D9000E3041092E404E092E504E5C95901ABCFF5
:101DA0007C01D7CF83E090E09093DA048093D9044C
:101DB00083E48093DC0481E828C025E12216310405
:101DC000D8F4CE0101962C01FC01D12CC12C92E05B
:101DD000890E911C2C143D04D9F0D40112968C91DB
:101DE000129713969C91892798278927819391931D
:101DF000BFEFCB1ADB0AEBCF83E090E09093DA04DD
:101E00008093D9041093DC0482E88093DD04ABC98D
:101E1000B12CA12C19A6712C612C0BE010E0CA1476
:101E2000DB0469F1F201E190F1902F01F4E2EF1689
:101E3000F10440F083E090E09093DA048093D904B9
:101E400084E4B7CFC7010E94CC034C011C01200ED3
:101E5000311E21E02216320690F4C7010E94B5031C
:101E6000A401BC01C80185529B4F0E94B715680CA4
:101E7000791C3FEFA31AB30AE9A68101D0CF1093D2
:101E8000DA040093D90484E48093DC048EE7809321
:101E9000DD041092DE04C9A4C092DF0480910E0913
:101EA00090910F0920911009309111093093E004AD
:101EB0002093E1049093E2048093E3047092E4049D
:101EC0006092E50450C904E22016310450F4809178
:101ED000E0049091E1049827892798278A3F91058B
:101EE00040F083E090E09093DA048093D90482E498
:101EF00060CF8101000F111F000F111FF801EC5E70
:101F0000FB4FE280F3808091D8048130E1F0F8014A
:101F1000EC5EFB4F00811181D11035C0BAE0EB16A9
:101F2000F10409F46EC0EFE0EE16F10409F46FC09D
:101F3000F2E0EF16F10409F04FC0D80111968C9130
:101F400011978D7F3AC020E1E216F10401F3C1013F
:101F50000E94CC039C0136952795FC01E552FB4F6E
:101F6000ABEDB4E03197CD018B5D944082179307C0
:101F700070F617968C911797978117969C931797E1
:101F800087831196EFCFC1010E94CC03AC013AE0E8
:101F9000E316F104A9F08FE0E816F10441F192E0B4
:101FA000E916F104C9F462EE74E0C8010E94B715A5
:101FB000D80111968C911197826011968C930CC068
:101FC00062EE74E0C8010E94B715D80118968C9192
:101FD0001897826018968C9383E090E09093DA04CF
:101FE0008093D90482E48093DC048EE70ECF62EE06
:101FF00074E0C8010E94B715F80181818260818375
:10200000EBCFD80118968C9118978D7FE3CFF8010C
:1020100081818D7FF4CF8E3D9D4A21F481E08093B4
:10202000D80478C883E090E09093DA048093D904D0
:1020300071C83093DA042093D90495C81F920F9287
:102040000FB60F9211242F933F938F939F93AF93CB
:10205000BF9380911C0990911D09A0911E09B09118
:102060001F0930911B0923E0230F2D3758F50196E6
:10207000A11DB11D20931B0980931C0990931D097C
:10208000A0931E09B0931F09809120099091210906
:10209000A0912209B09123090196A11DB11D809341
:1020A000200990932109A0932209B0932309BF919D
:1020B000AF919F918F913F912F910F900FBE0F90F5
:1020C0001F90189526E8230F0296A11DB11DD2CFAF
:1020D0001F920F920FB60F9211240BB60F922F93EF
:1020E0003F934F935F936F937F938F939F93AF93A0
:1020F000BF93EF93FF938DEC97E00E94A702FF91AF
:10210000EF91BF91AF919F918F917F916F915F916F
:102110004F913F912F910F900BBE0F900FBE0F90DC
:102120001F9018951F920F920FB60F9211240BB6A5
:102130000F922F938F939F93EF93FF93E091DD077F
:10214000F091DE078081E091E307F091E40782FDE2
:102150001DC090818091E6078F5F8F732091E70704
:10216000821741F0E091E607F0E0E353F84F958FD6
:102170008093E607FF91EF919F918F912F910F90A0
:102180000BBE0F900FBE0F901F9018958081F2CF5D
:10219000789484B5826084BD84B5816084BD85B542
:1021A000826085BD85B5816085BD80916E0081604E
:1021B00080936E00109281008091810082608093F4
:1021C00081008091810081608093810080918000F6
:1021D0008160809380008091B10084608093B10021
:1021E0008091B00081608093B00080919100826006
:1021F0008093910080919100816080939100809103
:1022000090008160809390008091A1008260809313
:10221000A1008091A10081608093A1008091A00025
:1022200081608093A00080912101826080932101D0
:102230008091210181608093210180912001816042
:102240008093200180917A00846080937A0080914D
:102250007A00826080937A0080917A008160809316
:102260007A0080917A00806880937A001092C10091
:1022700010926A0810926C0810926E08C1E0C09328
:102280007008109272081092740886E798E00E9415
:102290004E0186EA98E00E944E0186ED98E00E9489
:1022A0004E01E091DD07F091DE0782E08083E0914E
:1022B000D907F091DA071082E091DB07F091DC0793
:1022C00080E180831092E507E091E107F091E20759
:1022D00086E08083E091DF07F091E00780818061F4
:1022E0008083E091DF07F091E00780818860808340
:1022F000E091DF07F091E007808180688083E091C2
:10230000DF07F091E00780818F7D80838DEC97E07F
:102310009093E1058093E0058FEF8093DF058EEECB
:1023200092E09093DE058093DD0581E49AE090933E
:10233000DC058093DB05C093BA0784E38093BD0777
:1023400084E18093C0078093C30788E38093C60726
:1023500090E29093C9078093CC0787E090E00E94B9
:1023600092149093C5078093C407009709F451C055
:10237000C7E0FC012C2F11922A95E9F788E690E03E
:102380000E9492149093BC078093BB07009709F4B6
:1023900040C028E6FC0111922A95E9F780E590E01B
:1023A0000E9492149093BF078093BE07009789F113
:1023B00020E5FC0111922A95E9F780EA90E00E945D
:1023C00092149093C2078093C107009711F120EAFD
:1023D000FC0111922A95E9F787E090E00E9492149F
:1023E0009093CB078093CA07009799F0FC01119254
:1023F000CA95E9F780E490E00E9492149093C80790
:102400008093C707009729F020E4FC0111922A95D8
:10241000E9F7D0E0C0E08E01000F111F065B184FF6
:10242000F80180819181892B49F481E090E00E943C
:102430009214F80191838083FC0110822196C833A5
:10244000D10549F7E090BB07F090BC07EAE0F7E060
:1024500090E080E021913191232B39F4DF01129734
:102460009701280F391F2D933C93029680349105D4
:1024700089F7D12CC12CE601CC0FDD1FC656D94FF0
:1024800088819981892B41F481E090E00E94921427
:1024900099838883FC011082FFEFCF1ADF0A28E3BB
:1024A000C216D10441F72091C7073091C807EAE569
:1024B000F6E090E080E041915191452B39F4DF0145
:1024C0001297A901480F591F4D935C9302968034CF
:1024D000910589F7E2E3F6E090E080E020E4E20E87
:1024E000F11C21913191232B39F4DF0112979701CF
:1024F000280F391F2D933C9302968832910589F756
:102500004091BE075091BF07EAE0F6E090E080E01E
:1025100021913191232B59F4DF0112979C01220F55
:10252000331F220F331F240F351F2D933C93019629
:102530008431910569F74091C1075091C207E2EEDD
:10254000F5E090E080E021913191232B61F4DF01EF
:1025500012979C0163E0220F331F6A95E1F7240F65
:10256000351F2D933C9301968431910561F780E2EC
:102570009EE4A0E0B0E08093130990931409A09327
:102580001509B09316090E940E0260931709709303
:1025900018098093190990931A09C1E08DE0C82E9B
:1025A000D12CE12CF12C93E0892E912CA12CB12C73
:1025B0002AE0422E512C612C712C0E940E020091B7
:1025C0001709109118092091190930911A09601BF7
:1025D000710B820B930B0091130910911409209138
:1025E000150930911609601771078207930708F4DF
:1025F000F5C080910E0990910F09A0911009B0913A
:1026000011090196A11DB11D80930E0990930F0928
:10261000A0931009B093110980917B0881FD04C03B
:102620008091700880937A088091840881FD10C0A1
:1026300040927C0850927D0860927E0870927F08DC
:1026400010928008109281081092820810928308DC
:1026500086E798E00E94880480918508882351F0DD
:102660008091710881FF109270088091730881FF3A
:10267000C09372088091AB0881FD04C080917208FC
:102680008093AA088091B40881FD10C08092AC08A4
:102690009092AD08A092AE08B092AF081092B00828
:1026A0001092B1081092B2081092B30886EA98E02E
:1026B0000E9488048091B508882351F080917308A6
:1026C00081FF109272088091750881FFC093740891
:1026D0008091DB0881FD04C0809174088093DA0842
:1026E0008091E40881FD10C0C092DC08D092DD0822
:1026F000E092DE08F092DF081092E0081092E10804
:102700001092E2081092E30886ED98E00E94880497
:102710008091E508882351F08091750881FF10921F
:1027200074088091710881FFC093700880910A0934
:1027300090910B09A0910C09B0910D09AC01BD015C
:10274000535D6E4C7E4F4115EAEC5E07EAE96E0779
:10275000EBE37E0708F05BC040930A0950930B0936
:1027600060930C0970930D090E94C70580911209AE
:10277000811118C0C09312090E940E020091130922
:10278000109114092091150930911609601B710BE5
:10279000820B930B609317097093180980931909A2
:1027A00090931A098091170990911809A09119091D
:1027B000B0911A09409113095091140960911509BB
:1027C00070911609840F951FA61FB71F80931709D4
:1027D00090931809A0931909B0931A090E940E0248
:1027E00000911709109118092091190930911A09BF
:1027F000601B710B820B930B603177428105910551
:1028000010F00E94C70588950E943603D6CE4091ED
:1028100006095091070960910809709109099D59AD
:10282000A946BA4380930A0990930B09A0930C0917
:10283000B0930D094F5F5F4F6F4F7F4F4093060975
:102840005093070960930809709309098DCFEDEC47
:10285000F7E01382128288EE93E0A0E0B0E0848378
:102860009583A683B78388EA94E09183808385EC7F
:1028700090E09587848784EC90E09787868780EC4A
:1028800090E0918B808B81EC90E0938B828B82EC3B
:1028900090E0958B848B86EC90E0978B868B118EE5
:1028A000128E138E148E0895EE0FFF1F881F8BBF9C
:1028B0000790F691E02D1994002E083090F0982F93
:1028C000872F762F652F542F432F322F2227085022
:1028D000F4CF220F331F441F551F661F771F881F19
:1028E000991F0A95B2F7002D089597FD1094002EB8
:1028F000083098F00850232F342F452F562F672F7C
:10290000782F892F912DF4CF1594979587957795EA
:10291000679557954795379527950A95AAF71124F6
:10292000002D08950F931F93CF93DF93823091056D
:1029300010F482E090E0E0912609F091270930E060
:1029400020E0B0E0A0E0309799F42115310509F4BA
:102950004AC0281B390B24303105D8F58A819B8168
:102960006115710589F1FB0193838283FE0111C01A
:10297000408151810281138148175907E0F04817BF
:10298000590799F4109761F012960C9312971396C9
:102990001C933296CF01DF91CF911F910F91089533
:1029A0000093260910932709F4CF2115310551F022
:1029B0004217530738F0A901DB019A01BD01DF017D
:1029C000F801C1CFEF01F9CF909327098093260931
:1029D000CDCFFE01E20FF31F819391932250310975
:1029E00039832883D7CF2091240930912509232BBF
:1029F00041F4209102023091030230932509209383
:102A0000240920910002309101022115310541F481
:102A10002DB73EB74091040250910502241B350B9F
:102A2000E0912409F0912509E217F307A0F42E1B89
:102A30003F0B2817390778F0AC014E5F5F4F241722
:102A4000350748F04E0F5F1F509325094093240926
:102A5000819391939FCFF0E0E0E09CCFCF93DF9301
:102A60000097E9F0FC01329713821282A0912609A7
:102A7000B0912709ED0130E020E01097A1F420810A
:102A80003181820F931F2091240930912509281745
:102A9000390709F061C0F0932509E0932409DF911B
:102AA000CF910895EA01CE17DF07E8F54A815B81EF
:102AB0009E0141155105B1F7E901FB83EA83499174
:102AC0005991C40FD51FEC17FD0761F480819181E6
:102AD0000296840F951FE9019983888382819381EF
:102AE0009B838A83F0E0E0E012968D919C9113978E
:102AF0000097B9F52D913C911197CD010296820F67
:102B0000931F20912409309125092817390739F698
:102B1000309751F51092270910922609B093250994
:102B2000A0932409BCCFD383C28340815181840FF9
:102B3000951FC817D90761F44E5F5F4F888199814F
:102B4000480F591F518340838A819B8193838283DD
:102B50002115310509F0B0CFF0932709E09326093C
:102B60009ECFFD01DC01C0CF13821282D7CFFB01C3
:102B7000DC0102C001900D9241505040D8F70895F9
:102B8000F894FFCF00002809800000C0C101C303F2
:102B900002C2C60607C705C5C404CC0C0DCD0FCFB5
:102BA000CE0E0ACACB0BC90908C8D81819D91BDB25
:102BB000DA1A1EDEDF1FDD1D1CDC14D4D515D71775
:102BC00016D6D21213D311D1D010F03031F133F325
:102BD000F23236F6F737F53534F43CFCFD3DFF3F75
:102BE0003EFEFA3A3BFB39F9F83828E8E929EB2BA5
:102BF0002AEAEE2E2FEF2DEDEC2CE42425E527E735
:102C0000E62622E2E323E12120E0A06061A163A3A4
:102C1000A26266A6A767A56564A46CACAD6DAF6F34
:102C20006EAEAA6A6BAB69A9A86878B8B979BB7BA4
:102C30007ABABE7E7FBF7DBDBC7CB47475B577B7F4
:102C4000B67672B2B373B17170B050909151935324
:102C5000529296565797559594549C5C5D9D5F9FF4
:102C60009E5E5A9A9B5B99595898884849894B8B24
:102C70008A4A4E8E8F4F8D4D4C8C448485458747B4
:102C80004686824243834181804000C1814001C029
:102C9000804101C0804100C1814001C0804100C12C
:102CA000814000C1814001C0804101C0804100C11C
:102CB000814000C1814001C0804100C1814001C00C
:102CC000804101C0804100C1814001C0804100C1FC
:102CD000814000C1814001C0804100C1814001C0EC
:102CE000804101C0804100C1814000C1814001C0DC
:102CF000804101C0804100C1814001C0804100C1CC
:102D0000814000C1814001C0804101C0804100C1BB
:102D1000814000C1814001C0804100C1814001C0AB
:102D2000804101C0804100C1814000C1814001C09B
:102D3000804101C0804100C1814001C0804100C18B
:102D4000814000C1814001C0804100C1814001C07B
:102D5000804101C0804100C1814001C0804100C16B
:102D6000814000C1814001C0804101C0804100C15B
:102D7000814000C1814001C0804100C1814001C04B
:102D8000804101C0804100C181400100000000007D
:102D900000000800000000016A080F006C080F0026
:102DA0006E080F0070080F0072080F0074080F0003
:102DB00076080F0078080F007A080F007C080A00D8
:102DC00085080F0087080A009008020092080F008B
:102DD00094080A009D080A00A6080F00A8080F0022
:102DE000AA080F00AC080A00B5080F00B7080A00CF
:102DF000C0080200C2080F00C4080A00CD080A007B
:102E0000D6080F00D8080F00DA080F00DC080A0007
:102E1000E5080F00E7080A00F0080200F2080F00BA
:102E2000F4080A00FD080A0000000000C90233028D
:102E30006002160391026F028302623464373562C6
:102E4000336137386263623238313161663130362E
:0C2E500066653837623737386163000070
:020000040003F7
:10E000000D9489F10D94B2F10D94B2F10D94B2F129
:10E010000D94B2F10D94B2F10D94B2F10D94B2F1F0
:10E020000D94B2F10D94B2F10D94B2F10D94B2F1E0
:10E030000D94B2F10D94B2F10D94B2F10D94B2F1D0
:10E040000D94B2F10D94B2F10D94B2F10D94B2F1C0
:10E050000D94B2F10D94B2F10D94B2F10D94B2F1B0
:10E060000D94B2F10D94B2F10D94B2F10D94B2F1A0
:10E070000D94B2F10D94B2F10D94B2F10D94B2F190
:10E080000D94B2F10D94B2F10D94B2F10D94B2F180
:10E090000D94B2F10D94B2F10D94B2F10D94B2F170
:10E0A0000D94B2F10D94B2F10D94B2F10D94B2F160
:10E0B0000D94B2F10D94B2F10D94B2F10D94B2F150
:10E0C0000D94B2F10D94B2F10D94B2F10D94B2F140
:10E0D0000D94B2F10D94B2F10D94B2F10D94B2F130
:10E0E0000D94B2F141546D656761323536300041AF
:10E0F000726475696E6F206578706C6F72657220DE
:10E1000073746B3530305632206279204D4C530099
:10E11000426F6F746C6F616465723E004875683F52
:10E1200000436F6D70696C6564206F6E203D200048
:10E130004350552054797065202020203D20005FF9
:10E140005F4156525F415243485F5F3D2000415658
:10E1500052204C696243205665723D20004743437C
:10E160002056657273696F6E203D20004350552024
:10E1700049442020202020203D20004C6F7720663D
:10E18000757365202020203D20004869676820665F
:10E190007573652020203D200045787420667573D6
:10E1A00065202020203D20004C6F636B2066757336
:10E1B000652020203D20004D617220203720323024
:10E1C000313300312E362E3800342E332E350056A2
:10E1D00023202020414444522020206F7020636F70
:10E1E00064652020202020696E73747275637469E1
:10E1F0006F6E2061646472202020496E74657272B3
:10E20000757074006E6F20766563746F7200726A49
:10E210006D702020006A6D70200057686174207056
:10E220006F72743A00506F7274206E6F7420737541
:10E2300070706F72746564004D7573742062652030
:10E2400061206C6574746572002000577269747483
:10E25000696E672045450052656164696E672045B7
:10E26000450045452065727220636E743D00504F35
:10E27000525400303D5A65726F2061646472003FF1
:10E280003D43505520737461747300403D454550C3
:10E29000524F4D207465737400423D426C696E6B41
:10E2A000204C454400453D44756D70204545505215
:10E2B0004F4D00463D44756D7020464C415348001B
:10E2C000483D48656C70004C3D4C69737420492F83
:10E2D0004F20506F72747300513D51756974005234
:10E2E0003D44756D702052414D00563D73686F7707
:10E2F00020696E7465727275707420566563746FF0
:10E30000727300593D506F727420626C696E6B00BD
:10E310002A0011241FBECFEFD1E2DEBFCDBF01E046
:10E320000CBF12E0A0E0B2E0EEE1FDEF03E00BBFB6
:10E3300002C007900D92A030B107D9F712E0A0E01B
:10E34000B2E001C01D92AE30B107E1F70F9460F367
:10E350000D948DFE01E20EBF0FEF0DBF11241FBE05
:10E360000D9460F30D9400F020E030E040ED57E0B4
:10E3700005C0FA013197F1F72F5F3F4F2817390792
:10E38000C0F308959C01260F311DC901A0E0B0E043
:10E390002F5F3F4FABBFFC018791882361F08093D3
:10E3A000C6008091C00086FFFCCF8091C0008064D1
:10E3B0008093C000EACF08958DE08093C6008091DD
:10E3C000C00086FFFCCF8091C00080648093C000B5
:10E3D0008AE08093C6008091C00086FFFCCF8091C8
:10E3E000C00080648093C00008950F94C2F10F9420
:10E3F000DCF10895FC019081992359F09093C600B7
:10E400008091C00086FFFCCF8091C0008064809323
:10E41000C0003196992379F70895282F982F929567
:10E420009F70892F805D8A3308F0895F8093C600D2
:10E430008091C00086FFFCCF8091C00080648093F3
:10E44000C000822F8F70982F905D9A3308F0995FEB
:10E450009093C6008091C00086FFFCCF8091C000E1
:10E4600080648093C00008959C01FB01853691056E
:10E470001CF46330710594F0C90164E670E00F94F8
:10E480002EFE605D7F4F6093C6008091C00086FFC6
:10E49000FCCF8091C00080648093C0002B30310598
:10E4A00014F43297B4F0C90164E670E00F942EFEC4
:10E4B0006AE070E00F942EFE605D7F4F6093C600AF
:10E4C0008091C00086FFFCCF8091C0008064809363
:10E4D000C000C9016AE070E00F942EFEC0968093E0
:10E4E000C6008091C00086FFFCCF8091C000806490
:10E4F0008093C00008951F93182F8EE692EE60E07F
:10E500000F94C2F11093C6008091C00086FFFCCF2B
:10E510008091C00080648093C0000F94DCF11F9153
:10E5200008952F923F924F925F926F927F928F92B7
:10E530009F92AF92BF92CF92DF92EF92FF920F9392
:10E540001F93DF93CF93CDB7DEB762970FB6F894E2
:10E55000DEBF0FBECDBF382E622ECA01DB015C01CB
:10E560006D01772420E2222E2E010894411C511CBB
:10E570008BC081E0A81680E0B80681E0C80680E084
:10E58000D80628F0C601AA27BB270F940DF2BB2797
:10E59000AD2D9C2D8B2D0F940DF28A2D0F940DF225
:10E5A0002092C6008091C00086FFFCCF8091C00001
:10E5B00080648093C0009DE29093C6008091C0006B
:10E5C00086FFFCCF8091C00080648093C0002092C1
:10E5D000C6008091C00086FFFCCF8091C00080649F
:10E5E0008093C00019828601750188249924A1E0D6
:10E5F0003A1651F03A1620F0B2E03B1661F409C029
:10E600000BBFF701779007C0C7010F9477FE782EF4
:10E6100002C0F7017080872D0F940DF22092C60082
:10E620008091C00086FFFCCF8091C0008064809301
:10E63000C000872D8052F401EF70F0708F3520F408
:10E64000E40DF51D708204C0E40DF51D8EE280839B
:10E650000894E11CF11C011D111D0894811C911CE2
:10E6600090E18916910409F0C2CF80E190E0A0E02A
:10E67000B0E0A80EB91ECA1EDB1E198AC2010F9493
:10E68000FAF10F94DCF16A94662009F072CF629679
:10E690000FB6F894DEBF0FBECDBFCF91DF911F91B3
:10E6A0000F91FF90EF90DF90CF90BF90AF909F9031
:10E6B0008F907F906F905F904F903F902F90089534
:10E6C0002F923F924F925F926F927F928F929F9282
:10E6D000AF92BF92CF92DF92EF92FF920F931F9370
:10E6E000DF93CF93CDB7DEB7CD53D1400FB6F894BB
:10E6F000DEBF0FBECDBF01E20EBF0FEF0DBF94B75F
:10E70000F894A89514BE80916000886180936000A1
:10E7100010926000789493FF05C0E0910002F091A0
:10E7200001021995279A2F9A8091C00082608093E8
:10E73000C00080E18093C40088E18093C1000000A4
:10E74000EE24FF24870144E0A42EB12CCC24DD2448
:10E7500024C0C5010197F1F70894E11CF11C011DCB
:10E76000111D21E2E2162EE4F20620E0020720E06D
:10E77000120718F031E0C32ED12CC801B70127ECE5
:10E780003BE140E050E00F9441FE611571058105C9
:10E79000910519F485B1805885B98091C00087FD35
:10E7A00003C0C114D104A9F2A6014F5F5F4FC25E3E
:10E7B000DE4F59834883CE51D140C25EDE4F8881FF
:10E7C0009981CE51D140019711F00D9410FEC05D9A
:10E7D000DE4F19821882C053D14060E0C15DDE4F28
:10E7E0001882CF52D14088249924C35DDE4F19820C
:10E7F0001882CD52D140C05EDE4F188219821A8233
:10E800001B82C052D140CE5CDE4F188219821A8220
:10E810001B82C253D140EE24FF2487010BBFF701B6
:10E8200007911691C45CDE4F19830883CC53D14005
:10E830000D940BFEC25EDE4F28813981CE51D1404E
:10E840002130310509F52091C600C25EDE4F1982E4
:10E850001882CE51D14022C02F5F3F4F4F4F5F4FA4
:10E86000213082E138078AE7480780E0580780F0C6
:10E87000C45CDE4FE881F981CC53D140EF5FFF4F9C
:10E8800019F0EE27FF27099420E030E040E050E047
:10E890008091C00087FFE0CF2091C600C35DDE4FAE
:10E8A00048815981CD52D1404F5F5F4FC35DDE4FEC
:10E8B00059834883CD52D140213209F063C64A3092
:10E8C000510508F05FC60894811C911C53E0851621
:10E8D000910409F059C600E010E018C081E280936D
:10E8E000C6008091C00086FFFCCF8091C00080648C
:10E8F0008093C0002F5F3F4F2931310579F70F9486
:10E90000DCF10F5F1F4F0530110519F020E030E0FA
:10E91000E5CF10920A0210920B0210920C02109294
:10E920000D02109206021092070210920802109235
:10E930000902109202021092030210920402109235
:10E9400005028FEE90EE60E00F94F5F180E191EE1C
:10E9500060E00F94C2F18091C00087FFFCCF9091DE
:10E96000C600903608F09F759032B8F09093C600BC
:10E970008091C00086FFFCCF8091C00080648093AE
:10E98000C000A0E2A093C6008091C00086FFFCCF2B
:10E990008091C00080648093C000983409F4D7C18E
:10E9A0009934B8F4923409F459C1933458F490333B
:10E9B00019F1903308F4E3C59F33A1F1903409F0C5
:10E9C000DEC5BDC0953409F470C1963409F0D7C5D1
:10E9D00098C1923509F42BC2933538F49C3409F46C
:10E9E000F5C1913509F0CBC518C2963509F445C279
:10E9F000993509F0C4C567C483E792EE62E00F94CD
:10EA0000F5F110920602109207021092080210927D
:10EA1000090210920A0210920B0210920C0210923C
:10EA20000D0213C18FE792EE62E00F94F5F18FEEC5
:10EA300090EE60E00F94F5F181E291EE60E00F94CA
:10EA4000C2F187EB91EE60E00F94F5F180E391EE77
:10EA500060E00F94C2F184EE90EE60E00F94F5F167
:10EA60008FE391EE60E00F94C2F186E090E061E008
:10EA700070E00F9434F20F94DCF18DE591EE60E0DC
:10EA80000F94C2F189EC91EE60E00F94F5F18EE401
:10EA900091EE60E00F94C2F183EC91EE60E00F9490
:10EAA000F5F18CE691EE60E00F94C2F18EE10F94E7
:10EAB0000DF288E90F940DF281E00F940DF20F949E
:10EAC000DCF18BE791EE60E00F94C2F119E0E0E039
:10EAD000F0E010935700E4918E2F0F940DF20F94F5
:10EAE000DCF18AE891EE60E00F94C2F1E3E0F0E03F
:10EAF00010935700E4918E2F0F940DF20F94DCF1D8
:10EB000089E991EE60E00F94C2F1E2E0F0E0109349
:10EB10005700E4918E2F0F940DF20F94DCF188EAE8
:10EB200091EE60E00F94C2F1E1E0F0E01093570045
:10EB30001491812F0F940DF20F94DCF107CF8BE825
:10EB400092EE62E00F94F5F18BE492EE60E00F94A8
:10EB5000F5F10F94DCF100E010E019C0C8016F2D51
:10EB60000F947FFEFF2031F489E492EE60E00F9471
:10EB7000C2F10BC0F092C6008091C00086FFFCCFAE
:10EB80008091C00080648093C0000F5F1F4FC80158
:10EB900081519F41A0E0B0E0ABBFFC01F790BAE229
:10EBA000FB1621F0E2E000301E07C1F60F94DCF105
:10EBB0000F94DCF187E592EE60E00F94F5F10F948D
:10EBC000DCF1CC24DD2400E010E01EC0C8010F946D
:10EBD00077FEF82E882331F489E492EE60E00F94FA
:10EBE000C2F10BC08093C6008091C00086FFFCCFAD
:10EBF0008091C00080648093C000FE1419F00894D6
:10EC0000C11CD11C0F5F1F4FC80181519F41A0E063
:10EC1000B0E0ABBFFC01E790FAE2EF1621F022E092
:10EC20000030120799F60F94DCF10F94DCF182E6C4
:10EC300092EE60E00F94C2F1C60161E070E00F94C3
:10EC400034F20F94DCF10F94DCF110920202109276
:10EC50000302109204021092050278CE89E992EE26
:10EC600062E00F94F5F1279A2F9A16C02F9880E052
:10EC700090E0E0EDF7E03197F1F7019684369105E9
:10EC8000C1F72F9A80E090E0E0EDF7E03197F1F7DF
:10EC9000019684369105C1F78091C00087FFE6CFC9
:10ECA0008091C00087FFFCCF64C485EA92EE62E0E9
:10ECB0000F94F5F140910202509103026091040219
:10ECC0007091050281E020E10F9491F2809102029F
:10ECD00090910302A0910402B091050280509F4FD1
:10ECE000AF4FBF4F8093020290930302A0930402A0
:10ECF000B093050280509041A040B04008F426CE69
:10ED0000A4CF83EB92EE62E00F94F5F140910602FE
:10ED100050910702609108027091090280E020E1A1
:10ED20000F9491F28091060290910702A09108023F
:10ED3000B091090280509F4FAF4FBF4F80930602A2
:10ED400090930702A0930802B0930902FFCD80ECD4
:10ED500092EE62E00F94F5F183E792EE60E00F949B
:10ED6000F5F18FE792EE60E00F94F5F18BE892EE0B
:10ED700060E00F94F5F189E992EE60E00F94F5F10F
:10ED800085EA92EE60E00F94F5F183EB92EE60E09D
:10ED90000F94F5F180EC92EE60E00F94F5F187ECC2
:10EDA00092EE60E00F94F5F188ED92EE60E00F9442
:10EDB000F5F18FED92EE60E00F94F5F18AEE92EEB0
:10EDC00060E00F94F5F183E093EEBDCD87EC92EE19
:10EDD00062E00F94F5F181E40F947BF282E40F94EA
:10EDE0007BF283E40F947BF284E40F947BF285E45E
:10EDF0000F947BF286E40F947BF287E40F947BF20E
:10EE000088E40F947BF28AE40F947BF28BE40F94F6
:10EE10007BF28CE40F947BF299CD88ED92EE62E068
:10EE20000F94F5F1772473948824992409C48FED05
:10EE300092EE62E00F94F5F140910A0250910B02BC
:10EE400060910C0270910D0282E020E10F9491F22A
:10EE500080910A0290910B02A0910C02B0910D02D8
:10EE600080509F4FAF4FBF4F80930A0290930B0289
:10EE7000A0930C02B0930D0269CD8AEE92EE62E08F
:10EE80000F94F5F184EE90EE60E00F94F5F18FECC5
:10EE900091EE60E00F94F5F1662477244301CC5D98
:10EEA000DE4F19821882C452D140D401C301B695F5
:10EEB000A79597958795CA5DDE4F88839983AA8326
:10EEC000BB83C652D140CC5DDE4FA881B981C4520C
:10EED000D1401196CC5DDE4FB983A883C452D14096
:10EEE000CD0162E070E00F9434F2B0E2B093C6005E
:10EEF0008091C00086FFFCCF8091C0008064809329
:10EF0000C000EDE2E093C6008091C00086FFFCCF18
:10EF10008091C00080648093C000F0E2F093C6004E
:10EF20008091C00086FFFCCF8091C00080648093F8
:10EF3000C000CA5DDE4FE880F9800A811B81C6529D
:10EF4000D140BB27A12F902F8F2D0F940DF2CA5DBA
:10EF5000DE4F8881C652D1400F940DF2B0E2FB2EF5
:10EF6000F092C6008091C00086FFFCCF8091C00067
:10EF700080648093C0000DE30093C6008091C000C0
:10EF800086FFFCCF8091C00080648093C00010E2B7
:10EF90001093C6008091C00086FFFCCF8091C00016
:10EFA00080648093C0008BBEF3012791C65DDE4F65
:10EFB0002883CA52D140A22EBB24CC24DD2408943D
:10EFC000611C711C811C911C8BBEF3018791282E42
:10EFD0003324442455240894611C711C811C911C09
:10EFE0008BBEF3013791C55DDE4F3883CB52D140E4
:10EFF0000894611C711C811C911C8BBEF30147910C
:10F00000C45DDE4F4883CC52D140ADEFEA2EAFEF66
:10F01000FA2EAFEF0A2FAFEF1A2F6E0C7F1C801E57
:10F02000911E142D032DF22CEE24EA0CFB1C0C1D5A
:10F030001D1D0F940DF220E22093C6008091C000A8
:10F0400086FFFCCF8091C00080648093C000C65DC5
:10F05000DE4F8881CA52D1400F940DF230E23093D6
:10F06000C6008091C00086FFFCCF8091C000806404
:10F070008093C000C45DDE4F8881CC52D1400F9494
:10F080000DF240E24093C6008091C00086FFFCCFA5
:10F090008091C00080648093C000C55DDE4F888190
:10F0A000CB52D1400F940DF250E25093C6008091A4
:10F0B000C00086FFFCCF8091C00080648093C000B8
:10F0C0008FEFE8168FEFF80680E0080780E018075A
:10F0D00031F484E092EE60E00F94C2F1DFC0D80119
:10F0E000C7018070907CA070B0708050904CA040A0
:10F0F000B040D1F52FEF3FE340E050E0E222F322B1
:10F1000004231523CA5DDE4FA880B980CA80DB8046
:10F11000C652D140AE0CBF1CC01ED11EAA0CBB1CD7
:10F12000CC1CDD1C8EE092EE60E00F94C2F1BB2798
:10F13000A12F902F8F2D0F940DF28E2D0F940DF285
:10F1400030E23093C6008091C00086FFFCCF8091F2
:10F15000C00080648093C0004EE34093C60080915D
:10F16000C00086FFFCCF87C08EE09EEFA0E0B0E03D
:10F17000E822F9220A231B239CE0E91694E9F90608
:10F1800090E0090790E0190709F088C0C45DDE4FE0
:10F19000A881CC52D140EA2EFF2400E010E0102FCD
:10F1A0000F2DFE2CEE24C55DDE4FB881CB52D14031
:10F1B000EB0EF11C011D111DD601C501817090706F
:10F1C000A070B070DC0199278827E80EF91E0A1F8D
:10F1D0001B1F20EF30E040E050E0A222B322C42207
:10F1E000D52241E1AA0CBB1CCC1CDD1C4A95D1F7F1
:10F1F000EA0CFB1C0C1D1D1D81E090E0A0E0B0E0BE
:10F20000282239224A225B2235E1220C331C441C7D
:10F21000551C3A95D1F7E20CF31C041D151D57013E
:10F220006801AA0CBB1CCC1CDD1C85E192EE60E0E1
:10F230000F94C2F1C801AA27BB270F940DF2BB2778
:10F24000A12F902F8F2D0F940DF28E2D0F940DF274
:10F2500090E29093C6008091C00086FFFCCF809121
:10F26000C00080648093C000AEE3A093C60080918C
:10F27000C00086FFFCCF8091C00080648093C000F6
:10F28000C601AA27BB270F940DF2BB27AD2D9C2DDD
:10F290008B2D0F940DF28A2D0F940DF20F94DCF14B
:10F2A000CC5DDE4FE881F981C452D140F99709F471
:10F2B0004DCBF4E0EF2EF12C012D112D6E0C7F1CA7
:10F2C000801E911EF2CD83E093EE62E00F94F5F183
:10F2D0008AE192EE60E00F94C2F18091C00087FF56
:10F2E000FCCF1091C6001F751093C6008091C0001E
:10F2F00086FFFCCF8091C00080648093C0000F9493
:10F30000DCF1812F81548A3108F036C1163409F4BA
:10F3100095C0173490F4133409F44EC0143430F40B
:10F320001134F1F0123409F01DC130C0143409F465
:10F3300059C0153409F016C16BC01A3409F4C4C0A1
:10F340001B3438F4173409F48FC0183409F00AC19B
:10F35000A1C01B3409F4D2C01C3409F003C1E8C0B9
:10F360008FEF81B90DC082B1809582B980E090E0C5
:10F37000E0EDF7E03197F1F70196883C9105C1F790
:10F380008091C00087FFEFCF12B8EFC08FEF84B934
:10F390000DC085B1809585B980E090E0E0EDF7E0A3
:10F3A0003197F1F70196883C9105C1F78091C00033
:10F3B00087FFEFCF15B8D9C08FEF87B90DC088B1DF
:10F3C000809588B980E090E0E0EDF7E03197F1F7C3
:10F3D0000196883C9105C1F78091C00087FFEFCF6F
:10F3E00018B8C3C08FEF8AB90DC08BB180958BB9A7
:10F3F00080E090E0E0EDF7E03197F1F70196883C8E
:10F400009105C1F78091C00087FFEFCF1BB8ADC059
:10F410008FEF8DB90DC08EB180958EB980E090E0F0
:10F42000E0EDF7E03197F1F70196883C9105C1F7DF
:10F430008091C00087FFEFCF1EB897C08FEF80BBD1
:10F440000DC081B3809581BB80E090E0E0EDF7E0F6
:10F450003197F1F70196883C9105C1F78091C00082
:10F4600087FFEFCF11BA81C08FEF83BB0DC084B38C
:10F47000809584BB80E090E0E0EDF7E03197F1F714
:10F480000196883C9105C1F78091C00087FFEFCFBE
:10F4900014BA6BC08FEF809301010FC080910201FD
:10F4A00080958093020180E090E0E0EDF7E03197F5
:10F4B000F1F70196883C9105C1F78091C00087FF64
:10F4C000EDCF1092020151C08FEF809304010FC065
:10F4D0008091050180958093050180E090E0E0ED4A
:10F4E000F7E03197F1F70196883C9105C1F78091DB
:10F4F000C00087FFEDCF1092050137C08FEF8093DA
:10F5000007010FC08091080180958093080180E079
:10F5100090E0E0EDF7E03197F1F70196883C910536
:10F52000C1F78091C00087FFEDCF109208011DC088
:10F530008FEF80930A010FC080910B01809580931B
:10F540000B0180E090E0E0EDF7E03197F1F70196F4
:10F55000883C9105C1F78091C00087FFEDCF1092E4
:10F560000B0103C085E292EEEEC98091C00087FFD7
:10F57000FCCF8091C600EAC988E392EEE4C98CE131
:10F5800091EEE1C988249924933011F1943028F444
:10F59000913089F09230B8F408C0953061F195301F
:10F5A000F0F0963009F048C043C02B3109F042C951
:10F5B00091E06BE13FC96227C15DDE4F2883CF52E6
:10F5C000D14092E037C9B22FA0E0622793E032C960
:10F5D000822F90E0A82BB92B622794E02BC92E3004
:10F5E00009F039C3622795E0C05DDE4F19821882A9
:10F5F000C053D1401FC9E1E0F0E0EC0FFD1FC05D3A
:10F60000DE4F08811981C053D140E00FF11F2083E4
:10F610000F5F1F4FC05DDE4F19830883C053D14079
:10F6200062270A171B0709F005C9D80196E002C92D
:10F63000261709F010C303C0973009F0FBC87724E0
:10F640009981933109F412C19431C8F4963009F4C8
:10F65000D8C0973050F4923009F406C1933009F4C1
:10F660006DC0913009F059C253C0913109F477C08F
:10F67000923108F0BBC0903109F04FC2F5C098310B
:10F6800009F487C0993150F4953109F4EFC09531F0
:10F6900008F4C6C1963109F040C2C2C19A3109F4DA
:10F6A0006CC09A3108F491C09B3109F45BC09D3164
:10F6B00009F033C29D81903359F48F81882311F46E
:10F6C0009EE11CC0813011F091E018C098E916C08D
:10F6D000892F807591F0903539F4E0E0F0E089E011
:10F6E0008093570094910AC0983539F4E3E0F0E034
:10F6F00089E080935700949101C090E01A821B82A8
:10F700008D818C831D829E831F8227E030E009C299
:10F710001A8288E08B8381E48C8386E58D8382E581
:10F720008E8389E48F8383E5888780E589878FE5E9
:10F730008A8782E38B872BE030E0F3C18A818139AD
:10F7400041F0823941F0803911F48FE005C080E04A
:10F7500003C082E001C08AE01A828B8344C0772410
:10F76000739482C08D81882311F48EE12CC0813086
:10F7700011F081E028C088E926C01A82E1E0F0E0BB
:10F7800089E08093570084918B831C8224E030E0D1
:10F79000C8C18B81803589F48C81883039F4E2E0EE
:10F7A000F0E089E08093570084910DC0E0E0F0E044
:10F7B00089E080935700849106C0E3E0F0E089E09F
:10F7C0008093570084911A82DFCF8D81836C99E0FA
:10F7D000E1E0F0E0082E90935700E89507B600FCB2
:10F7E000FDCF1A821B8223E030E09BC180EC8A832C
:10F7F000CE5CDE4F188219821A821B82C253D1401E
:10F800008EC18A8190E0A0E0B0E0582F44273327D2
:10F8100022278B8190E0A0E0B0E0DC0199278827C7
:10F82000282B392B4A2B5B2B8D8190E0A0E0B0E098
:10F83000282B392B4A2B5B2B8C8190E0A0E0B0E089
:10F84000BA2FA92F982F8827282B392B4A2B5B2BCF
:10F85000220F331F441F551FC05EDE4F288339839C
:10F860004A835B83C052D1401A8259C13A81C95C34
:10F87000DE4F3883C753D140CA5CDE4F1882C6536F
:10F88000D1408B81C82EDD24CA5CDE4F488159816E
:10F89000C653D140C42AD52A933109F082C0CE5C28
:10F8A000DE4F88819981AA81BB81C253D1408050AB
:10F8B000904CA340B04030F583E0CE5CDE4FE88052
:10F8C000F9800A811B81C253D140F70100935B008C
:10F8D00080935700E89507B600FCFDCFCE5CDE4F65
:10F8E000088119812A813B81C253D14000501F4FAA
:10F8F0002F4F3F4FCE5CDE4F088319832A833B8313
:10F90000C253D140C05EDE4F488159816A817B81FC
:10F91000C052D140DE011B9631E08C9111962C91A2
:10F9200011971296C75CDE4F2883C953D140C85C3B
:10F93000DE4F1882C853D14090E0C85CDE4FE881AA
:10F94000F981C853D1408E2B9F2B0C01FA01609393
:10F950005B0030935700E89511244E5F5F4F6F4F67
:10F960007F4F0EEFE02E0FEFF02ECE0CDF1CC114F8
:10F97000D10499F685E0C05EDE4F088119812A81A5
:10F980003B81C052D140F80120935B008093570027
:10F99000E89507B600FCFDCF81E180935700E8951C
:10F9A00035C0C05EDE4F88819981AA81BB81C0527B
:10F9B000D140B695A795979587957C018601ABE0D8
:10F9C000AA2EB12CAC0EBD1E0BC0D5016D915D01F0
:10F9D000C7010F947FFE0894E11CF11C01501040F8
:10F9E0000115110591F7A60160E070E0440F551F65
:10F9F000661F771FC05EDE4FE880F9800A811B8199
:10FA0000C052D1404E0D5F1D601F711F1A82C05E33
:10FA1000DE4F488359836A837B83C052D1407FC0C5
:10FA2000FA80C55CDE4FF882CB53D140C65CDE4F16
:10FA30001882CA53D1408B81C82EDD24C65CDE4FAC
:10FA400008811981CA53D140C02AD12A1A828981DA
:10FA5000BE016D5F7F4F843121F59601C05EDE4FA0
:10FA6000E880F9800A811B81C052D1400BBFF701A9
:10FA700087919691DB018C9311969C936E5F7F4FDB
:10FA8000D801C7010296A11DB11DC05EDE4F88835B
:10FA90009983AA83BB83C052D14022503040F1F6F3
:10FAA00036C0C05EDE4F288139814A815B81C052F9
:10FAB000D1400894C108D108760100E010E0089414
:10FAC000C11CD11C0894E11CF11C011D111DE20E8A
:10FAD000F31E041F151F21BDBB27A52F942F832FB5
:10FAE00082BD2F5F3F4F4F4F5F4FF89A80B5DB01CC
:10FAF0008D93BD012E153F054007510761F7C05E8C
:10FB0000DE4F288339834A835B83C052D1409601FC
:10FB10002D5F3F4FFB01108204C080EC8A8322E0FE
:10FB200030E08BE18093C6008091C00086FFFCCF5F
:10FB30008091C00080648093C000C15DDE4FF88179
:10FB4000CF52D140F093C6008091C00086FFFCCF19
:10FB50008091C00080648093C000432F3093C60022
:10FB60008091C00086FFFCCF8091C00080648093AC
:10FB7000C000922F2093C6008091C00086FFFCCF6A
:10FB80008091C00080648093C0008EE08093C600A6
:10FB90008091C00086FFFCCF8091C000806480937C
:10FBA000C00065E1C15DDE4FE880CF52D1406E25D7
:10FBB00069276427FE01319610C090819093C6009A
:10FBC0008091C00086FFFCCF31968091C000806498
:10FBD0008093C0006927215030402115310569F715
:10FBE0006093C6008091C00086FFFCCF8091C0006A
:10FBF00080648093C00085B1805885B9772081F4F6
:10FC0000C15DDE4F0881CF52D1400F5FC15DDE4F35
:10FC10000883CF52D14090E0A0E0B0E00D941AF4F8
:10FC200027982F9880E090E020ED37E0F901319798
:10FC3000F1F7019684369105C9F700008091C00064
:10FC40008D7F8093C00081E180935700E895EE2777
:10FC5000FF270994FFCF90E00D941AF497FB092E2B
:10FC600007260AD077FD04D02ED006D000201AF443
:10FC7000709561957F4F0895F6F7909581959F4F08
:10FC80000895A1E21A2EAA1BBB1BFD010DC0AA1FDD
:10FC9000BB1FEE1FFF1FA217B307E407F50720F0F5
:10FCA000A21BB30BE40BF50B661F771F881F991F70
:10FCB0001A9469F760957095809590959B01AC01B9
:10FCC000BD01CF010895AA1BBB1B51E107C0AA1FAC
:10FCD000BB1FA617B70710F0A61BB70B881F991FED
:10FCE0005A95A9F780959095BC01CD010895F99991
:10FCF000FECF92BD81BDF89A992780B50895262F31
:10FD0000F999FECF1FBA92BD81BD20BD0FB6F89400
:0EFD1000FA9AF99A0FBE01960895F894FFCF63
:00000001FF
