:100000000C941B010C944C010C944C010C944C016D
:100010000C944C010C944C010C944C010C944C012C
:100020000C944C010C944C010C944C010C944C011C
:100030000C944C010C944C010C944C010C944C010C
:100040000C944C010C944C010C944C010C944C01FC
:100050000C944C010C944C010C944C010C944D10DC
:100060000C944C010C94C1100C9497100C944C01FE
:100070000C944C010C944C010C944C010C944C01CC
:100080000C944C010C944C010C944C010C944C01BC
:100090000C944C010C944C010C944C010C944C01AC
:1000A0000C944C010C944C010C944C010C944C019C
:1000B0000C944C010C944C010C944C010C944C018C
:1000C0000C944C010C944C010C944C010C944C017C
:1000D0000C944C010C944C010C944C010C944C016C
:1000E0000C944C010C9460020C94AC010C94A7018C
:1000F0000C94C6010C946F020C9416030C94161504
:100100000C94E1010C94CD010C94C9020C94D30120
:100110000C94EF010C94EB010C9491020C94CA0125
:100120000C94C2010C94F9010C94FD010C94DD01B6
:100130000C94F3010C94E5010C9433020C94BE0171
:100140000C9483020C94D7010000220025002800A3
:100150002B002E00310034000201000005010801CF
:100160000B0105050505070508080808020202023B
:100170000A0A080804040404010101010101010143
:100180000303030303030303040707070C0C0C0C0E
:100190000C0C0C0C020202020606060606060606F7
:1001A0000B0B0B0B0B0B0B0B010210202008081084
:1001B00020401020408002010201080402010102D7
:1001C00004081020408080402010080402018004B0
:1001D000020180402010080402010804020101020B
:1001E0000408102040800102040810204080000014
:1001F0000A0B02090C0D0E080703040100000000A1
:1002000000000000000000000000000000000000EE
:1002100000000000000000000000121110000000AB
:1002200000000000000000000000000000000000CE
:1002300000000000161511241FBECFEFDFEFDEBF58
:10024000CDBF00E00CBF15E0A0E0B2E0E2E6FDE2C9
:1002500000E00BBF02C007900D92A230B107D9F7A2
:1002600029E0A2E0B5E001C01D92AA38B207E1F78B
:1002700011E0CBE1D1E000E006C021970109802F19
:10028000FE010E944315CA31D10780E00807A9F793
:100290000E94F7100C94AF160C940000FC0181E052
:1002A00080838283148216821782108611861286BA
:1002B0001386148615861786118A128A138A148A61
:1002C000158A168A178A108E128E148E168E178E25
:1002D00010A211A212A213A214A215A217A210A674
:1002E00011A612A613A614A615A616A60895282FC1
:1002F00030E0F901E251FE4F9491F901E855FE4FCB
:1003000044912E593E4FF9012491222309F435C01E
:10031000992311F191509231F8F4E92FF0E08827F8
:10032000EB56FE4F8F4F0C944315C601CA01A7012F
:10033000BE01C201AC01CD01D301D701DD01E10154
:10034000E501EB01EF01AC01F301F901FD01809141
:1003500080008F7780938000E22FF0E0EE0FFF1F88
:10036000E85BFE4FA591B4918FB7F894EC916111C1
:1003700048C040954E234C938FBF089580918000D4
:100380008F7DE8CF80918000877FE4CF84B58F7721
:1003900084BDE2CF84B58F7DFBCF8091B0008F7795
:1003A0008093B000D9CF8091B0008F7DF9CF80913C
:1003B00090008F7780939000CFCF809190008F7DB9
:1003C000F9CF80919000877FF5CF8091A0008F7743
:1003D0008093A000C1CF8091A0008F7DF9CF809144
:1003E000A000877FF5CF809120018F778093200137
:1003F000B3CF809120018F7DF9CF80912001877F3D
:10040000F5CF4E2BB8CF8230910538F0880F991F69
:10041000880F991F05970197F1F708953FB7F89452
:100420008091820990918309A0918409B0918509F6
:1004300026B5A89B05C02F3F19F00196A11DB11D3F
:100440003FBFBA2FA92F982F8827BC01CD01620F7B
:10045000711D811D911D42E0660F771F881F991F36
:100460004A95D1F70895AF92BF92CF92DF92EF9263
:10047000FF920F931F93CF93DF936C017B018B014E
:10048000040F151FEB015E01AE18BF08C017D1079E
:1004900059F06991D601ED91FC910190F081E02D28
:1004A000C6011995892B79F7C501DF91CF911F916D
:1004B0000F91FF90EF90DF90CF90BF90AF90089595
:1004C000FC01538D448D252F30E0842F90E0821B5A
:1004D000930B541710F0CF96089501970895FC01DF
:1004E000918D828D981761F0A28DAE0FBF2FB11D37
:1004F0005D968C91928D9F5F9F73928F90E008958F
:100500008FEF9FEF0895FC01918D828D981731F048
:10051000828DE80FF11D858D90E008958FEF9FEF9C
:100520000895FC01918D228D892F90E0805C9F4F72
:10053000821B91098F739927089587EF97E00E9496
:10054000910221E0892B09F420E0822F0895FC011B
:10055000A48DA80FB92FB11DA35ABF4F2C91848D24
:1005600090E001968F739927848FA689B7892C9381
:10057000A089B1898C91837080648C93938D848DD4
:10058000981306C00288F389E02D80818F7D8083D7
:100590000895EF92FF920F931F93CF93DF93EC0197
:1005A00081E0888F9B8D8C8D98131AC0E889F9891A
:1005B000808185FF15C09FB7F894EE89FF8960831D
:1005C000E889F98980818370806480839FBF81E09E
:1005D00090E0DF91CF911F910F91FF90EF900895E0
:1005E000F62E0B8D10E00F5F1F4F0F731127E02EBB
:1005F0008C8D8E110CC00FB607FCFACFE889F989F3
:10060000808185FFF5CFCE010E94A702F1CFEB8D4F
:10061000EC0FFD2FF11DE35AFF4FF0829FB7F894C6
:100620000B8FEA89FB8980818062CFCFCF93DF93E4
:10063000EC01888D8823B9F0AA89BB89E889F989FA
:100640008C9185FD03C0808186FD0DC00FB607FC2F
:10065000F7CF8C9185FFF2CF808185FFEDCFCE0162
:100660000E94A702E9CFDF91CF91089580E090E04A
:10067000892B29F00E949D0281110E94000080E0D8
:1006800090E0892B49F080E090E0892B29F00E94CE
:10069000000081110E94000080E090E0892B49F069
:1006A00080E090E0892B29F00E94000081110E94D7
:1006B000000080E090E0892B49F080E090E0892BF9
:1006C00029F00E94000081110C9400000895FC01A3
:1006D00084819581A681B781408151816281738136
:1006E000811526E3920725E6A20724ECB2073CF029
:1006F00014161506160617068CF4B7FF0FC04150E6
:100700005109610971094083518362837383965350
:10071000A546B44C84839583A683B7838481958151
:10072000A681B781408151816281738181302AEC39
:1007300092072AE9A2072BE3B2073CF477FF14C023
:10074000181619061A061B067CF44F5F5F4F6F4F91
:100750007F4F40835183628373839A5CAA49BB4372
:1007600084839583A683B7830895880F991F880F84
:10077000991FFC01EA5FFB4F8081918122813381C7
:100780002A30310541F02F30310529F02230310572
:1007900011F080E090E0089582339105B8F4880F5D
:1007A000991F880F991FFC01EA5FFB4F828193819B
:1007B0008A30910541F08F30910511F0029731F4A4
:1007C00081E090E0089588E090E0089590E080E076
:1007D000089520910505209530E0F901EA5FFC4F6E
:1007E000908190952A5F3D4FD9018C9140910305EE
:1007F0005091040542505109E5E0F5E031969F0122
:10080000255035402417350770F420819227292F71
:1008100030E0D901AA5FBC4F9C9198272A5F3D4FD9
:10082000D9018C91EBCF089523E030E0309304059B
:1008300020930305E5E0F5E09091E407908380586C
:100840008183628308950F931F93582F577001E09F
:1008500010E020E030E004C0000F111F221F331F02
:100860005A95D2F723E0969587952A95E1F799272F
:10087000E091EE07F091EF07662321F0E091F40795
:10088000F091F507E80FF91F8081442329F0082B28
:1008900000831F910F91089500950823F9CFCF92FF
:1008A000DF92EF92FF920F931F93CF93DF93CDB719
:1008B000DEB789899A89AB89BC894D895E896F8940
:1008C000788D098D1A8D2B8D3C8DCD8CDE8CEF8C27
:1008D000F8A080179107A207B30759F44C195D09D6
:1008E0006E097F0914161506160617065CF081E0DE
:1008F0000AC0801B910BA20BB30B181619061A061F
:100900001B06ACF780E0DF91CF911F910F91FF9014
:10091000EF90DF90CF9008954F925F926F927F9209
:100920008F929F92AF92BF92CF92DF92EF92FF92FF
:100930000F931F93CF93DF93CDB7DEB7A0970FB67A
:10094000F894DEBF0FBECDBFFC0123812270308141
:1009500031111AC0211101C01282A0960FB6F8946D
:10096000DEBF0FBECDBFDF91CF911F910F91FF90E2
:10097000EF90DF90CF90BF90AF909F908F907F903F
:100980006F905F904F900895211102C021E0228363
:10099000FC0126A121FD09C028E0E8E6F9E0DC0120
:1009A0005E9601900D922A95E1F78C01FC01F28C84
:1009B0008481F1101BC0948D9111EAC08823C1F08D
:1009C000838D81FD02C081E0828FF801808981FFE3
:1009D0001786F80187A581FD1FC088E07E96D801A3
:1009E000979601900D928A95E1F716C081111BC070
:1009F000F801818D81FD08C0118A128A138A148A38
:100A0000158A168A178A108EF801808981FF178649
:100A1000F801838D81FF128EF801858D81FD9DCFB8
:100A20008481848F9ACFF1E0FF12F6CFF80183A57D
:100A300094A5A5A5B6A582849384A484B58447A172
:100A400050A561A572A54680578060847184440DCD
:100A5000551D661D771D49835A836B837C83880DE2
:100A6000991DAA1DBB1D8D839E83AF83B887CE01C0
:100A700001960E94670388E0FE013196DE015196DF
:100A800001900D928A95E1F788E0FE017196DE01F2
:100A9000599601900D928A95E1F700D000D01F92EF
:100AA0001F92ADB7BEB7119688E0F8017E9601900F
:100AB0000D928A95E1F700D000D01F921F92ADB73A
:100AC000BEB7119688E0FE01799601900D928A9545
:100AD000E1F71F9282E0E82EEF921F921F92FF92A1
:100AE0000E944F040FB6F894DEBF0FBECDBFF801D1
:100AF000918D882389F0838D81FFE28EF8018089B2
:100B000081FD02C081E0878788E0F801369691FD7B
:100B100083CFD801519665CF91FD7ECF82A193A15D
:100B2000A4A1B5A1C3A4D4A4E5A4F6A4468D578D71
:100B300060A171A187A090A4A1A4B2A448195909E9
:100B40006A097B0949875A876B877C878C199D09BD
:100B5000AE09BF098D879E87AF87B88BCE010996F6
:100B60000E94670388E0FE013996DE01119601902C
:100B70000D928A95E1F788E0FE013196DE01199623
:100B800001900D928A95E1F788E0FE013996C1CF78
:100B9000811142CF2DCFCF93DF93CDB7DEB78B85B9
:100BA000811108C081E09C85911101C080E0DF9136
:100BB000CF91089581E0FBCF2F923F924F925F92A9
:100BC0006F927F928F929F92AF92BF92CF92DF925D
:100BD000EF92FF920F931F93CF93DF93CDB7DEB7C2
:100BE000C354D1090FB6F894DEBF0FBECDBF10E0DD
:100BF00000E0F801EE0FFF1FEC58F84F0190F08174
:100C0000E02D309749F041E08081811101C040E042
:100C100060E0C8010E9423040F5F1F4F08331105D5
:100C200041F7E090E507F090E60704E317E019AF1D
:100C300008AF8701005C1F4FF70124E337E0D901BB
:100C40008D919D919D01009729F0DC018D919C91E2
:100C50009183808332960E171F0789F7D12CC12C00
:100C6000F601EE0FFF1FEC53F94F0190F081E02DDC
:100C7000309749F041E08081811101C040E061E09E
:100C8000C6010E942304BFEFCB1ADB0AE8E3CE16AD
:100C9000D10431F744E856E0E091F107F091F20712
:100CA0009F01205C3F4FDA018D919D91AD0100972E
:100CB00029F0DC018D919C91918380833296E2171B
:100CC000F30789F7ECE5F6E0FBAFEAAFF80108E6D9
:100CD000E00EF11C2CE536E0D9018D919D919D012E
:100CE000009729F0DC018D919C919183808332964D
:100CF000EE15FF0589F7E4E3F6E0FDAFECAFE09118
:100D0000E807F091E9079F01205B3F4F04E316E0FD
:100D1000D8018D919D918D01009749F0DC014D9195
:100D20005D916D917C91408351836283738334968E
:100D30002E173F0769F7ECE0F6E0FFAFEEAFE0916A
:100D4000EB07F091EC079F0120563F4F8CE096E0B7
:100D5000DC01CD90DD90CD01C114D104F1F0D601BC
:100D6000EC901196FC90119712960C911297139695
:100D70001C91139714967C91149715966C91159766
:100D800016965C91169717964C91E082F182028339
:100D90001383748365835683478338962E173F07E2
:100DA000B9F6109204051092030580910A069091FD
:100DB0000B06DC01ED91FC910084F185E02D199585
:100DC000892B09F483C080910A0690910B06DC01FF
:100DD000ED91FC910084F185E02D1995209103059A
:100DE00030910405A0910A06B0910B06ED91FC919B
:100DF00011970084F185E02D2817390768F4CD019B
:100E000019959093040580930305809107069091AE
:100E100008060E940302D7CFCD0119958130914079
:100E20000CF054C080910A0690910B06DC01ED9104
:100E3000FC910084F185E02D199506970CF446C0CD
:100E400045E0842E45E0942E8401E0900305F09067
:100E50000405C801855095408E159F0578F4809152
:100E60000A0690910B06DC01ED91FC910284F3855A
:100E7000E02D1995F80181938F01E7CF10910605B8
:100E80008FEB810F853080F00E94E90397012B5F83
:100E90003A4FF9013297408121503109D9012C9103
:100EA000342F2817390791F4909105058091E407B4
:100EB000981709F4CDC080910A0690910B06DC01C9
:100EC000ED91FC910680F781E02D19954091EE0798
:100ED0005091EF0730E020E0F901EE0FFF1FEC58D2
:100EE000F84F0190F081E02D309799F0D90183E01F
:100EF000B695A7958A95E1F7A40FB51F8C9190E060
:100F0000622F677002C0959587956A95E2F78170A8
:100F100080832F5F3F4F28333105F1F68091E5073D
:100F20009091E607BC01605C7F4FDC01E8ADF9AD54
:100F300021913191F9AFE8AF2115310531F04D9193
:100F40005C911197F9015183408312966A177B07D0
:100F500069F7FB0188599F4FAAADBBAD4D915D91DB
:100F6000BBAFAAAF4115510529F020813181DA01CB
:100F70002D933C9332968E179F0771F7E091E80707
:100F8000F091E907CF01805B9F4FACADBDAD2D91D6
:100F90003D91BDAFACAF2115310551F0408151817C
:100FA00062817381D9014D935D936D937C93139707
:100FB00034968E179F0749F7E091EB07F091EC0705
:100FC000CF0180569F4FAEADBFADED90FD90BFAF4E
:100FD000AEAFE114F104F1F00081118172816381FF
:100FE0005481458136812781D7010C9311961C933A
:100FF000119712967C93129713966C9313971496ED
:101000005C93149715964C93159716963C931697E8
:1010100017962C9338968E179F07A9F6CD5BDF4F56
:101020000FB6F894DEBF0FBECDBFDF91CF911F91F9
:101030000F91FF90EF90DF90CF90BF90AF909F9077
:101040008F907F906F905F904F903F902F9008957A
:10105000B2E0EB1AF108F0920405E09203058091EA
:10106000070590910805382E292E6090090570908B
:101070000A05762467247624D090090520910B0573
:1010800030E01F3009F48AC5A0F5133009F480C19F
:1010900058F4113009F4F5C3123009F484C461E046
:1010A00070E0812F90E022C0153009F457C508F494
:1010B0000BC51630A1F72091E7078091EA0790E071
:1010C000880F991FE22FF0E08E0F9F1F4091ED07D0
:1010D00004E0409FA0011124480F591F2416350633
:1010E00008F449C062E070E086E090E00E941404D9
:1010F0004FC0123409F416C798F4103109F462C2D3
:10110000113469F684E090E0909304058093030520
:10111000109306051092070582E38093080538C0F6
:10112000143409F464C608F4DDC5153409F0B7CFEA
:101130008D3ABEED9B0709F09DC71092020585E42C
:10114000809306058EE78093070581E2E0EEF4E0E8
:10115000DE01119601900D928A95E1F7FE0131961C
:10116000A8E0B5E081919D0125503540882309F420
:101170008FC78D93F7CF2E163F06D8F4220C331C61
:10118000E091E507F091E607E20DF31D71826082C0
:10119000809103059091040502968130914008F4F6
:1011A0005AC58091060564E070E090E00E94140446
:1011B00052C528163906F0F5A30170E060E0809171
:1011C000E8079091E90720FC1CC091012E1B3F0B02
:1011D000F901EE0FFF1FEC7FF370E80FF91F80811C
:1011E0009181A281B381AA27BB27BA015527442741
:1011F000842B952BA62BB72B80839183A283B3835B
:10120000C7CFE095F095E20DF31DEE0FFF1FEC7FC9
:10121000F370E80FF91F60807180828093806624EC
:101220007724462957296829792940835183628385
:101230007383AECF9101237033274301B12CA12CCE
:10124000C12CD12C7601E091EB07F091EC07211530
:10125000310549F5281A390A220C331C38EF2322AC
:1012600037E03322E20DF31D5080618072801381DC
:10127000B481A581940140E050E060E070E080E03E
:1012800090E000E30E944B1525292083632A6182A8
:10129000742A7282152B1383B62BB483A72BA583D4
:1012A0008683978375CF2130310541F54FEF241A9E
:1012B000340A281A390A220C331C88EF282287E0C6
:1012C0003822E20DF31D5080618072801381B68157
:1012D000A7819401A501B601C70100E20E944B1548
:1012E000522A5082632A6182742A7282152B1383D8
:1012F000648375838B2B86839A2BD3CF2230310561
:1013000029F5A2E02A0E311C281A390A220C331CB6
:10131000B8EF2B22B7E03B22E20DF31D5080618035
:1013200074801581B681A7819401A501B601C7011A
:1013300000E10E944B15522A5082632A6182428347
:101340005383762A7482172B1583D4CF03E0200EA3
:10135000311C281A390A220C331C18EF212217E0FD
:101360003122E20DF31D5281438134812581968122
:101370008781808291825A2952834B2943833C2959
:1013800034832D2925839E2996838F29878300CF37
:10139000C301019763E070E08D379105C8F46101E6
:1013A000C60CD71C4091E707E091EA07F0E0EE0F8A
:1013B000FF1FE40FF11D8091ED0724E0829FC00123
:1013C00011248E0F9F1FC816D90628F062E070E026
:1013D00083E090E08BCE660C771CC301039690935C
:1013E000040580930305A5E0B5E011969D01255005
:1013F00035402817390710F41C92F7CF93E09093EB
:101400000605835080930705E090EB07F090EC070A
:10141000A090E807B090E907A091E507B091E60732
:10142000BAA7A9A7A42FB0E0BBABAAAB83E090E01A
:101430002C014E1A5F0A3D0160947094C214D304CB
:1014400009F4A6CEAAA9BBA92A163B0660F491010D
:10145000220F331FA9A5BAA52A0F3B1FD9018C91D2
:1014600011963C911AC02E163F0670F520FC22C042
:10147000C101AAA9BBA98A1B9B0B880F991F8C7F4E
:1014800093708A0D9B1DDC014D915D916D917C9156
:10149000AB0166277727842F352FD40113963C9311
:1014A000139714968C93B2E08B0E911C0FEF201AB9
:1014B000300AC4CF9301220D331D220F331F2C7F1E
:1014C00033702A0D3B1DCACF81010370112701150E
:1014D000110521F581010E1B1F0B000F111F087F45
:1014E00017700E0D1F1DD8012C9111963C9111976C
:1014F00012964C91129713965C91139714966C91D7
:10150000149715967C91159716968C9116971796A9
:101510009C9100E30E946615822FBFCF0130110518
:1015200011F50E1B1F0B020D131D000F111F087F5D
:1015300017700E0D1F1DD8012C9111963C9111971B
:1015400012964C91129713965C91139714966C9186
:10155000149715967C91159716968C911697179659
:101560009C9100E2D7CF0230110511F50E1B1F0B25
:10157000020D131D000F111F087F17700E0D1F1D88
:10158000D8012C9111963C91119712964C9112977B
:1015900013965C91139714966C91149715967C9101
:1015A000159716968C91169717969C9100E1B2CFDD
:1015B0009201220D331D220F331F287F37702E0D0D
:1015C0003F1D4CCFC30101978B37910530F4C30108
:1015D000880F991F2817390729F063E070E080E130
:1015E00090E084CDD101A60DB71DBDABACAB809111
:1015F000E7074090EA07512C440C551CA82EB12C4B
:101600004A0C5B1C2091ED07B4E02B9F9001112444
:10161000240D351DECA9FDA9E217F30718F062E0CF
:1016200070E0DDCF26E030E0309304052093030521
:1016300010930605309207052092080510920905BF
:1016400060920A056090EB077090EC07C090E80785
:10165000D090E907DFAACEAA4091E5075091E607AE
:101660009101220F331F7A01E20EF31EFBAAEAAAB0
:10167000D101A419B509C50180959095FC01E40D2F
:10168000F51D2296FFAFEEAF22976201CA18DB0864
:101690002496DFAECEAE2497ECA8FDA82E143F040E
:1016A00009F4D9C2F40147818085542F482F2A14A8
:1016B0003B0488F4EAA9FBA951834083EAA9FBA96A
:1016C0003296FBABEAAB1196FFEF2F1A3F0A02E00E
:1016D000800E911CE1CF24143504C8F570E060E061
:1016E00020FC20C02496EEADFFAD2497EA0FFB1F2F
:1016F000EE0FFF1FEC7FF370CEA8DFA8EC0DFD1DF1
:10170000008111812281338122273327BA01552795
:101710004427402B512B622B732B408351836283D0
:101720007383CCCF2296EEADFFAD2297EA0FFB1F5D
:10173000EE0FFF1FEC7FF370EEA8FFA8EE0DFF1D6C
:10174000008111812281338100271127E2CFC1015D
:10175000837099276A01F12CE12C00E010E09801D8
:10176000C9A6DAA6EBA6FCA60DA71EA72FA738AB25
:10177000FD01009741F5EE0FFF1FE87FF770E60DC2
:10178000F71DD080D9AAC180D280E380F480158172
:1017900029A53AA540E050E060E070E080E090E0EC
:1017A00000E30E944B1509A9202B20833C2931839B
:1017B0004D2942835E295383F62AF482172B158321
:1017C000868397837BCF8130910541F53196EE0F6B
:1017D000FF1FE87FF770E60DF71D108119ABC18080
:1017E000D280E380F680178129A53AA540E050E039
:1017F00060E070E080E090E000E20E944B1509A9F3
:10180000202B20833C2931834D294283E52AE38222
:10181000648375838F298683912BD3CF029729F513
:101820003296EE0FFF1FE87FF770E60DF71D10816F
:1018300019ABC180D480E580F680178129A53AA52F
:1018400040E050E060E070E080E090E000E10E9465
:101850004B1509A9202B20833C29318342835383D4
:10186000D62AD482E72AE582D5CF3396EE0FFF1F22
:10187000E87FF770E60DF71D19A510832AA52183CF
:101880001DCFC301019763E070E0803D974068F58C
:101890002091F007C101860D971D62E070E02817C6
:1018A000190618F1C30113E0969587951A95E1F78B
:1018B0009C012D5F3F4F3093040520930305930156
:1018C00027703327232B29F00496909304058093E7
:1018D00003058091030590910405E5E0F5E0813072
:1018E00021E0920728F064E070E081E090E0FECB18
:1018F00031969F01255035402817390710F4108282
:10190000F7CF91E0909306058350809307050091EF
:10191000EE071091EF0770E060E020E0C12CD12CC1
:101920007601C394D701C601022E04C0880F991F07
:10193000AA1FBB1F0A94D2F789A79AA7ABA7BCA777
:10194000FB0133E0F695E7953A95E1F7E85FFA4F4A
:101950003081A101A3E056954795AA95E1F74F7113
:101960005527400F511FDA014C9150E0B22DB7704E
:1019700002C055954795BA95E2F789A540FF0FC07B
:10198000832B80832F5F283009F420E0EFEF2E1A9D
:101990003E0A6F5F7F4F6616770621F6F9CB80957A
:1019A00038233083EFCFC301019763E070E0803DBF
:1019B000974068F52091F607C101860D971D62E0FA
:1019C00070E02817190618F1C30123E09695879552
:1019D0002A95E1F79C012D5F3F4F3093040520933A
:1019E0000305930127703327232B29F00496909346
:1019F0000405809303058091030590910405E5E0BB
:101A0000F5E0813001E0900728F064E070E082E0CA
:101A100090E06CCB31969F0125503540281739074F
:101A200010F41082F7CF92E09093060583508093D4
:101A300007056091F4077091F50750E040E010E071
:101A4000C12CD12C7601C394D701C601012E04C04C
:101A5000880F991FAA1FBB1F0A94D2F789A79AA7BC
:101A6000ABA7BCA7FA01A3E0F695E795AA95E1F725
:101A7000E85FFA4F00819101B3E036952795BA955A
:101A8000E1F7260F372F311DD9012C9130E0B22D0F
:101A9000B77002C035952795BA95E2F789A520FF62
:101AA0000FC0802B80831F5F183009F410E0EFEF28
:101AB0002E1A3E0A4F5F5F4F6416750629F668CBF3
:101AC000809508230083EFCFC301019763E070E0A6
:101AD0008D37910550F42091F307C101860D971DB4
:101AE0002817190628F462E070E084E090E0FECA4E
:101AF000C301880F991F03969093040580930305F3
:101B0000E5E0F5E031969F0125503540281739076B
:101B100010F41082F7CF94E09093060583508093E1
:101B20000705220C331CE091F107F091F207E20D5A
:101B3000F31D01E0601A710812E0810E911C2FEF75
:101B40006216720609F424CB808191813296D40109
:101B500011969C93119712968C93EBCF6114BFEF63
:101B60007B0629F063E070E06114710449F4809110
:101B7000F0078150990B8215930528F462E070E01C
:101B800085E090E0B3CA41E06114EFEF7E0609F012
:101B900040E060E0C1010E942304FACAA30163E0AF
:101BA000569547956A95E1F7842FB30167707727BB
:101BB000672B11F081E0840FA30141505109403B94
:101BC000574018F48217130629F063E070E08FE0A5
:101BD00090E08CCA2091F007C101860D971D28174F
:101BE000190618F462E070E0F2CF86E090E090937E
:101BF0000405809303058FE0809306053092070566
:101C0000209208057092090560920A0510E000E034
:101C1000F12CF80183E0F695E7958A95E1F7EB5F03
:101C2000FA4F478150E00F2C02C0559547950A9412
:101C3000E2F7417060E0C101800F911F0E94230410
:101C4000F39498E0C92EFC1001C0F12C0F5F1F4FD8
:101C500060167106F1F600910305109104057801F4
:101C600022E0E20EF11CF0920405E09203050E94CE
:101C7000E903F801EB5FFA4F9083818380910906B5
:101C800087FD09C061E00E9477018091050690916F
:101C900006060E94030280910A0690910B06DC0161
:101CA000ED91FC910280F381E02DA70165E075E0E4
:101CB000199580910A0690910B06DC01ED91FC913B
:101CC0000680F781E02D1995809105069091060612
:101CD0000E9403028091090687FDF8C860E00E9417
:101CE0007701F4C802E32016310408F075C012E34E
:101CF0006116710408F070C06214730408F46CC0BB
:101D0000C101880F991F880F991F9C012A5F3B4FC3
:101D100079015101B0E18B2EB5E09B2E90E080E07F
:101D2000D70112962D913C91E8E0CE2ED12C2A308D
:101D3000310559F02F30310529F0D12CC12C22303A
:101D4000310519F4CC24C394D12C8601080F191F36
:101D50009801255F3F4F21303140E0F5C5010E94D9
:101D6000B503A601BC01C4010E94A6168C0C9D1CE3
:101D700095012F5F3F4FE4E0EE0EF11CC801150105
:101D80006216730628F5C8010796909304058093A0
:101D9000030583E4809306058EE780930705109280
:101DA0000805209209058091700990917109209190
:101DB00072093091730930930A0520930B059093B3
:101DC0000C0580930D0510930E0500930F05E0C9D7
:101DD0005901A6CF8C01D7CF83E090E09093040502
:101DE0008093030583E48093060581E829C0F5E12B
:101DF0002F163104E0F48E010F5F1F4F2801F80108
:101E0000B12CA12C12E0810E911C2A143B04D9F0B4
:101E1000D40112968C91129713969C91892798273A
:101E2000892781939193BFEFAB1ABB0AEBCF83E075
:101E300090E090930405809303051093060582E8D3
:101E400080930705A5C9912C812C20E0712C612C71
:101E50007BE0E72EF12CA814B90409F440C0F2018C
:101E6000C190D1902F01F2E3CF16D10440F083E06E
:101E700090E0909304058093030584E4B4CFF601C9
:101E8000EE0FFF1FEE0FFF1FEA5FFB4F8281938172
:101E900008E010E08A30910549F08F30910521F07B
:101EA00010E000E0029711F401E010E01701200EAD
:101EB000311E31E02316330690F4C6010E94B503AB
:101EC000A801BC01C7018B5F9A4F0E94A616600E45
:101ED000711E4FEF841A940A2C2D7101BCCFF09221
:101EE0000405E092030584E4809306058EE7809361
:101EF00007051092080520930905809170099091BB
:101F00007109209172093091730930930A05209369
:101F10000B0590930C0580930D0570920E05609251
:101F20000F0536C982E32816310450F480910A0562
:101F300090910B059827892798278A3F910540F0B3
:101F400083E090E0909304058093030582E44BCFF7
:101F50008101000F111F000F111FF801EA5FFB4FF5
:101F6000E280F380809102058130E1F0F801EA5FC0
:101F7000FB4F00811181D11035C0BAE0EB16F1049E
:101F800009F472C0EFE0EE16F10409F469C0F2E062
:101F9000EF16F10409F042C0D80111968C91119707
:101FA0008D7F3AC090E1E916F10401F3C1010E946E
:101FB000CC039C0136952795FC01EB5FFA4FA5E019
:101FC000B5E03197CD01855095408217930770F6A3
:101FD00017968C911797978117969C9317978783DD
:101FE0001196EFCFC1010E94CC03AC01AAE0EA1622
:101FF000F10449F1BFE0EB16F104D9F0E2E0EE168E
:10200000F10461F46CE075E0C8010E94A616D801E5
:1020100011968C911197826011968C9383E090E0D9
:10202000909304058093030582E4809306058EE770
:1020300007CF6CE075E0C8010E94A616F801818107
:1020400082608183EBCF6CE075E0C8010E94A61628
:10205000D80118968C911897826018968C93DECFD1
:10206000F80181818D7FEDCFD80118968C9118975A
:102070008D7FF3CF8E3D9D4A21F481E08093020550
:102080005EC883E090E0909304058093030557C8F1
:1020900030930405209303057BC81F920F920FB65F
:1020A0000F9211242F933F938F939F93AF93BF93DE
:1020B00080917E0990917F09A0918009B09181095A
:1020C00030917D0923E0230F2D3758F50196A11D8E
:1020D000B11D20937D0980937E0990937F09A09381
:1020E0008009B09381098091820990918309A09120
:1020F0008409B09185090196A11DB11D80938209C3
:1021000090938309A0938409B0938509BF91AF91FF
:102110009F918F913F912F910F900FBE0F901F9025
:10212000189526E8230F0296A11DB11DD2CF1F924C
:102130000F920FB60F9211240BB60F922F933F936D
:102140004F935F936F937F938F939F93AF93BF93BF
:10215000EF93FF9387EF97E00E94A702FF91EF9123
:10216000BF91AF919F918F917F916F915F914F91AF
:102170003F912F910F900BBE0F900FBE0F901F90AD
:1021800018951F920F920FB60F9211240BB60F9253
:102190002F938F939F93EF93FF93E0910708F09114
:1021A00008088081E0910D08F0910E0882FD1DC0A5
:1021B0009081809110088F5F8F7320911108821792
:1021C00041F0E0911008F0E0E950F84F958F8093CE
:1021D0001008FF91EF919F918F912F910F900BBE5F
:1021E0000F900FBE0F901F9018958081F2CF7894BA
:1021F00084B5826084BD84B5816084BD85B582600C
:1022000085BD85B5816085BD80916E0081608093BC
:102210006E00109281008091810082608093810025
:102220008091810081608093810080918000816035
:10223000809380008091B10084608093B100809190
:10224000B00081608093B0008091910082608093A3
:102250009100809191008160809391008091900025
:102260008160809390008091A10082608093A100A2
:102270008091A10081608093A1008091A000816085
:102280008093A00080912101826080932101809140
:1022900021018160809321018091200181608093E0
:1022A000200180917A00846080937A0080917A0086
:1022B000826080937A0080917A00816080937A00B6
:1022C00080917A00806880937A001092C100C1E00A
:1022D000C0939408109296081092980810929A0849
:1022E00010929C08C0939E081092A0081092A20819
:1022F00084EA98E00E944E0184ED98E00E944E012D
:1023000084E099E00E944E0184E399E00E944E012E
:102310001092640910926609E0910708F09108088C
:1023200082E08083E0910308F09104081082E0913C
:102330000508F091060880E1808310920F08E09173
:102340000B08F0910C0886E08083E0910908F09179
:102350000A08808180618083E0910908F0910A0871
:10236000808188608083E0910908F0910A0880816B
:1023700080688083E0910908F0910A0880818F7D50
:10238000808387EF97E090930B0680930A068FEF88
:10239000809309068EEE92E09093080680930706DC
:1023A00081E49AE09093060680930506C093E407C3
:1023B00084E38093E70784E18093EA078093ED0745
:1023C00088E38093F00790E29093F3078093F607F9
:1023D00087E090E00E9481159093EF078093EE07CD
:1023E000009709F451C0C7E0FC012C2F11922A95E7
:1023F000E9F788E690E00E9481159093E6078093C4
:10240000E507009709F440C028E6FC0111922A95DF
:10241000E9F780E590E00E9481159093E9078093A9
:10242000E807009789F120E5FC0111922A95E9F768
:1024300080EA90E00E9481159093EC078093EB076F
:10244000009711F120EAFC0111922A95E9F787E043
:1024500090E00E9481159093F5078093F407009710
:1024600099F0FC011192CA95E9F780E490E00E948E
:1024700081159093F2078093F107009729F020E4EB
:10248000FC0111922A95E9F7D0E0C0E08E01000F1F
:10249000111F0C58184FF80180819181892B49F444
:1024A00081E090E00E948115F80191838083FC0116
:1024B00010822196C833D10549F7C091E507D09124
:1024C000E607E4E3F7E090E080E021913191232BEF
:1024D00039F4DF0112979E01280F391F2D933C9389
:1024E00002968034910589F7F12CE12C8701000FC9
:1024F000111F0C53194FF80180819181892B49F4E8
:1025000081E090E00E948115F80191838083FC01B5
:102510001082FFEFEF1AFF0A28E3E216F10431F709
:102520002091F1073091F207E4E8F6E090E080E0D6
:1025300041915191452B39F4DF011297A901480FC0
:10254000591F4D935C9302968034910589F7ECE511
:10255000F6E090E080E0C05CDF4F21913191232BC9
:1025600039F4DF0112979E01280F391F2D933C93F8
:1025700002968832910589F74091E8075091E90762
:10258000E4E3F6E090E080E021913191232B59F4CF
:10259000DF0112979C01220F331F220F331F240FDC
:1025A000351F2D933C9301968431910569F7409135
:1025B000EB075091EC07ECE0F6E090E080E0219131
:1025C0003191232B61F4DF0112979C0163E0220F0C
:1025D000331F6A95E1F7240F351F2D933C93019625
:1025E0008431910561F780E29EE4A0E0B0E0809341
:1025F000750990937609A0937709B09378090E94A2
:102600000E026093790970937A0980937B09909305
:102610007C09C1E083E0C82ED12CE12CF12C9AE09A
:10262000892E912CA12CB12CD2E00E940E02009197
:10263000790910917A0920917B0930917C09601BFE
:10264000710B820B930B0091750910917609209103
:10265000770930917809601771078207930708F4AA
:10266000ACC18091700990917109A0917209B091EB
:1026700073090196A11DB11D809370099093710992
:10268000A0937209B09373098091A90881FD04C0D9
:10269000809194088093A8088091B20881FD10C0B1
:1026A0008092AA089092AB08A092AC08B092AD08B4
:1026B0001092AE081092AF081092B0081092B108B4
:1026C00084EA98E00E948C048091650981FD20C015
:1026D0009091A2088091A008882329F081E02091A0
:1026E000B308211101C080E01F929F938F931F9226
:1026F000DF931F921F92CF930E94CB0580936409B2
:102700008DB79EB708960FB6F8949EBF0FBE8DBFCB
:1027100080916409882351F08091970881FFC093CC
:1027200096088091950881FF109294088091D908AD
:1027300081FD04C0809196088093D8088091E208BA
:1027400081FD10C0C092DA08D092DB08E092DC086C
:10275000F092DD081092DE081092DF081092E00877
:102760001092E10884ED98E00E948C048091E308C7
:10277000882351F08091990881FFC0939808809137
:10278000970881FF109296089091A00891111CC0A3
:102790008091A208811118C080919E088823A1F021
:1027A00020919808222329F02091950821FFC093B9
:1027B0009408882349F080919808882329F0809113
:1027C000990881FF109298088091670981FD1DC0CA
:1027D0008091A208882321F081E020919A0821119C
:1027E00080E01F929F938F931F92DF931F921F92FF
:1027F000CF930E94CB0580936609EDB7FEB738965C
:102800000FB6F894FEBF0FBEEDBF8091090981FDA0
:102810000CC080919808882329F081E09091660986
:10282000911101C080E0809308098091120981FD17
:1028300010C080920A0990920B09A0920C09B092E4
:102840000D0910920E0910920F09109210091092A2
:10285000110984E099E00E948C04809198088823F3
:1028600071F080916609882351F080919B0881FF67
:10287000C0939A0880919F0881FF10929E088091D2
:102880001309882351F080919D0881FFC0939C0813
:1028900080919B0881FF10929A088091390981FDEF
:1028A00004C080919C08809338098091420981FD81
:1028B00010C0C0923A09D0923B09E0923C09F092D4
:1028C0003D0910923E0910923F0910924009109262
:1028D000410984E399E00E948C0480914309882394
:1028E000A1F080919F0881FFC0939E0880919D0870
:1028F00081FF10929C088091990881FF109298089E
:102900008091950881FFC093940880916C09909103
:102910006D09A0916E09B0916F09AC01BD01535DC5
:102920006E4C7E4F4115FAEC5F07FAE96F07FBE347
:102930007F0708F05BC040936C0950936D0960936A
:102940006E0970936F090E94DC05809174098111F2
:1029500018C0C09374090E940E020091750910916D
:1029600076092091770930917809601B710B820BF1
:10297000930B6093790970937A0980937B09909304
:102980007C098091790990917A09A0917B09B09195
:102990007C09409175095091760960917709709191
:1029A0007809840F951FA61FB71F8093790990930C
:1029B0007A09A0937B09B0937C090E940E020091D2
:1029C000790910917A0920917B0930917C09601B6B
:1029D000710B820B930B603177428105910510F0EA
:1029E0000E94DC0588950E9436031FCE409168093D
:1029F0005091690960916A0970916B099D59A946C6
:102A0000BA4380936C0990936D09A0936E09B093BB
:102A10006F094F5F5F4F6F4F7F4F4093680950932F
:102A2000690960936A0970936B098DCFE7EFF7E04E
:102A30001382128288EE93E0A0E0B0E08483958355
:102A4000A683B78382ED94E09183808385EC90E048
:102A50009587848784EC90E09787868780EC90E068
:102A6000918B808B81EC90E0938B828B82EC90E059
:102A7000958B848B86EC90E0978B868B118E128ED3
:102A8000138E148E0895EE0FFF1F881F8BBF0790C3
:102A9000F691E02D1994002E083090F0982F872F92
:102AA000762F652F542F432F322F22270850F4CF33
:102AB000220F331F441F551F661F771F881F991F42
:102AC0000A95B2F7002D089597FD1094002E083056
:102AD00098F00850232F342F452F562F672F782F2B
:102AE000892F912DF4CF15949795879577956795B4
:102AF00057954795379527950A95AAF71124002DE4
:102B000008950F931F93CF93DF938230910510F4B4
:102B100082E090E0E0918809F091890930E020E0BE
:102B2000B0E0A0E0309799F42115310509F44AC0CE
:102B3000281B390B24303105D8F58A819B8161151A
:102B4000710589F1FB0193838283FE0111C04081ED
:102B500051810281138148175907E0F0481759073E
:102B600099F4109761F012960C93129713961C9398
:102B70003296CF01DF91CF911F910F91089500936D
:102B8000880910938909F4CF2115310551F04217B6
:102B9000530738F0A901DB019A01BD01DF01F801FB
:102BA000C1CFEF01F9CF9093890980938809CDCFE8
:102BB000FE01E20FF31F8193919322503109398373
:102BC0002883D7CF2091860930918709232B41F4A0
:102BD00020910202309103023093870920938609E5
:102BE00020910002309101022115310541F42DB7E9
:102BF0003EB74091040250910502241B350BE09131
:102C00008609F0918709E217F307A0F42E1B3F0B0A
:102C10002817390778F0AC014E5F5F4F241735074E
:102C200048F04E0F5F1F50938709409386098193A8
:102C300091939FCFF0E0E0E09CCFCF93DF9300979C
:102C4000E9F0FC01329713821282A0918809B091B9
:102C50008909ED0130E020E01097A1F42081318155
:102C6000820F931F20918609309187092817390711
:102C700009F061C0F0938709E0938609DF91CF9155
:102C80000895EA01CE17DF07E8F54A815B819E01CE
:102C900041155105B1F7E901FB83EA834991599147
:102CA000C40FD51FEC17FD0761F480819181029656
:102CB000840F951FE90199838883828193819B8387
:102CC0008A83F0E0E0E012968D919C911397009733
:102CD000B9F52D913C911197CD010296820F931F6A
:102CE00020918609309187092817390739F63097DE
:102CF00051F51092890910928809B0938709A09321
:102D00008609BCCFD383C28340815181840F951F34
:102D1000C817D90761F44E5F5F4F88819981480FCA
:102D2000591F518340838A819B819383828321151C
:102D3000310509F0B0CFF0938909E09388099ECF5F
:102D4000FD01DC01C0CF13821282D7CFFB01DC0171
:102D500002C001900D9241505040D8F70895F89468
:022D6000FFCFA3
:102D620000008A09800000C0C101C30302C2C60676
:102D720007C705C5C404CC0C0DCD0FCFCE0E0ACAB1
:102D8200CB0BC90908C8D81819D91BDBDA1A1EDE01
:102D9200DF1FDD1D1CDC14D4D515D71716D6D212B1
:102DA20013D311D1D010F03031F133F3F23236F6C1
:102DB200F737F53534F43CFCFD3DFF3F3EFEFA3A71
:102DC2003BFB39F9F83828E8E929EB2B2AEAEE2E01
:102DD2002FEF2DEDEC2CE42425E527E7E62622E271
:102DE200E323E12120E0A06061A163A3A26266A6C1
:102DF200A767A56564A46CACAD6DAF6F6EAEAA6A31
:102E02006BAB69A9A86878B8B979BB7B7ABABE7E80
:102E12007FBF7DBDBC7CB47475B577B7B67672B230
:102E2200B373B17170B050909151935352929656C0
:102E32005797559594549C5C5D9D5F9F9E5E5A9AF0
:102E42009B5B99595898884849894B8B8A4A4E8E80
:102E52008F4F8D4D4C8C44848545874746868242F0
:102E620043834181804000C1814001C0804101C053
:102E7200804100C1814001C0804100C1814000C148
:102E8200814001C0804101C0804100C1814000C138
:102E9200814001C0804100C1814001C0804101C028
:102EA200804100C1814001C0804100C1814000C118
:102EB200814001C0804100C1814001C0804101C008
:102EC200804100C1814000C1814001C0804101C0F8
:102ED200804100C1814001C0804100C1814000C1E8
:102EE200814001C0804101C0804100C1814000C1D8
:102EF200814001C0804100C1814001C0804101C0C8
:102F0200804100C1814000C1814001C0804101C0B7
:102F1200804100C1814001C0804100C1814000C1A7
:102F2200814001C0804100C1814001C0804101C097
:102F3200804100C1814001C0804100C1814000C187
:102F4200814001C0804101C0804100C1814000C177
:102F5200814001C0804100C1814001C0804101C067
:102F6200804100C1814094080F0096080F00980824
:102F72000F009A080F009C080F009E080F00A0087F
:102F82000F00A2080F00A4080F00A6080F00A8084F
:102F92000F00AA080A00B3080F00B5080A00BE080D
:102FA2000200C0080F00C2080A00CB080A00D408B9
:102FB2000F00D6080F00D8080F00DA080A00E3084D
:102FC2000F00E5080A00EE080200F0080F00F20800
:102FD2000A00FB080A0004090F0006090F0008098D
:102FE2000F000A090A0013090F0015090A001E0939
:102FF200020020090F0022090A002B090A003409E5
:103002000F0036090F0038090F003A090A00430978
:103012000F0045090A004E09020050090F0052092B
:103022000A005B090A0064090F0066090F0000002C
:103032000000C90233026002160391026F0283028A
:1030420061393533353633353431393566326335A6
:103052003531613938383666326164616433363409
:0230620000006C
:00000001FF
