:100000000C941B010C944C010C944C010C944C016D
:100010000C944C010C944C010C944C010C944C012C
:100020000C944C010C944C010C944C010C944C011C
:100030000C944C010C944C010C944C010C944C010C
:100040000C944C010C944C010C944C010C944C01FC
:100050000C944C010C944C010C944C010C942F10FA
:100060000C944C010C94A3100C9479100C944C013A
:100070000C944C010C944C010C944C010C944C01CC
:100080000C944C010C944C010C944C010C944C01BC
:100090000C944C010C944C010C944C010C944C01AC
:1000A0000C944C010C944C010C944C010C944C019C
:1000B0000C944C010C944C010C944C010C944C018C
:1000C0000C944C010C944C010C944C010C944C017C
:1000D0000C944C010C944C010C944C010C944C016C
:1000E0000C944C010C94C6010C94FD010C94BE01BF
:1000F0000C94E1010C9460020C94AC010C94160376
:100100000C94F3010C94EF010C94A7010C946F0272
:100110000C94F9010C9433020C94E5010C94D70172
:100120000C9407150C94DD010C94CA010C94CD01BC
:100130000C94C9020C94C2010C9491020C94EB0132
:100140000C9483020C94D3010000220025002800A7
:100150002B002E00310034000201000005010801CF
:100160000B0105050505070508080808020202023B
:100170000A0A080804040404010101010101010143
:100180000303030303030303040707070C0C0C0C0E
:100190000C0C0C0C020202020606060606060606F7
:1001A0000B0B0B0B0B0B0B0B010210202008081084
:1001B00020401020408002010201080402010102D7
:1001C00004081020408080402010080402018004B0
:1001D000020180402010080402010804020101020B
:1001E0000408102040800102040810204080000014
:1001F0000A0B02090C0D0E080703040100000000A1
:1002000000000000000000000000000000000000EE
:1002100000000000000000000000121110000000AB
:1002200000000000000000000000000000000000CE
:1002300000000000071511241FBECFEFDFEFDEBF67
:10024000CDBF00E00CBF15E0A0E0B2E0E4E4FDE2C9
:1002500000E00BBF02C007900D92A031B107D9F7A3
:1002600029E0A0E1B5E001C01D92A839B207E1F78D
:1002700011E0CBE1D1E000E006C021970109802F19
:10028000FE010E943415CA31D10780E00807A9F7A2
:100290000E94D9100C94A0160C940000FC0181E07F
:1002A00080838283148216821782108611861286BA
:1002B0001386148615861786118A128A138A148A61
:1002C000158A168A178A108E128E148E168E178E25
:1002D00010A211A212A213A214A215A217A210A674
:1002E00011A612A613A614A615A616A60895282FC1
:1002F00030E0F901E251FE4F9491F901E855FE4FCB
:1003000044912E593E4FF9012491222309F435C01E
:10031000992311F191509231F8F4E92FF0E08827F8
:10032000EB56FE4F8F4F0C943415C601CA01A7013E
:10033000BE01C201AC01CD01D301D701DD01E10154
:10034000E501EB01EF01AC01F301F901FD01809141
:1003500080008F7780938000E22FF0E0EE0FFF1F88
:10036000E85BFE4FA591B4918FB7F894EC916111C1
:1003700048C040954E234C938FBF089580918000D4
:100380008F7DE8CF80918000877FE4CF84B58F7721
:1003900084BDE2CF84B58F7DFBCF8091B0008F7795
:1003A0008093B000D9CF8091B0008F7DF9CF80913C
:1003B00090008F7780939000CFCF809190008F7DB9
:1003C000F9CF80919000877FF5CF8091A0008F7743
:1003D0008093A000C1CF8091A0008F7DF9CF809144
:1003E000A000877FF5CF809120018F778093200137
:1003F000B3CF809120018F7DF9CF80912001877F3D
:10040000F5CF4E2BB8CF8230910538F0880F991F69
:10041000880F991F05970197F1F708953FB7F89452
:100420008091900990919109A0919209B0919309BE
:1004300026B5A89B05C02F3F19F00196A11DB11D3F
:100440003FBFBA2FA92F982F8827BC01CD01620F7B
:10045000711D811D911D42E0660F771F881F991F36
:100460004A95D1F70895AF92BF92CF92DF92EF9263
:10047000FF920F931F93CF93DF936C017B018B014E
:10048000040F151FEB015E01AE18BF08C017D1079E
:1004900059F06991D601ED91FC910190F081E02D28
:1004A000C6011995892B79F7C501DF91CF911F916D
:1004B0000F91FF90EF90DF90CF90BF90AF90089595
:1004C000FC01538D448D252F30E0842F90E0821B5A
:1004D000930B541710F0CF96089501970895FC01DF
:1004E000918D828D981761F0A28DAE0FBF2FB11D37
:1004F0005D968C91928D9F5F9F73928F90E008958F
:100500008FEF9FEF0895FC01918D828D981731F048
:10051000828DE80FF11D858D90E008958FEF9FEF9C
:100520000895FC01918D228D892F90E0805C9F4F72
:10053000821B91098F739927089585E098E00E94A6
:10054000910221E0892B09F420E0822F0895FC011B
:10055000A48DA80FB92FB11DA35ABF4F2C91848D24
:1005600090E001968F739927848FA689B7892C9381
:10057000A089B1898C91837080648C93938D848DD4
:10058000981306C00288F389E02D80818F7D8083D7
:100590000895EF92FF920F931F93CF93DF93EC0197
:1005A00081E0888F9B8D8C8D98131AC0E889F9891A
:1005B000808185FF15C09FB7F894EE89FF8960831D
:1005C000E889F98980818370806480839FBF81E09E
:1005D00090E0DF91CF911F910F91FF90EF900895E0
:1005E000F62E0B8D10E00F5F1F4F0F731127E02EBB
:1005F0008C8D8E110CC00FB607FCFACFE889F989F3
:10060000808185FFF5CFCE010E94A702F1CFEB8D4F
:10061000EC0FFD2FF11DE35AFF4FF0829FB7F894C6
:100620000B8FEA89FB8980818062CFCFCF93DF93E4
:10063000EC01888D8823B9F0AA89BB89E889F989FA
:100640008C9185FD03C0808186FD0DC00FB607FC2F
:10065000F7CF8C9185FFF2CF808185FFEDCFCE0162
:100660000E94A702E9CFDF91CF91089580E090E04A
:10067000892B29F00E949D0281110E94000080E0D8
:1006800090E0892B49F080E090E0892B29F00E94CE
:10069000000081110E94000080E090E0892B49F069
:1006A00080E090E0892B29F00E94000081110E94D7
:1006B000000080E090E0892B49F080E090E0892BF9
:1006C00029F00E94000081110C9400000895FC01A3
:1006D00084819581A681B781408151816281738136
:1006E000811526E3920725E6A20724ECB2073CF029
:1006F00014161506160617068CF4B7FF0FC04150E6
:100700005109610971094083518362837383965350
:10071000A546B44C84839583A683B7838481958151
:10072000A681B781408151816281738181302AEC39
:1007300092072AE9A2072BE3B2073CF477FF14C023
:10074000181619061A061B067CF44F5F5F4F6F4F91
:100750007F4F40835183628373839A5CAA49BB4372
:1007600084839583A683B7830895880F991F880F84
:10077000991FFC01EC5EFB4F8081918122813381C6
:100780002A30310541F02F30310529F02230310572
:1007900011F080E090E008958233910598F4880F7D
:1007A000991F880F991FFC01EC5EFB4F828193819A
:1007B00002978E30910530F48A5F9B4FFC01808157
:1007C00090E0089590E080E0089520911305209531
:1007D00030E0F901EA5FFC4F908190952A5F3D4F30
:1007E000D9018C9140911105509112054250510947
:1007F000E3E1F5E031969F01235135402417350799
:1008000070F420819227292F30E0D901AA5FBC4FD4
:100810009C9198272A5F3D4FD9018C91EBCF089589
:1008200023E030E03093120520931105E3E1F5E079
:100830009091F207908380588183628308950F938B
:100840001F93582F577001E010E020E030E004C003
:10085000000F111F221F331F5A95D2F723E09695E0
:1008600087952A95E1F79927E091FC07F091FD071C
:10087000662321F0E0910208F0910308E80FF91FC8
:100880008081442329F0082B00831F910F91089544
:1008900000950823F9CFCF92DF92EF92FF920F934A
:1008A0001F93CF93DF93CDB7DEB789899A89AB8940
:1008B000BC894D895E896F89788D098D1A8D2B8D44
:1008C0003C8DCD8CDE8CEF8CF8A080179107A207B1
:1008D000B30759F44C195D096E097F091416150602
:1008E000160617065CF081E00AC0801B910BA20B74
:1008F000B30B181619061A061B06ACF780E0DF9139
:10090000CF911F910F91FF90EF90DF90CF900895BE
:100910004F925F926F927F928F929F92AF92BF920F
:10092000CF92DF92EF92FF920F931F93CF93DF93BB
:10093000CDB7DEB7A0970FB6F894DEBF0FBECDBF20
:10094000FC0123812270308131111AC0211101C0B4
:100950001282A0960FB6F894DEBF0FBECDBFDF9116
:10096000CF911F910F91FF90EF90DF90CF90BF90AC
:10097000AF909F908F907F906F905F904F90089571
:10098000211102C021E02283FC0126A121FD09C022
:1009900028E0E6E7F9E0DC015E9601900D922A95E9
:1009A000E1F78C01FC01F28C8481F1101BC0948D65
:1009B0009111EAC08823C1F0838D81FD02C081E0DE
:1009C000828FF801808981FF1786F80187A581FD54
:1009D0001FC088E07E96D801979601900D928A9567
:1009E000E1F716C081111BC0F801818D81FD08C09F
:1009F000118A128A138A148A158A168A178A108E07
:100A0000F801808981FF1786F801838D81FF128E9E
:100A1000F801858D81FD9DCF8481848F9ACFF1E08F
:100A2000FF12F6CFF80183A594A5A5A5B6A58284EB
:100A30009384A484B58447A150A561A572A546807E
:100A4000578060847184440D551D661D771D498350
:100A50005A836B837C83880D991DAA1DBB1D8D83D2
:100A60009E83AF83B887CE0101960E94670388E01A
:100A7000FE013196DE01519601900D928A95E1F7C3
:100A800088E0FE017196DE01599601900D928A95DB
:100A9000E1F700D000D01F921F92ADB7BEB71196FC
:100AA00088E0F8017E9601900D928A95E1F700D0DA
:100AB00000D01F921F92ADB7BEB7119688E0FE011D
:100AC000799601900D928A95E1F71F9282E0E82EC7
:100AD000EF921F921F92FF920E944B040FB6F89460
:100AE000DEBF0FBECDBFF801918D882389F0838DC5
:100AF00081FFE28EF801808981FD02C081E0878755
:100B000088E0F801369691FD83CFD801519665CFE4
:100B100091FD7ECF82A193A1A4A1B5A1C3A4D4A429
:100B2000E5A4F6A4468D578D60A171A187A090A47D
:100B3000A1A4B2A4481959096A097B0949875A87AF
:100B40006B877C878C199D09AE09BF098D879E87AD
:100B5000AF87B88BCE0109960E94670388E0FE013B
:100B60003996DE01119601900D928A95E1F788E0A1
:100B7000FE013196DE01199601900D928A95E1F7FA
:100B800088E0FE013996C1CF811142CF2DCFCF939E
:100B9000DF93CDB7DEB78B85811108C081E09C85DE
:100BA000911101C080E0DF91CF91089581E0FBCFEA
:100BB0002F923F924F925F926F927F928F929F926D
:100BC000AF92BF92CF92DF92EF92FF920F931F935B
:100BD000CF93DF93CDB7DEB7C354D1090FB6F894E6
:100BE000DEBF0FBECDBF10E000E0F801EE0FFF1F2B
:100BF000EE57F84F0190F081E02D309749F041E039
:100C00008081811101C040E060E0C8010E941F04A2
:100C10000F5F1F4F0833110541F7E090F307F09085
:100C2000F40702E417E019AF08AF8701005C1F4F1B
:100C3000F70122E437E0D9018D919D919D01009744
:100C400029F0DC018D919C919183808332960E175F
:100C50001F0789F7D12CC12CF601EE0FFF1FEE52B2
:100C6000F94F0190F081E02D309749F041E080810B
:100C7000811101C040E061E0C6010E941F04BFEF86
:100C8000CB1ADB0AE8E3CE16D10431F742E956E08D
:100C9000E091FF07F09100089F01205C3F4FDA01CF
:100CA0008D919D91AD01009729F0DC018D919C9172
:100CB0009183808332962E173F0789F7EAE6F6E0A4
:100CC000FBAFEAAFF80108E6E00EF11C2AE636E0D9
:100CD000D9018D919D919D01009729F0DC018D91A5
:100CE0009C91918380833296EE16FF0689F7E2E4A9
:100CF000F6E0FDAFECAFE091F607F091F7079F014A
:100D0000205B3F4F02E416E0D8018D919D918D014B
:100D1000009749F0DC014D915D916D917C9140838C
:100D200051836283738334962E173F0769F7EAE194
:100D3000F6E0FFAFEEAFE091F907F091FA079F01FF
:100D400020563F4F8AE196E0DC01CD90DD90CD0149
:100D5000C114D104F1F0D601EC901196FC901197DA
:100D600012960C91129713961C91139714967C91DE
:100D7000149715966C91159716965C911697179681
:100D80004C91E082F18202831383748365835683DE
:100D9000478338962E173F07B9F610921205109226
:100DA00011058091180690911906DC01ED91FC91D6
:100DB0000084F185E02D1995892B09F483C0809179
:100DC000180690911906DC01ED91FC910084F185E3
:100DD000E02D19952091110530911205A09118066A
:100DE000B0911906ED91FC9111970084F185E02DE9
:100DF0002817390768F4CD0119959093120580934F
:100E0000110580911506909116060E940302D7CF16
:100E1000CD011995813091400CF054C08091180695
:100E200090911906DC01ED91FC910084F185E02D93
:100E3000199506970CF446C043E1842E45E0942EA4
:100E40008401E0901105F0901205C801835195408E
:100E50008E159F0578F48091180690911906DC0193
:100E6000ED91FC910284F385E02D1995F8018193B1
:100E70008F01E7CF109114058FEB810F853080F043
:100E80000E94E50397012D5E3A4FF90132974081A8
:100E900021503109D9012C91342F2817390791F4A9
:100EA000909113058091F207981709F4CDC08091B5
:100EB000180690911906DC01ED91FC910680F781EE
:100EC000E02D19954091FC075091FD0730E020E09E
:100ED000F901EE0FFF1FEE57F84F0190F081E02D62
:100EE000309799F0D90183E0B695A7958A95E1F7F7
:100EF000A40FB51F8C9190E0622F677002C095958A
:100F000087956A95E2F7817080832F5F3F4F283382
:100F10003105F1F68091F3079091F407BC01605C14
:100F20007F4FDC01E8ADF9AD21913191F9AFE8AF28
:100F30002115310531F04D915C911197F9015183E3
:100F4000408312966A177B0769F7FB0188599F4F08
:100F5000AAADBBAD4D915D91BBAFAAAF4115510597
:100F600029F020813181DA012D933C9332968E173E
:100F70009F0771F7E091F607F091F707CF01805BCB
:100F80009F4FACADBDAD2D913D91BDAFACAF211527
:100F9000310551F04081518162817381D9014D93B6
:100FA0005D936D937C93139734968E179F0749F743
:100FB000E091F907F091FA07CF0180569F4FAEAD4F
:100FC000BFADED90FD90BFAFAEAFE114F104F1F015
:100FD000008111817281638154814581368127812D
:100FE000D7010C9311961C93119712967C9312972C
:100FF00013966C93139714965C93149715964C93D1
:10100000159716963C93169717962C9338968E172D
:101010009F07A9F6CD5BDF4F0FB6F894DEBF0FBE7A
:10102000CDBFDF91CF911F910F91FF90EF90DF9097
:10103000CF90BF90AF909F908F907F906F905F9078
:101040004F903F902F900895B2E0EB1AF108F09284
:101050001205E09211058091150590911605382E24
:10106000292E609017057090180576246724762441
:10107000D09017052091190530E01F3009F48AC57A
:10108000A0F5133009F480C158F4113009F4F5C308
:10109000123009F484C461E070E0812F90E022C036
:1010A000153009F457C508F40BC51630A1F7209187
:1010B000F5078091F80790E0880F991FE22FF0E084
:1010C0008E0F9F1F4091FB0704E0409FA001112459
:1010D000480F591F2416350608F449C062E070E035
:1010E00086E090E00E9410044FC0123409F4FCC660
:1010F00098F4103109F462C2113469F684E090E08A
:101100009093120580931105109314051092150504
:1011100082E38093160538C0143409F45FC608F4DE
:10112000DDC5153409F0B7CF8D3ABEED9B0709F048
:1011300083C71092100585E4809314058EE7809391
:10114000150581E2EEEEF4E0DE01119601900D92BC
:101150008A95E1F7FE013196A6E1B5E081919D0106
:1011600023513540882309F475C78D93F7CF2E1688
:101170003F06D8F4220C331CE091F307F091F407FA
:10118000E20DF31D7182608280911105909112052C
:1011900002968130914008F45AC58091140564E0AC
:1011A00070E090E00E94100452C528163906F0F550
:1011B000A30170E060E08091F6079091F70720FCB2
:1011C0001CC091012E1B3F0BF901EE0FFF1FEC7F9E
:1011D000F370E80FF91F80819181A281B381AA2762
:1011E000BB27BA0155274427842B952BA62BB72B59
:1011F00080839183A283B383C7CFE095F095E20DFE
:10120000F31DEE0FFF1FEC7FF370E80FF91F6080F6
:101210007180828093806624772446295729682923
:1012200079294083518362837383AECF9101237008
:1012300033274301B12CA12CC12CD12C7601E09194
:10124000F907F091FA072115310549F5281A390AED
:10125000220C331C38EF232237E03322E20DF31D3A
:101260005080618072801381B481A581940140E037
:1012700050E060E070E080E090E000E30E943C1508
:1012800025292083632A6182742A7282152B138395
:10129000B62BB483A72BA5838683978375CF213084
:1012A000310541F54FEF241A340A281A390A220C65
:1012B000331C88EF282287E03822E20DF31D50808E
:1012C000618072801381B681A7819401A501B60166
:1012D000C70100E20E943C15522A5082632A6182B3
:1012E000742A7282152B1383648375838B2B8683F8
:1012F0009A2BD3CF2230310529F5A2E02A0E311CDA
:10130000281A390A220C331CB8EF2B22B7E03B22F3
:10131000E20DF31D5080618074801581B681A78134
:101320009401A501B601C70100E10E943C15522AB3
:101330005082632A618242835383762A7482172BF8
:101340001583D4CF03E0200E311C281A390A220C51
:10135000331C18EF212217E03122E20DF31D5281D8
:1013600043813481258196818781808291825A29A7
:1013700052834B2943833C2934832D2925839E297D
:1013800096838F29878300CFC301019763E070E0C4
:101390008D379105C8F46101C60CD71C4091F50743
:1013A000E091F807F0E0EE0FFF1FE40FF11D8091D0
:1013B000FB0724E0829FC00111248E0F9F1FC816D7
:1013C000D90628F062E070E083E090E08BCE660CF6
:1013D000771CC30103969093120580931105A3E136
:1013E000B5E011969D01235135402817390710F4B7
:1013F0001C92F7CF93E090931405835080931505CA
:10140000E090F907F090FA07A090F607B090F70780
:10141000A091F307B091F407BAA7A9A7A42FB0E051
:10142000BBABAAAB83E090E02C014E1A5F0A3D01F2
:10143000609470942C143D0409F4A6CEAAA9BBA90B
:101440002A163B0660F49101220F331FA9A5BAA505
:101450002A0F3B1FD9018C9111963C911AC02E1670
:101460003F0670F520FC22C0C101AAA9BBA98A1BB6
:101470009B0B880F991F8C7F93708A0D9B1DDC013D
:101480004D915D916D917C91AB0166277727842FFB
:10149000352FD40113963C93139714968C93B2E096
:1014A0008B0E911C0FEF201A300AC4CF9301220D2E
:1014B000331D220F331F2C7F33702A0D3B1DCACFE3
:1014C0008101037011270115110521F581010E1B02
:1014D0001F0B000F111F087F17700E0D1F1DD80165
:1014E0002C9111963C91119712964C91129713964C
:1014F0005C91139714966C91149715967C9115979F
:1015000016968C91169717969C9100E30E9457159A
:10151000822FBFCF0130110511F50E1B1F0B020DDD
:10152000131D000F111F087F17700E0D1F1DD8010E
:101530002C9111963C91119712964C9112971396FB
:101540005C91139714966C91149715967C9115974E
:1015500016968C91169717969C9100E2D7CF023081
:10156000110511F50E1B1F0B020D131D000F111F8E
:10157000087F17700E0D1F1DD8012C9111963C91FC
:10158000119712964C91129713965C91139714969B
:101590006C91149715967C91159716968C911697C9
:1015A00017969C9100E1B2CF9201220D331D220FBC
:1015B000331F287F37702E0D3F1D4CCFC30101977D
:1015C0008B37910530F4C301880F991F281739070D
:1015D00029F063E070E080E190E084CDD101A60DB8
:1015E000B71DBDABACAB8091F5074090F807512C0F
:1015F000440C551CA82EB12C4A0C5B1C2091FB07F7
:10160000B4E02B9F90011124240D351DECA9FDA9F8
:10161000E217F30718F062E070E0DDCF26E030E07B
:10162000309312052093110510931405309215057F
:101630002092160510921705609218056090F90720
:101640007090FA07C090F607D090F707DFAACEAAED
:101650004091F3075091F4079101220F331F7A0153
:10166000E20EF31EFBAAEAAAD101A419B509C5012D
:1016700080959095FC01E40DF51D2296FFAFEEAF2D
:1016800022976201CA18DB082496DFAECEAE2497FB
:10169000ECA8FDA82E143F0409F4D9C2F401478137
:1016A0008085542F482F2A143B0488F4EAA9FBA90B
:1016B00051834083EAA9FBA93296FBABEAAB1196B2
:1016C000FFEF2F1A3F0A02E0800E911CE1CF241495
:1016D0003504C8F570E060E020FC20C02496EEAD33
:1016E000FFAD2497EA0FFB1FEE0FFF1FEC7FF37097
:1016F000CEA8DFA8EC0DFD1D008111812281338170
:1017000022273327BA0155274427402B512B622B20
:10171000732B4083518362837383CCCF2296EEADCB
:10172000FFAD2297EA0FFB1FEE0FFF1FEC7FF37058
:10173000EEA8FFA8EE0DFF1D0081118122813381EB
:1017400000271127E2CFC101837099276A01F12C8C
:10175000E12C00E010E09801C9A6DAA6EBA6FCA6F1
:101760000DA71EA72FA738ABFD01009741F5EE0F7F
:10177000FF1FE87FF770E60DF71DD080D9AAC18062
:10178000D280E380F480158129A53AA540E050E09D
:1017900060E070E080E090E000E30E943C1509A961
:1017A000202B20833C2931834D2942835E2953839A
:1017B000F62AF482172B1583868397837BCF81309B
:1017C000910541F53196EE0FFF1FE87FF770E60DAA
:1017D000F71D108119ABC180D280E380F68017819C
:1017E00029A53AA540E050E060E070E080E090E09C
:1017F00000E20E943C1509A9202B20833C2931835B
:101800004D294283E52AE382648375838F29868389
:10181000912BD3CF029729F53296EE0FFF1FE87F69
:10182000F770E60DF71D108119ABC180D480E580FB
:10183000F680178129A53AA540E050E060E070E00D
:1018400080E090E000E10E943C1509A9202B208354
:101850003C29318342835383D62AD482E72AE58206
:10186000D5CF3396EE0FFF1FE87FF770E60DF71D1B
:1018700019A510832AA521831DCFC301019763E019
:1018800070E0803D974068F52091FE07C101860D0C
:10189000971D62E070E02817190618F1C30143E0B4
:1018A000969587954A95E1F79C012D5F3F4F3093C0
:1018B000120520931105930127703327232B29F05C
:1018C00004969093120580931105809111059091D3
:1018D0001205E3E1F5E0813021E0920728F064E0B1
:1018E00070E081E090E0FECB31969F0123513540BE
:1018F0002817390710F41082F7CF91E09093140560
:101900008350809315050091FC071091FD0770E04E
:1019100060E020E0C12CD12C7601C394D701C60130
:10192000022E04C0880F991FAA1FBB1F0A94D2F76A
:1019300089A79AA7ABA7BCA7FB0183E0F695E7951B
:101940008A95E1F7EA5EFA4F3081A10193E056955E
:1019500047959A95E1F74F715527400F511FDA01CE
:101960004C9150E0B22DB77002C055954795BA958D
:10197000E2F789A540FF0FC0832B80832F5F2830BB
:1019800009F420E0EFEF2E1A3E0A6F5F7F4F6616D4
:10199000770621F6F9CB809538233083EFCFC3014A
:1019A000019763E070E0803D974068F5209104085E
:1019B000C101860D971D62E070E02817190618F125
:1019C000C30113E0969587951A95E1F79C012D5F69
:1019D0003F4F309312052093110593012770332751
:1019E000232B29F004969093120580931105809182
:1019F000110590911205E3E1F5E0813001E09007D7
:101A000028F064E070E082E090E06CCB31969F01BA
:101A1000235135402817390710F41082F7CF92E090
:101A2000909314058350809315056091020870917E
:101A3000030850E040E010E0C12CD12C7601C394A3
:101A4000D701C601012E04C0880F991FAA1FBB1F12
:101A50000A94D2F789A79AA7ABA7BCA7FA0133E0EB
:101A6000F695E7953A95E1F7EA5EFA4F0081910124
:101A7000A3E036952795AA95E1F7260F372F311D5C
:101A8000D9012C9130E0B22DB77002C03595279561
:101A9000BA95E2F789A520FF0FC0802B80831F5FD6
:101AA000183009F410E0EFEF2E1A3E0A4F5F5F4F37
:101AB0006416750629F668CB809508230083EFCF5E
:101AC000C301019763E070E08D37910550F42091D8
:101AD0000108C101860D971D2817190628F462E038
:101AE00070E084E090E0FECAC301880F991F03965E
:101AF0009093120580931105E3E1F5E031969F0183
:101B0000235135402817390710F41082F7CF94E09D
:101B100090931405835080931505220C331CE0919B
:101B2000FF07F0910008E20DF31D01E0601A710853
:101B300012E0810E911C2FEF6216720609F424CB7D
:101B4000808191813296D40111969C9311971296BF
:101B50008C93EBCF6114BFEF7B0629F063E070E05C
:101B60006114710449F48091FE078150990B82152C
:101B7000930528F462E070E085E090E0B3CA41E0AC
:101B80006114EFEF7E0609F040E060E0C1010E94C1
:101B90001F04FACAA30113E0569547951A95E1F779
:101BA000842FB30167707727672B11F081E0840FD2
:101BB000A30141505109403B574018F482171306C6
:101BC00029F063E070E08FE090E08CCA2091FE077E
:101BD000C101860D971D2817190618F462E070E000
:101BE000F2CF86E090E090931205809311058FE08C
:101BF00080931405309215052092160570921705F2
:101C00006092180510E000E0F12CF801A3E0F695D1
:101C1000E795AA95E1F7ED5EFA4F478150E00F2C6A
:101C200002C0559547950A94E2F7417060E0C10102
:101C3000800F911F0E941F04F394B8E0CB2EFC107C
:101C400001C0F12C0F5F1F4F60167106F1F6009175
:101C5000110510911205780122E0E20EF11CF092BC
:101C60001205E09211050E94E503F801ED5EFA4FBE
:101C7000908381838091170687FD09C061E00E94EF
:101C8000770180911306909114060E9403028091BF
:101C9000180690911906DC01ED91FC910280F38108
:101CA000E02DA70163E175E01995809118069091E8
:101CB0001906DC01ED91FC910680F781E02D199564
:101CC00080911306909114060E94030280911706DA
:101CD00087FDF8C860E00E947701F4C802E320168F
:101CE000310408F070C012E36116710408F06BC093
:101CF0006214730408F467C0C101880F991F880F2C
:101D0000991F9C012C5E3B4F690151017EE1872E9A
:101D100075E0972E90E080E0D60112962D913C91CF
:101D20002250310910E000E02E30310528F42A5FFE
:101D30003B4FF901008110E07C01E00EF11E97019C
:101D4000255F3F4F21303140E0F5C5010E94B503CA
:101D5000A801BC01C4010E949716800E911E950136
:101D60002F5F3F4F04E0C00ED11CC7011501621662
:101D7000730628F5C7010796909312058093110505
:101D800083E4809314058EE7809315051092160561
:101D90002092170580917E0990917F0920918009FA
:101DA00030918109309318052093190590931A05F5
:101DB00080931B0510921C05E0921D05E5C9590191
:101DC000ABCF7C01D7CF83E090E090931205809356
:101DD000110583E48093140581E828C025E12216CB
:101DE0003104D8F4CE0101962C01FC01D12CC12C78
:101DF00092E0890E911C2C143D04D9F0D401129666
:101E00008C91129713969C91892798278927819303
:101E10009193BFEFCB1ADB0AEBCF83E090E0909376
:101E20001205809311051093140582E8809315051F
:101E3000ABC9B12CA12C19A6712C612C0BE010E0C0
:101E4000CA14DB0469F1F201E190F1902F01F2E391
:101E5000EF16F10440F083E090E090931205809338
:101E6000110584E4B7CFC7010E94CC034C011C01CB
:101E7000200E311E21E02216320690F4C7010E9486
:101E8000B503A401BC01C8018D5E9A4F0E9497164C
:101E9000680C791C3FEFA31AB30AE9A68101D0CFE1
:101EA000109312050093110584E4809314058EE7C6
:101EB0008093150510921605C9A4C092170580914C
:101EC0007E0990917F09209180093091810930939A
:101ED00018052093190590931A0580931B0570929D
:101EE0001C0560921D0550C902E32016310450F410
:101EF00080911805909119059827892798278A3F7E
:101F0000910540F083E090E09093120580931105D5
:101F100082E460CF8101000F111F000F111FF80133
:101F2000EC5EFB4FE280F380809110058130E1F0A0
:101F3000F801EC5EFB4F00811181D11035C0BAE091
:101F4000EB16F10409F46EC0EFE0EE16F10409F4AB
:101F50006FC0F2E0EF16F10409F04FC0D8011196FE
:101F60008C9111978D7F3AC020E1E216F10401F3C4
:101F7000C1010E94CC039C0136952795FC01ED5EC2
:101F8000FA4FA3E1B5E03197CD0183519540821717
:101F9000930770F617968C911797978117969C93D5
:101FA000179787831196EFCFC1010E94CC03AC0134
:101FB0003AE0E316F104A9F08FE0E816F10441F1EC
:101FC00092E0E916F104C9F46AE175E0C8010E94E3
:101FD0009716D80111968C911197826011968C9367
:101FE0000CC06AE175E0C8010E949716D8011896E6
:101FF0008C911897826018968C9383E090E0909370
:1020000012058093110582E4809314058EE70ECFAC
:102010006AE175E0C8010E949716F801818182602B
:102020008183EBCFD80118968C9118978D7FE3CFE1
:10203000F80181818D7FF4CF8E3D9D4A21F481E0AE
:102040008093100578C883E090E090931205809308
:10205000110571C8309312052093110595C81F9280
:102060000F920FB60F9211242F933F938F939F934C
:10207000AF93BF9380918C0990918D09A0918E09A7
:10208000B0918F0930918B0923E0230F2D3758F53C
:102090000196A11DB11D20938B0980938C0990930B
:1020A0008D09A0938E09B0938F098091900990912A
:1020B0009109A0919209B09193090196A11DB11DBA
:1020C0008093900990939109A0939209B0939309FA
:1020D000BF91AF919F918F913F912F910F900FBE24
:1020E0000F901F90189526E8230F0296A11DB11D91
:1020F000D2CF1F920F920FB60F9211240BB60F92F0
:102100002F933F934F935F936F937F938F939F93FF
:10211000AF93BF93EF93FF9385E098E00E94A702EF
:10212000FF91EF91BF91AF919F918F917F916F91AF
:102130005F914F913F912F910F900BBE0F900FBE6B
:102140000F901F9018951F920F920FB60F921124A7
:102150000BB60F922F938F939F93EF93FF93E09182
:102160001508F09116088081E0911B08F0911C0879
:1021700082FD1DC0908180911E088F5F8F7320911A
:102180001F08821741F0E0911E08F0E0EB5FF74F67
:10219000958F80931E08FF91EF919F918F912F91C2
:1021A0000F900BBE0F900FBE0F901F90189580815F
:1021B000F2CF789484B5826084BD84B5816084BD9B
:1021C00085B5826085BD85B5816085BD80916E00D5
:1021D000816080936E001092810080918100826006
:1021E0008093810080918100816080938100809143
:1021F00080008160809380008091B1008460809332
:10220000B1008091B00081608093B0008091910016
:102210008260809391008091910081608093910011
:10222000809190008160809390008091A1008260F5
:102230008093A1008091A10081608093A100809192
:10224000A00081608093A000809121018260809332
:1022500021018091210181608093210180912001E1
:1022600081608093200180917A00846080937A005D
:1022700080917A00826080937A0080917A008160F8
:1022800080937A0080917A00806880937A0010921F
:10229000C100C1E0C093A2081092A4081092A60841
:1022A0001092A8081092AA08C093AC081092AE0829
:1022B0001092B00882EB98E00E944E0182EE98E006
:1022C0000E944E0182E199E00E944E0182E499E071
:1022D0000E944E011092720910927409E091150843
:1022E000F091160882E08083E0911108F0911208C5
:1022F0001082E0911308F091140880E1808310921D
:102300001D08E0911908F0911A0886E08083E09199
:102310001708F0911808808180618083E091170888
:10232000F0911808808188608083E0911708F0910F
:102330001808808180688083E0911708F091180860
:1023400080818F7D808385E098E09093190680934B
:1023500018068FEF809317068EEE92E09093160684
:102360008093150681E49AE09093140680931306F7
:10237000C093F20784E38093F50784E18093F80724
:102380008093FB0788E38093FE0790E29093010817
:102390008093040887E090E00E9472159093FD07F7
:1023A0008093FC07009709F451C0C7E0FC012C2F73
:1023B00011922A95E9F788E690E00E9472159093B1
:1023C000F4078093F307009709F440C028E6FC0166
:1023D00011922A95E9F780E590E00E94721590939A
:1023E000F7078093F607009789F120E5FC01119229
:1023F0002A95E9F780EA90E00E9472159093FA0717
:102400008093F907009711F120EAFC0111922A95B7
:10241000E9F787E090E00E9472159093030880939B
:102420000208009799F0FC011192CA95E9F780E43F
:1024300090E00E947215909300088093FF07009728
:1024400029F020E4FC0111922A95E9F7D0E0C0E0E0
:102450008E01000F111F0E57184FF80180819181D6
:10246000892B49F481E090E00E947215F801918374
:102470008083FC0110822196C833D10549F7C091B1
:10248000F307D091F407E2E4F7E090E080E02191D7
:102490003191232B39F4DF0112979E01280F391F48
:1024A0002D933C9302968034910589F7F12CE12C11
:1024B0008701000F111F0E52194FF8018081918181
:1024C000892B49F481E090E00E947215F801918314
:1024D0008083FC011082FFEFEF1AFF0A28E3E21667
:1024E000F10431F72091FF0730910008E2E9F6E0AE
:1024F00090E080E041915191452B39F4DF01129732
:10250000A901480F591F4D935C93029680349105A1
:1025100089F7EAE6F6E090E080E0C05CDF4F2191C9
:102520003191232B39F4DF0112979E01280F391FB7
:102530002D933C9302968832910589F74091F607D6
:102540005091F707E2E4F6E090E080E021913191CC
:10255000232B59F4DF0112979C01220F331F220F06
:10256000331F240F351F2D933C9301968431910521
:1025700069F74091F9075091FA07EAE1F6E090E037
:1025800080E021913191232B61F4DF0112979C01AE
:1025900063E0220F331F6A95E1F7240F351F2D9357
:1025A0003C9301968431910561F780E29EE4A0E0BE
:1025B000B0E08093830990938409A0938509B09338
:1025C00086090E940E0260938709709388098093A0
:1025D000890990938A09C1E083E0C82ED12CE12CAF
:1025E000F12C9AE0892E912CA12CB12CD2E00E94E2
:1025F0000E02009187091091880920918909309174
:102600008A09601B710B820B930B00918309109157
:102610008409209185093091860960177107820726
:10262000930708F4BBC180917E0990917F09A09126
:102630008009B09181090196A11DB11D80937E0989
:1026400090937F09A0938009B09381098091B70886
:1026500081FD04C08091A2088093B6088091C008D3
:1026600081FD10C08092B8089092B908A092BA0873
:10267000B092BB081092BC081092BD081092BE0820
:102680001092BF0882EB98E00E9488048091730941
:1026900081FD20C09091B0088091AE08882329F078
:1026A00081E02091C108211101C080E01F929F9319
:1026B0008F931F92DF931F921F92CF930E94C705A3
:1026C000809372098DB79EB708960FB6F8949EBF97
:1026D0000FBE8DBF90917209992329F08091A508B2
:1026E00081FFC093A4088091A308282F227081FD48
:1026F00005C081E0911180E08093A2088091B0082C
:1027000081110CC08091AE08811108C08091C10870
:10271000882321F0211102C0C093A2088091E7080C
:1027200081FD04C08091A4088093E6088091F008A0
:1027300081FD10C0C092E808D092E908E092EA0852
:10274000F092EB081092EC081092ED081092EE084F
:102750001092EF0882EE98E00E9488048091F108C0
:10276000882351F08091A70881FFC093A60880912B
:10277000A50881FF1092A4088091AE0881111CC0A9
:102780009091B008911118C09091AC089923A1F0D4
:102790002091A608222329F02091A30821FFC093AD
:1027A000A208992349F09091A608992329F09091C5
:1027B000A70891FF1092A6089091750991FD16C087
:1027C0001F928F938091B0088F931F92DF931F9277
:1027D0001F92CF930E94C70580937409EDB7FEB78F
:1027E00038960FB6F894FEBF0FBEEDBF8091170963
:1027F00081FD0CC08091A608882329F081E090918A
:102800007409911101C080E080931609809120091C
:1028100081FD10C08092180990921909A0921A099E
:10282000B0921B0910921C0910921D0910921E09EA
:1028300010921F0982E199E00E9488048091A60805
:10284000882371F080917409882351F08091A90840
:1028500081FFC093A8088091AD0881FF1092AC0859
:1028600080912109882351F08091AB0881FFC093AA
:10287000AA088091A90881FF1092A80880914709B1
:1028800081FD04C08091AA08809346098091500977
:1028900081FD10C0C0924809D0924909E0924A09CE
:1028A000F0924B0910924C0910924D0910924E096A
:1028B00010924F0982E499E00E94880480915109A6
:1028C0008823A1F08091AD0881FFC093AC0880916E
:1028D000AB0881FF1092AA088091A30881FFC093E2
:1028E000A2088091A70881FF1092A60880917A091A
:1028F00090917B09A0917C09B0917D09AC01BD014B
:10290000535D6E4C7E4F4115FAEC5F07FAE96F0795
:10291000FBE37F0708F05BC040937A0950937B0983
:1029200060937C0970937D090E94D805809182098B
:10293000811118C0C09382090E940E020091830980
:10294000109184092091850930918609601B710BD3
:10295000820B930B60938709709388098093890990
:1029600090938A098091870990918809A09189099B
:10297000B0918A0940918309509184096091850939
:1029800070918609840F951FA61FB71F8093870932
:1029900090938809A0938909B0938A090E940E0236
:1029A00000918709109188092091890930918A093D
:1029B000601B710B820B930B60317742810591058F
:1029C00010F00E94D80588950E94360310CE4091E1
:1029D00076095091770960917809709179099D592C
:1029E000A946BA4380937A0990937B09A0937C0906
:1029F000B0937D094F5F5F4F6F4F7F4F40937609D4
:102A00005093770960937809709379098DCFE5E049
:102A1000F8E01382128288EE93E0A0E0B0E08483B5
:102A20009583A683B78380EE94E09183808385ECC1
:102A300090E09587848784EC90E09787868780EC88
:102A400090E0918B808B81EC90E0938B828B82EC79
:102A500090E0958B848B86EC90E0978B868B118E23
:102A6000128E138E148E0895EE0FFF1F881F8BBFDA
:102A70000790F691E02D1994002E083090F0982FD1
:102A8000872F762F652F542F432F322F2227085060
:102A9000F4CF220F331F441F551F661F771F881F57
:102AA000991F0A95B2F7002D089597FD1094002EF6
:102AB000083098F00850232F342F452F562F672FBA
:102AC000782F892F912DF4CF159497958795779529
:102AD000679557954795379527950A95AAF7112435
:102AE000002D08950F931F93CF93DF9382309105AC
:102AF00010F482E090E0E0919609F091970930E0BF
:102B000020E0B0E0A0E0309799F42115310509F4F8
:102B10004AC0281B390B24303105D8F58A819B81A6
:102B20006115710589F1FB0193838283FE0111C058
:102B3000408151810281138148175907E0F04817FD
:102B4000590799F4109761F012960C931297139607
:102B50001C933296CF01DF91CF911F910F91089571
:102B60000093960910939709F4CF2115310551F080
:102B70004217530738F0A901DB019A01BD01DF01BB
:102B8000F801C1CFEF01F9CF90939709809396098F
:102B9000CDCFFE01E20FF31F8193919322503109B3
:102BA00039832883D7CF2091940930919509232B1D
:102BB00041F4209102023091030230939509209351
:102BC000940920910002309101022115310541F450
:102BD0002DB73EB74091040250910502241B350BDE
:102BE000E0919409F0919509E217F307A0F42E1BE8
:102BF0003F0B2817390778F0AC014E5F5F4F241761
:102C0000350748F04E0F5F1F509395094093940984
:102C1000819391939FCFF0E0E0E09CCFCF93DF933F
:102C20000097E9F0FC01329713821282A091960975
:102C3000B0919709ED0130E020E01097A1F42081D8
:102C40003181820F931F20919409309195092817A3
:102C5000390709F061C0F0939509E0939409DF9179
:102C6000CF910895EA01CE17DF07E8F54A815B812D
:102C70009E0141155105B1F7E901FB83EA834991B2
:102C80005991C40FD51FEC17FD0761F48081918124
:102C90000296840F951FE90199838883828193812D
:102CA0009B838A83F0E0E0E012968D919C911397CC
:102CB0000097B9F52D913C911197CD010296820FA5
:102CC000931F20919409309195092817390739F6F7
:102CD000309751F51092970910929609B093950983
:102CE000A0939409BCCFD383C28340815181840FC8
:102CF000951FC817D90761F44E5F5F4F888199818E
:102D0000480F591F518340838A819B81938382831B
:102D10002115310509F0B0CFF0939709E09396099A
:102D20009ECFFD01DC01C0CF13821282D7CFFB0101
:102D3000DC0102C001900D9241505040D8F7089537
:042D4000F894FFCF35
:102D440000009809800000C0C101C30302C2C60686
:102D540007C705C5C404CC0C0DCD0FCFCE0E0ACACF
:102D6400CB0BC90908C8D81819D91BDBDA1A1EDE1F
:102D7400DF1FDD1D1CDC14D4D515D71716D6D212CF
:102D840013D311D1D010F03031F133F3F23236F6DF
:102D9400F737F53534F43CFCFD3DFF3F3EFEFA3A8F
:102DA4003BFB39F9F83828E8E929EB2B2AEAEE2E1F
:102DB4002FEF2DEDEC2CE42425E527E7E62622E28F
:102DC400E323E12120E0A06061A163A3A26266A6DF
:102DD400A767A56564A46CACAD6DAF6F6EAEAA6A4F
:102DE4006BAB69A9A86878B8B979BB7B7ABABE7E9F
:102DF4007FBF7DBDBC7CB47475B577B7B67672B24F
:102E0400B373B17170B050909151935352929656DE
:102E14005797559594549C5C5D9D5F9F9E5E5A9A0E
:102E24009B5B99595898884849894B8B8A4A4E8E9E
:102E34008F4F8D4D4C8C448485458747468682420E
:102E440043834181804000C1814001C0804101C071
:102E5400804100C1814001C0804100C1814000C166
:102E6400814001C0804101C0804100C1814000C156
:102E7400814001C0804100C1814001C0804101C046
:102E8400804100C1814001C0804100C1814000C136
:102E9400814001C0804100C1814001C0804101C026
:102EA400804100C1814000C1814001C0804101C016
:102EB400804100C1814001C0804100C1814000C106
:102EC400814001C0804101C0804100C1814000C1F6
:102ED400814001C0804100C1814001C0804101C0E6
:102EE400804100C1814000C1814001C0804101C0D6
:102EF400804100C1814001C0804100C1814000C1C6
:102F0400814001C0804100C1814001C0804101C0B5
:102F1400804100C1814001C0804100C1814000C1A5
:102F2400814001C0804101C0804100C1814000C195
:102F3400814001C0804100C1814001C0804101C085
:102F4400804100C181400100000000000000080031
:102F540000000001A2080F00A4080F00A6080F003B
:102F6400A8080F00AA080F00AC080F00AE080F0055
:102F7400B0080F00B2080F00B4080F00B6080F0025
:102F8400B8080A00C1080F00C3080A00CC080200F0
:102F9400CE080F00D0080A00D9080A00E2080F0082
:102FA400E4080F00E6080F00E8080A00F1080F0023
:102FB400F3080A00FC080200FE080F0000090A00DA
:102FC40009090A0012090F0014090F0016090F005D
:102FD40018090A0021090F0023090A002C0902001C
:102FE4002E090F0030090A0039090A0042090F00AE
:102FF40044090F0046090F0048090A0051090F004F
:1030040053090A005C0902005E090F0060090A0006
:1030140069090A0072090F0074090F00000000001A
:10302400C90233026002160391026F0283026666CC
:103034003964633431303031386235656431333565
:103044003039613530366161356666386664000052
:00000001FF
