:100000000C941B010C944C010C944C010C944C016D
:100010000C944C010C944C010C944C010C944C012C
:100020000C944C010C944C010C944C010C944C011C
:100030000C944C010C944C010C944C010C944C010C
:100040000C944C010C944C010C944C010C944C01FC
:100050000C944C010C944C010C944C010C943E10EB
:100060000C944C010C94B2100C9488100C944C011C
:100070000C944C010C944C010C944C010C944C01CC
:100080000C944C010C944C010C944C010C944C01BC
:100090000C944C010C944C010C944C010C944C01AC
:1000A0000C944C010C944C010C944C010C944C019C
:1000B0000C944C010C944C010C944C010C944C018C
:1000C0000C944C010C944C010C944C010C944C017C
:1000D0000C944C010C944C010C944C010C944C016C
:1000E0000C944C010C94C9020C94C6010C9460024F
:1000F0000C94F3010C94D3010C94E1010C94A7012E
:100100000C9491020C94AC010C9416030C94CD0148
:100110000C9494150C94D7010C94C2010C94830296
:100120000C94F9010C94BE010C94EB010C94E501C4
:100130000C94CA010C94EF010C946F020C94FD0115
:100140000C94DD010C9433020000220025002800ED
:100150002B002E00310034000201000005010801CF
:100160000B0105050505070508080808020202023B
:100170000A0A080804040404010101010101010143
:100180000303030303030303040707070C0C0C0C0E
:100190000C0C0C0C020202020606060606060606F7
:1001A0000B0B0B0B0B0B0B0B010210202008081084
:1001B00020401020408002010201080402010102D7
:1001C00004081020408080402010080402018004B0
:1001D000020180402010080402010804020101020B
:1001E0000408102040800102040810204080000014
:1001F0000A0B02090C0D0E080703040100000000A1
:1002000000000000000000000000000000000000EE
:1002100000000000000000000000121110000000AB
:1002200000000000000000000000000000000000CE
:1002300000000000941511241FBECFEFDFEFDEBFDA
:10024000CDBF00E00CBF15E0A0E0B2E0EEE5FEE2BD
:1002500000E00BBF02C007900D92A434B107D9F79C
:100260002AE0A4E4B5E001C01D92A230B207E1F794
:1002700011E0CBE1D1E000E006C021970109802F19
:10028000FE010E94C115CA31D10780E00807A9F715
:100290000E94E8100C942D170C940000FC0181E0E2
:1002A00080838283148216821782108611861286BA
:1002B0001386148615861786118A128A138A148A61
:1002C000158A168A178A108E128E148E168E178E25
:1002D00010A211A212A213A214A215A217A210A674
:1002E00011A612A613A614A615A616A60895282FC1
:1002F00030E0F901E251FE4F9491F901E855FE4FCB
:1003000044912E593E4FF9012491222309F435C01E
:10031000992311F191509231F8F4E92FF0E08827F8
:10032000EB56FE4F8F4F0C94C115C601CA01A701B1
:10033000BE01C201AC01CD01D301D701DD01E10154
:10034000E501EB01EF01AC01F301F901FD01809141
:1003500080008F7780938000E22FF0E0EE0FFF1F88
:10036000E85BFE4FA591B4918FB7F894EC916111C1
:1003700048C040954E234C938FBF089580918000D4
:100380008F7DE8CF80918000877FE4CF84B58F7721
:1003900084BDE2CF84B58F7DFBCF8091B0008F7795
:1003A0008093B000D9CF8091B0008F7DF9CF80913C
:1003B00090008F7780939000CFCF809190008F7DB9
:1003C000F9CF80919000877FF5CF8091A0008F7743
:1003D0008093A000C1CF8091A0008F7DF9CF809144
:1003E000A000877FF5CF809120018F778093200137
:1003F000B3CF809120018F7DF9CF80912001877F3D
:10040000F5CF4E2BB8CF8230910538F0880F991F69
:10041000880F991F05970197F1F708953FB7F89452
:100420008091FA099091FB09A091FC09B091FD0916
:1004300026B5A89B05C02F3F19F00196A11DB11D3F
:100440003FBFBA2FA92F982F8827BC01CD01620F7B
:10045000711D811D911D42E0660F771F881F991F36
:100460004A95D1F70895AF92BF92CF92DF92EF9263
:10047000FF920F931F93CF93DF936C017B018B014E
:10048000040F151FEB015E01AE18BF08C017D1079E
:1004900059F06991D601ED91FC910190F081E02D28
:1004A000C6011995892B79F7C501DF91CF911F916D
:1004B0000F91FF90EF90DF90CF90BF90AF90089595
:1004C000FC01538D448D252F30E0842F90E0821B5A
:1004D000930B541710F0CF96089501970895FC01DF
:1004E000918D828D981761F0A28DAE0FBF2FB11D37
:1004F0005D968C91928D9F5F9F73928F90E008958F
:100500008FEF9FEF0895FC01918D828D981731F048
:10051000828DE80FF11D858D90E008958FEF9FEF9C
:100520000895FC01918D228D892F90E0805C9F4F72
:10053000821B91098F739927089589E398E00E949F
:10054000910221E0892B09F420E0822F0895FC011B
:10055000A48DA80FB92FB11DA35ABF4F2C91848D24
:1005600090E001968F739927848FA689B7892C9381
:10057000A089B1898C91837080648C93938D848DD4
:10058000981306C00288F389E02D80818F7D8083D7
:100590000895EF92FF920F931F93CF93DF93EC0197
:1005A00081E0888F9B8D8C8D98131AC0E889F9891A
:1005B000808185FF15C09FB7F894EE89FF8960831D
:1005C000E889F98980818370806480839FBF81E09E
:1005D00090E0DF91CF911F910F91FF90EF900895E0
:1005E000F62E0B8D10E00F5F1F4F0F731127E02EBB
:1005F0008C8D8E110CC00FB607FCFACFE889F989F3
:10060000808185FFF5CFCE010E94A702F1CFEB8D4F
:10061000EC0FFD2FF11DE35AFF4FF0829FB7F894C6
:100620000B8FEA89FB8980818062CFCFCF93DF93E4
:10063000EC01888D8823B9F0AA89BB89E889F989FA
:100640008C9185FD03C0808186FD0DC00FB607FC2F
:10065000F7CF8C9185FFF2CF808185FFEDCFCE0162
:100660000E94A702E9CFDF91CF91089580E090E04A
:10067000892B29F00E949D0281110E94000080E0D8
:1006800090E0892B49F080E090E0892B29F00E94CE
:10069000000081110E94000080E090E0892B49F069
:1006A00080E090E0892B29F00E94000081110E94D7
:1006B000000080E090E0892B49F080E090E0892BF9
:1006C00029F00E94000081110C9400000895FC01A3
:1006D00084819581A681B781408151816281738136
:1006E000811526E3920725E6A20724ECB2073CF029
:1006F00014161506160617068CF4B7FF0FC04150E6
:100700005109610971094083518362837383965350
:10071000A546B44C84839583A683B7838481958151
:10072000A681B781408151816281738181302AEC39
:1007300092072AE9A2072BE3B2073CF477FF14C023
:10074000181619061A061B067CF44F5F5F4F6F4F91
:100750007F4F40835183628373839A5CAA49BB4372
:1007600084839583A683B7830895880F991F880F84
:10077000991FFC01EC5EFB4F8081918122813381C6
:100780002A30310541F02F30310529F02230310572
:1007900011F080E090E008958F33910598F4880F70
:1007A000991F880F991FFC01EC5EFB4F828193819A
:1007B00002978E30910530F48A5F9B4FFC01808157
:1007C00090E0089590E080E00895209147052095FD
:1007D00030E0F901EA5FFC4F908190952A5F3D4F30
:1007E000D9018C91409145055091460542505109DF
:1007F000E7E4F5E031969F0127543540241735078B
:1008000070F420819227292F30E0D901AA5FBC4FD4
:100810009C9198272A5F3D4FD9018C91EBCF089589
:1008200023E030E03093460520934505E7E4F5E00A
:1008300090912608908380588183628308950F9356
:100840001F93582F577001E010E020E030E004C003
:10085000000F111F221F331F5A95D2F723E09695E0
:1008600087952A95E1F79927E0913008F0913108B2
:10087000662321F0E0913608F0913708E80FF91F60
:100880008081442329F0082B00831F910F91089544
:1008900000950823F9CFCF92DF92EF92FF920F934A
:1008A0001F93CF93DF93CDB7DEB789899A89AB8940
:1008B000BC894D895E896F89788D098D1A8D2B8D44
:1008C0003C8DCD8CDE8CEF8CF8A080179107A207B1
:1008D000B30759F44C195D096E097F091416150602
:1008E000160617065CF081E00AC0801B910BA20B74
:1008F000B30B181619061A061B06ACF780E0DF9139
:10090000CF911F910F91FF90EF90DF90CF900895BE
:100910004F925F926F927F928F929F92AF92BF920F
:10092000CF92DF92EF92FF920F931F93CF93DF93BB
:10093000CDB7DEB7A0970FB6F894DEBF0FBECDBF20
:10094000FC0123812270308131111AC0211101C0B4
:100950001282A0960FB6F894DEBF0FBECDBFDF9116
:10096000CF911F910F91FF90EF90DF90CF90BF90AC
:10097000AF909F908F907F906F905F904F90089571
:10098000211102C021E02283FC0126A121FD09C022
:1009900028E0E0EEF9E0DC015E9601900D922A95E8
:1009A000E1F78C01FC01F28C8481F1101BC0948D65
:1009B0009111EAC08823C1F0838D81FD02C081E0DE
:1009C000828FF801808981FF1786F80187A581FD54
:1009D0001FC088E07E96D801979601900D928A9567
:1009E000E1F716C081111BC0F801818D81FD08C09F
:1009F000118A128A138A148A158A168A178A108E07
:100A0000F801808981FF1786F801838D81FF128E9E
:100A1000F801858D81FD9DCF8481848F9ACFF1E08F
:100A2000FF12F6CFF80183A594A5A5A5B6A58284EB
:100A30009384A484B58447A150A561A572A546807E
:100A4000578060847184440D551D661D771D498350
:100A50005A836B837C83880D991DAA1DBB1D8D83D2
:100A60009E83AF83B887CE0101960E94670388E01A
:100A7000FE013196DE01519601900D928A95E1F7C3
:100A800088E0FE017196DE01599601900D928A95DB
:100A9000E1F700D000D01F921F92ADB7BEB71196FC
:100AA00088E0F8017E9601900D928A95E1F700D0DA
:100AB00000D01F921F92ADB7BEB7119688E0FE011D
:100AC000799601900D928A95E1F71F9282E0E82EC7
:100AD000EF921F921F92FF920E944B040FB6F89460
:100AE000DEBF0FBECDBFF801918D882389F0838DC5
:100AF00081FFE28EF801808981FD02C081E0878755
:100B000088E0F801369691FD83CFD801519665CFE4
:100B100091FD7ECF82A193A1A4A1B5A1C3A4D4A429
:100B2000E5A4F6A4468D578D60A171A187A090A47D
:100B3000A1A4B2A4481959096A097B0949875A87AF
:100B40006B877C878C199D09AE09BF098D879E87AD
:100B5000AF87B88BCE0109960E94670388E0FE013B
:100B60003996DE01119601900D928A95E1F788E0A1
:100B7000FE013196DE01199601900D928A95E1F7FA
:100B800088E0FE013996C1CF811142CF2DCFCF939E
:100B9000DF93CDB7DEB78B85811108C081E09C85DE
:100BA000911101C080E0DF91CF91089581E0FBCFEA
:100BB000CF93DF93CDB7DEB78B85882321F081E01B
:100BC0009C85911101C080E0DF91CF9108952F9213
:100BD0003F924F925F926F927F928F929F92AF92CD
:100BE000BF92CF92DF92EF92FF920F931F93CF931A
:100BF000DF93CDB7DEB7C354D1090FB6F894DEBF8B
:100C00000FBECDBF10E000E0F801EE0FFF1FEA5469
:100C1000F84F0190F081E02D309749F041E080815C
:100C2000811101C040E060E0C8010E941F040F5F15
:100C30001F4F0833110541F7E0902708F09028086E
:100C400006E717E019AF08AF8701005C1F4FF701F7
:100C500026E737E0D9018D919D919D01009729F0FC
:100C6000DC018D919C919183808332960E171F0732
:100C700089F7D12CC12CF601EE0FFF1FEA5FF84F68
:100C80000190F081E02D309749F041E080818111A1
:100C900001C040E061E0C6010E941F04BFEFCB1A13
:100CA000DB0AE8E3CE16D10431F746EC56E0E091DA
:100CB0003308F09134089F01205C3F4FDA018D9199
:100CC0009D91AD01009729F0DC018D919C9191835C
:100CD000808332962E173F0789F7EEE9F6E0FBAFE7
:100CE000EAAFF80108E6E00EF11C2EE936E0D90182
:100CF0008D919D919D01009729F0DC018D919C9132
:100D0000918380833296EE16FF0689F7E6E7F6E0D8
:100D1000FDAFECAFE0912A08F0912B089F01205B1A
:100D20003F4F06E716E0D8018D919D918D01009708
:100D300049F0DC014D915D916D917C91408351832F
:100D40006283738334962E173F0769F7EEE4F6E06B
:100D5000FFAFEEAFE0912D08F0912E089F012056D5
:100D60003F4F8EE496E0DC01CD90DD90CD01C114C3
:100D7000D104F1F0D601EC901196FC9011971296E7
:100D80000C91129713961C91139714967C911497BB
:100D900015966C91159716965C91169717964C912F
:100DA000E082F182028313837483658356834783D1
:100DB00038962E173F07B9F6109246051092450552
:100DC00080914C0690914D06DC01ED91FC910084E0
:100DD000F185E02D1995892B09F483C080914C068B
:100DE00090914D06DC01ED91FC910084F185E02DA0
:100DF00019952091450530914605A0914C06B0917A
:100E00004D06ED91FC9111970084F185E02D281796
:100E1000390768F4CD0119959093460580934505EF
:100E20008091490690914A060E940302D7CFCD01D6
:100E30001995813091400CF054C080914C069091EE
:100E40004D06DC01ED91FC910084F185E02D1995B2
:100E500006970CF446C047E4842E45E0942E8401A6
:100E6000E0904505F0904605C801875495408E15E1
:100E70009F0578F480914C0690914D06DC01ED9130
:100E8000FC910284F385E02D1995F80181938F017F
:100E9000E7CF109148058FEB810F853080F00E94DD
:100EA000E5039701295B3A4FF901329740812150C0
:100EB0003109D9012C91342F2817390791F49091D9
:100EC000470580912608981709F4CDC080914C06FB
:100ED00090914D06DC01ED91FC910680F781E02DAB
:100EE0001995409130085091310830E020E0F90127
:100EF000EE0FFF1FEA54F84F0190F081E02D30977C
:100F000099F0D90183E0B695A7958A95E1F7A40FEA
:100F1000B51F8C9190E0622F677002C09595879500
:100F20006A95E2F7817080832F5F3F4F2833310548
:100F3000F1F68091270890912808BC01605C7F4FF2
:100F4000DC01E8ADF9AD21913191F9AFE8AF2115A0
:100F5000310531F04D915C911197F9015183408336
:100F600012966A177B0769F7FB0188599F4FAAAD54
:100F7000BBAD4D915D91BBAFAAAF4115510529F0B5
:100F800020813181DA012D933C9332968E179F0791
:100F900071F7E0912A08F0912B08CF01805B9F4FF9
:100FA000ACADBDAD2D913D91BDAFACAF21153105BF
:100FB00051F04081518162817381D9014D935D93DC
:100FC0006D937C93139734968E179F0749F7E091A2
:100FD0002D08F0912E08CF0180569F4FAEADBFADCA
:100FE000ED90FD90BFAFAEAFE114F104F1F00081E0
:100FF0001181728163815481458136812781D701B6
:101000000C9311961C93119712967C93129713963A
:101010006C93139714965C93149715964C931597AD
:1010200016963C93169717962C9338968E179F0713
:10103000A9F6CD5BDF4F0FB6F894DEBF0FBECDBF74
:10104000DF91CF911F910F91FF90EF90DF90CF90A4
:10105000BF90AF909F908F907F906F905F904F90D8
:101060003F902F900895B2E0EB1AF108F0924605F8
:10107000E09245058091490590914A05382E292E28
:1010800060904B0570904C05762467247624D090B0
:101090004B0520914D0530E01F3009F48AC5A0F5BD
:1010A000133009F480C158F4113009F4F5C312303B
:1010B00009F484C461E070E0812F90E022C0153013
:1010C00009F457C508F40BC51630A1F7209129087B
:1010D00080912C0890E0880F991FE22FF0E08E0F8E
:1010E0009F1F40912F0804E0409FA0011124480F4A
:1010F000591F2416350608F449C062E070E086E006
:1011000090E00E9410044FC0123409F4FCC698F419
:10111000103109F462C2113469F684E090E09093D2
:1011200046058093450510934805109249058FE3C5
:1011300080934A0538C0143409F45FC608F4DDC54D
:10114000153409F0B7CF8D3ABEED9B0709F083C780
:101150001092440585E4809348058EE78093490505
:1011600081E2E2E2F5E0DE01119601900D928A95AE
:10117000E1F7FE013196AAE4B5E081919D01275483
:101180003540882309F475C78D93F7CF2E163F0697
:10119000D8F4220C331CE0912708F0912808E20DC6
:1011A000F31D7182608280914505909146050296FB
:1011B0008130914008F45AC58091480564E070E0A0
:1011C00090E00E94100452C528163906F0F5A301DC
:1011D00070E060E080912A0890912B0820FC1CC0F0
:1011E00091012E1B3F0BF901EE0FFF1FEC7FF370F7
:1011F000E80FF91F80819181A281B381AA27BB27C3
:10120000BA0155274427842B952BA62BB72B808317
:101210009183A283B383C7CFE095F095E20DF31DD0
:10122000EE0FFF1FEC7FF370E80FF91F60807180F5
:101230008280938066247724462957296829792952
:101240004083518362837383AECF91012370332730
:101250004301B12CA12CC12CD12C7601E0912D0899
:10126000F0912E082115310549F5281A390A220C6A
:10127000331C38EF232237E03322E20DF31D508078
:10128000618072801381B481A581940140E050E0B7
:1012900060E070E080E090E000E30E94C91525293D
:1012A0002083632A6182742A7282152B1383B62BE2
:1012B000B483A72BA5838683978375CF213031050F
:1012C00041F54FEF241A340A281A390A220C331C2C
:1012D00088EF282287E03822E20DF31D50806180DC
:1012E00072801381B681A7819401A501B601C7015F
:1012F00000E20E94C915522A5082632A6182742A30
:101300007282152B1383648375838B2B86839A2BB0
:10131000D3CF2230310529F5A2E02A0E311C281A3C
:10132000390A220C331CB8EF2B22B7E03B22E20D26
:10133000F31D5080618074801581B681A78194016E
:10134000A501B601C70100E10E94C915522A5082C9
:10135000632A618242835383762A7482172B158312
:10136000D4CF03E0200E311C281A390A220C331C7A
:1013700018EF212217E03122E20DF31D5281438143
:101380003481258196818781808291825A29528376
:101390004B2943833C2934832D2925839E29968319
:1013A0008F29878300CFC301019763E070E08D37F9
:1013B0009105C8F46101C60CD71C40912908E09141
:1013C0002C08F0E0EE0FFF1FE40FF11D80912F08B5
:1013D00024E0829FC00111248E0F9F1FC816D906DA
:1013E00028F062E070E083E090E08BCE660C771C22
:1013F000C30103969093460580934505A7E4B5E0A5
:1014000011969D01275435402817390710F41C9276
:10141000F7CF93E090934805835080934905E0907F
:101420002D08F0902E08A0902A08B0902B08A091CB
:101430002708B0912808BAA7A9A7A42FB0E0BBAB92
:10144000AAAB83E090E02C014E1A5F0A3D01609444
:1014500070942C143D0409F4A6CEAAA9BBA92A169F
:101460003B0660F49101220F331FA9A5BAA52A0FEC
:101470003B1FD9018C9111963C911AC02E163F0644
:1014800070F520FC22C0C101AAA9BBA98A1B9B0B35
:10149000880F991F8C7F93708A0D9B1DDC014D91E5
:1014A0005D916D917C91AB0166277727842F352F55
:1014B000D40113963C93139714968C93B2E08B0E41
:1014C000911C0FEF201A300AC4CF9301220D331D57
:1014D000220F331F2C7F33702A0D3B1DCACF810191
:1014E000037011270115110521F581010E1B1F0B3A
:1014F000000F111F087F17700E0D1F1DD8012C91B2
:1015000011963C91119712964C91129713965C91FB
:10151000139714966C91149715967C9115971696BF
:101520008C91169717969C9100E30E94E415822FE8
:10153000BFCF0130110511F50E1B1F0B020D131D3E
:10154000000F111F087F17700E0D1F1DD8012C9161
:1015500011963C91119712964C91129713965C91AB
:10156000139714966C91149715967C91159716966F
:101570008C91169717969C9100E2D7CF02301105F7
:1015800011F50E1B1F0B020D131D000F111F087FFD
:1015900017700E0D1F1DD8012C9111963C911197BB
:1015A00012964C91129713965C91139714966C9126
:1015B000149715967C91159716968C9116971796F9
:1015C0009C9100E1B2CF9201220D331D220F331FF7
:1015D000287F37702E0D3F1D4CCFC30101978B37ED
:1015E000910530F4C301880F991F2817390729F096
:1015F00063E070E080E190E084CDD101A60DB71DDD
:10160000BDABACAB8091290840902C08512C440C08
:10161000551CA82EB12C4A0C5B1C20912F08B4E05D
:101620002B9F90011124240D351DECA9FDA9E21773
:10163000F30718F062E070E0DDCF26E030E0309391
:1016400046052093450510934805309249052092A0
:101650004A0510924B0560924C0560902D087090E1
:101660002E08C0902A08D0902B08DFAACEAA40915D
:101670002708509128089101220F331F7A01E20EAA
:10168000F31EFBAAEAAAD101A419B509C5018095E8
:101690009095FC01E40DF51D2296FFAFEEAF229769
:1016A0006201CA18DB082496DFAECEAE2497ECA800
:1016B000FDA82E143F0409F4D9C2F40147818085A6
:1016C000542F482F2A143B0488F4EAA9FBA951831C
:1016D0004083EAA9FBA93296FBABEAAB1196FFEF78
:1016E0002F1A3F0A02E0800E911CE1CF241435042A
:1016F000C8F570E060E020FC20C02496EEADFFADA0
:101700002497EA0FFB1FEE0FFF1FEC7FF370CEA8AC
:10171000DFA8EC0DFD1D008111812281338122277C
:101720003327BA0155274427402B512B622B732BAB
:101730004083518362837383CCCF2296EEADFFAD9D
:101740002297EA0FFB1FEE0FFF1FEC7FF370EEA84E
:10175000FFA8EE0DFF1D008111812281338100273A
:101760001127E2CFC101837099276A01F12CE12C86
:1017700000E010E09801C9A6DAA6EBA6FCA60DA72A
:101780001EA72FA738ABFD01009741F5EE0FFF1FF5
:10179000E87FF770E60DF71DD080D9AAC180D2800E
:1017A000E380F480158129A53AA540E050E060E08F
:1017B00070E080E090E000E30E94C91509A9202BA9
:1017C00020833C2931834D2942835E295383F62AA5
:1017D000F482172B1583868397837BCF8130910505
:1017E00041F53196EE0FFF1FE87FF770E60DF71D0C
:1017F000108119ABC180D280E380F680178129A5C2
:101800003AA540E050E060E070E080E090E000E267
:101810000E94C91509A9202B20833C2931834D2919
:101820004283E52AE382648375838F298683912B23
:10183000D3CF029729F53296EE0FFF1FE87FF7709E
:10184000E60DF71D108119ABC180D480E580F680CC
:10185000178129A53AA540E050E060E070E080E003
:1018600090E000E10E94C91509A9202B20833C29A2
:10187000318342835383D62AD482E72AE582D5CFA7
:101880003396EE0FFF1FE87FF770E60DF71D19A5E1
:1018900010832AA521831DCFC301019763E070E067
:1018A000803D974068F520913208C101860D971D53
:1018B00062E070E02817190618F1C30143E096951D
:1018C00087954A95E1F79C012D5F3F4F3093460580
:1018D00020934505930127703327232B29F0049685
:1018E0009093460580934505809145059091460566
:1018F000E7E4F5E0813021E0920728F064E070E051
:1019000081E090E0FECB31969F01275435402817A7
:10191000390710F41082F7CF91E090934805835077
:1019200080934905009130081091310870E060E023
:1019300020E0C12CD12C7601C394D701C601022E20
:1019400004C0880F991FAA1FBB1F0A94D2F789A74A
:101950009AA7ABA7BCA7FB0183E0F695E7958A950C
:10196000E1F7E65BFA4F3081A10193E05695479588
:101970009A95E1F74F715527400F511FDA014C91AD
:1019800050E0B22DB77002C055954795BA95E2F771
:1019900089A540FF0FC0832B80832F5F283009F477
:1019A00020E0EFEF2E1A3E0A6F5F7F4F6616770634
:1019B00021F6F9CB809538233083EFCFC30101970F
:1019C00063E070E0803D974068F520913808C101E0
:1019D000860D971D62E070E02817190618F1C30103
:1019E00013E0969587951A95E1F79C012D5F3F4F7F
:1019F0003093460520934505930127703327232B09
:101A000029F00496909346058093450580914505FD
:101A100090914605E7E4F5E0813001E0900728F079
:101A200064E070E082E090E06CCB31969F01275437
:101A300035402817390710F41082F7CF92E09093C1
:101A400048058350809349056091360870913708A6
:101A500050E040E010E0C12CD12C7601C394D701B6
:101A6000C601012E04C0880F991FAA1FBB1F0A942C
:101A7000D2F789A79AA7ABA7BCA7FA0133E0F695DE
:101A8000E7953A95E1F7E65BFA4F00819101A3E013
:101A900036952795AA95E1F7260F372F311DD901E5
:101AA0002C9130E0B22DB77002C035952795BA95CC
:101AB000E2F789A520FF0FC0802B80831F5F1830BD
:101AC00009F410E0EFEF2E1A3E0A4F5F5F4F6416E5
:101AD000750629F668CB809508230083EFCFC301F4
:101AE000019763E070E08D37910550F4209135083F
:101AF000C101860D971D2817190628F462E070E0D1
:101B000084E090E0FECAC301880F991F039690936A
:101B1000460580934505E7E4F5E031969F0127549B
:101B200035402817390710F41082F7CF94E09093CE
:101B30004805835080934905220C331CE0913308FB
:101B4000F0913408E20DF31D01E0601A710812E013
:101B5000810E911C2FEF6216720609F424CB80814E
:101B600091813296D40111969C93119712968C9381
:101B7000EBCF6114BFEF7B0629F063E070E06114E6
:101B8000710449F4809132088150990B82159305B4
:101B900028F462E070E085E090E0B3CA41E06114AF
:101BA000EFEF7E0609F040E060E0C1010E941F04F3
:101BB000FACAA30113E0569547951A95E1F7842FC9
:101BC000B30167707727672B11F081E0840FA301C1
:101BD00041505109403B574018F48217130629F031
:101BE00063E070E08FE090E08CCA20913208C10180
:101BF000860D971D2817190618F462E070E0F2CFE1
:101C000086E090E090934605809345058FE08093B1
:101C100048053092490520924A0570924B05609222
:101C20004C0510E000E0F12CF801A3E0F695E795F3
:101C3000AA95E1F7E95BFA4F478150E00F2C02C00B
:101C4000559547950A94E2F7417060E0C101800F15
:101C5000911F0E941F04F394B8E0CB2EFC1001C02A
:101C6000F12C0F5F1F4F60167106F1F600914505CC
:101C700010914605780122E0E20EF11CF092460533
:101C8000E09245050E94E503F801E95BFA4F908375
:101C9000818380914B0687FD09C061E00E94770136
:101CA00080914706909148060E94030280914C065D
:101CB00090914D06DC01ED91FC910280F381E02DC5
:101CC000A70167E475E0199580914C0690914D0647
:101CD000DC01ED91FC910680F781E02D1995809152
:101CE0004706909148060E94030280914B0687FDAB
:101CF000F8C860E00E947701F4C80FE320163104B1
:101D000008F070C01FE36116710408F06BC0621424
:101D1000730408F467C0C101880F991F880F991FC9
:101D20009C012C5E3B4F6901510172E5872E75E0E5
:101D3000972E90E080E0D60112962D913C91225092
:101D4000310910E000E02E30310528F42A5F3B4FC6
:101D5000F901008110E07C01E00EF11E9701255F82
:101D60003F4F21303140E0F5C5010E94B503A80185
:101D7000BC01C4010E942417800E911E95012F5FA3
:101D80003F4F04E0C00ED11CC70115016216730657
:101D900028F5C7010796909346058093450583E48F
:101DA000809348058EE78093490510924A0520925A
:101DB0004B058091E8099091E9092091EA09309159
:101DC000EB0930934C0520934D0590934E0580937D
:101DD0004F0510925005E0925105E5C95901ABCF6E
:101DE0007C01D7CF83E090E0909346058093450532
:101DF00083E48093480581E828C025E12216310458
:101E0000D8F4CE0101962C01FC01D12CC12C92E01A
:101E1000890E911C2C143D04D9F0D40112968C919A
:101E2000129713969C9189279827892781939193DC
:101E3000BFEFCB1ADB0AEBCF83E090E0909346052F
:101E4000809345051093480582E880934905ABC906
:101E5000B12CA12C19A6712C612C0BE010E0CA1436
:101E6000DB0469F1F201E190F1902F01FFE3EF163D
:101E7000F10440F083E090E090934605809345059F
:101E800084E4B7CFC7010E94CC034C011C01200E93
:101E9000311E21E02216320690F4C7010E94B503DC
:101EA000A401BC01C801895B9A4F0E942417680CE9
:101EB000791C3FEFA31AB30AE9A68101D0CF109392
:101EC00046050093450584E4809348058EE780939A
:101ED000490510924A05C9A4C0924B058091E809B2
:101EE0009091E9092091EA093091EB0930934C0572
:101EF00020934D0590934E0580934F0570925005A9
:101F00006092510550C90FE32016310450F48091BE
:101F10004C0590914D059827892798278A3F910570
:101F200040F083E090E0909346058093450582E47D
:101F300060CF8101000F111F000F111FF801EC5E2F
:101F4000FB4FE280F380809144058130D1F0F801AD
:101F5000EC5EFB4F00811181D11033C0BAE0EB166B
:101F6000F10409F46CC0EFE0EE16F10409F46DC061
:101F7000F2E0EF16F10409F04AC0F80181818D7F8B
:101F800038C020E1E216F10411F3C1010E94CC0334
:101F90009C0136952795FC01E95BFA4FA7E4B5E073
:101FA0003197CD01875495408217930780F6179695
:101FB0008C911797978117969C9317978783119603
:101FC000EFCFC1010E94CC03AC013AE0E316F1046B
:101FD00091F08FE0E816F10429F192E0E916F1049E
:101FE000B1F46EE475E0C8010E942417F801818104
:101FF000826081830CC06EE475E0C8010E942417E2
:10200000D80118968C911897826018968C9383E06B
:1020100090E0909346058093450582E480934805BF
:102020008EE713CF6EE475E0C8010E942417D80133
:1020300011968C911197826011968C93E8CFD801FC
:1020400018968C9118978D7FE0CFD80111968C91BE
:1020500011978D7FF1CF8E3D9D4A21F481E08093D1
:10206000440578C883E090E0909346058093450549
:1020700071C8309346052093450595C81F920F926D
:102080000FB60F9211242F933F938F939F93AF938B
:10209000BF938091F6099091F709A091F809B0914A
:1020A000F9093091F50923E0230F2D3758F50196F2
:1020B000A11DB11D2093F5098093F6099093F709AE
:1020C000A093F809B093F9098091FA099091FB095E
:1020D000A091FC09B091FD090196A11DB11D80934D
:1020E000FA099093FB09A093FC09B093FD09BF91F5
:1020F000AF919F918F913F912F910F900FBE0F90B5
:102100001F90189526E8230F0296A11DB11DD2CF6E
:102110001F920F920FB60F9211240BB60F922F93AE
:102120003F934F935F936F937F938F939F93AF935F
:10213000BF93EF93FF9389E398E00E94A702FF917A
:10214000EF91BF91AF919F918F917F916F915F912F
:102150004F913F912F910F900BBE0F900FBE0F909C
:102160001F9018951F920F920FB60F9211240BB665
:102170000F922F938F939F93EF93FF93E0914908D2
:10218000F0914A088081E0914F08F091500882FD5B
:102190001DC09081809152088F5F8F7320915308EA
:1021A000821741F0E0915208F0E0E75CF74F958F1D
:1021B00080935208FF91EF919F918F912F910F90F3
:1021C0000BBE0F900FBE0F901F9018958081F2CF1D
:1021D000789484B5826084BD84B5816084BD85B502
:1021E000826085BD85B5816085BD80916E0081600E
:1021F00080936E00109281008091810082608093B4
:1022000081008091810081608093810080918000B5
:102210008160809380008091B10084608093B100E0
:102220008091B00081608093B000809191008260C5
:1022300080939100809191008160809391008091C2
:1022400090008160809390008091A10082608093D3
:10225000A1008091A10081608093A1008091A000E5
:1022600081608093A0008091210182608093210190
:102270008091210181608093210180912001816002
:102280008093200180917A00846080937A0080910D
:102290007A00826080937A0080917A0081608093D6
:1022A0007A0080917A00806880937A001092C10051
:1022B000C1E0C093D6081092D8081092DA081092A4
:1022C000DC081092DE08C093E0081092E208109239
:1022D000E40886EE98E00E944E0186E199E00E94B3
:1022E0004E0186E499E00E944E0186E799E00E9443
:1022F0004E011092A60988EA99E00E944E011092C0
:10230000D8091092DA091092DC091092DE09E091E6
:102310004908F0914A0882E08083E0914508F091F5
:1023200046081082E0914708F091480880E18083D8
:1023300010925108E0914D08F0914E0886E080839C
:10234000E0914B08F0914C08808180618083E0919E
:102350004B08F0914C08808188608083E0914B08A5
:10236000F0914C08808180688083E0914B08F09167
:102370004C0880818F7D808389E398E090934D069F
:1023800080934C068FEF80934B068EEE92E09093F5
:102390004A068093490681E49AE090934806809328
:1023A0004706C093260884E38093290884E180933C
:1023B0002C0880932F0888E38093320890E2909352
:1023C00035088093380887E090E00E94FF159093CD
:1023D000310880933008009709F451C0C7E0FC0130
:1023E0002C2F11922A95E9F788E690E00E94FF15BC
:1023F0009093280880932708009709F440C028E6A6
:10240000FC0111922A95E9F780E590E00E94FF1502
:1024100090932B0880932A08009789F120E5FC010E
:1024200011922A95E9F780EA90E00E94FF159093B7
:102430002E0880932D08009711F120EAFC011192DB
:102440002A95E9F787E090E00E94FF1590933708FE
:1024500080933608009799F0FC011192CA95E9F72C
:1024600080E490E00E94FF15909334088093330835
:10247000009729F020E4FC0111922A95E9F7D0E0B9
:10248000C0E08E01000F111F0A54184FF80180811F
:102490009181892B49F481E090E00E94FF15F801B9
:1024A00091838083FC0110822196C833D10549F7BE
:1024B000C0912708D0912808E6E7F7E090E080E097
:1024C00021913191232B39F4DF0112979E01280FBE
:1024D000391F2D933C9302968034910589F7F12C96
:1024E000E12C8701000F111F0A5F184FF80180814E
:1024F0009181892B49F481E090E00E94FF15F80159
:1025000091838083FC011082FFEFEF1AFF0A28E31A
:10251000E216F10431F72091330830913408E6ECEB
:10252000F6E090E080E041915191452B39F4DF01D4
:102530001297A901480F591F4D935C93029680345E
:10254000910589F7EEE9F6E090E080E0C05CDF4FAE
:1025500021913191232B39F4DF0112979E01280F2D
:10256000391F2D933C9302968832910589F740914B
:102570002A0850912B08E6E7F6E090E080E02191F0
:102580003191232B59F4DF0112979C01220F331F45
:10259000220F331F240F351F2D933C930196843156
:1025A000910569F740912D0850912E08EEE4F6E070
:1025B00090E080E021913191232B61F4DF011297AB
:1025C0009C0163E0220F331F6A95E1F7240F351F4A
:1025D0002D933C9301968431910561F780E29EE44E
:1025E000A0E0B0E08093ED099093EE09A093EF098D
:1025F000B093F0090E940E026093F1097093F20902
:102600008093F3099093F409C1E083E0C82ED12CA4
:10261000E12CF12C9AE0892E912CA12CB12CD2E046
:102620000E940E020091F1091091F2092091F30924
:102630003091F409601B710B820B930B0091ED0933
:102640001091EE092091EF093091F00960177107A0
:102650008207930708F42DC28091E8099091E90957
:10266000A091EA09B091EB090196A11DB11D8093DB
:10267000E8099093E909A093EA09B093EB098091E6
:10268000D90981FD18C08091E4081F928F93809131
:10269000E2088F931F92DF931F921F92CF930E94A5
:1026A000C7058093D8098DB79EB708960FB6F894E2
:1026B0009EBF0FBE8DBF8091DB0981FD18C0809148
:1026C000D6081F928F938091D8098F931F92DF9322
:1026D0001F921F92CF930E94D8058093DA09EDB71D
:1026E000FEB738960FB6F894FEBF0FBEEDBF8091CF
:1026F000DA09882329F08091A70981FFC093A609F0
:102700008091EB0881FD04C08091D6088093EA088F
:102710008091F40881FD10C08092EC089092ED0841
:10272000A092EE08B092EF081092F0081092F10813
:102730001092F2081092F30886EE98E00E94880446
:102740008091A609882371F08091F508882351F0C3
:102750008091D90881FFC093D8088091D70881FF64
:102760001092D60880911B0981FD04C08091D80881
:1027700080931A098091240981FD10C0C0921C0920
:10278000D0921D09E0921E09F0921F0910922009B3
:1027900010922109109222091092230986E199E0F2
:1027A0000E94880480912509882351F08091DB08DC
:1027B00081FFC093DA088091D90881FF1092D80870
:1027C0009091E208911127C08091E408811123C003
:1027D0008091E0088823F9F02091DA08222329F07B
:1027E0002091D70821FFC093D6088823A1F020911B
:1027F000DA08222329F02091DB0821FF1092DA0861
:10280000882349F08091DA08882329F08091A7096C
:1028100081FF1092A6098091DD0981FD22C02091DF
:10282000E408992349F08091E008882329F081E0A9
:102830009091DA08911101C080E01F922F938F933D
:102840001F92DF931F921F92CF930E94C705809320
:10285000DC098DB79EB708960FB6F8949EBF0FBEE1
:102860008DBF8091DC09882329F08091A70981FF21
:10287000C093A6098091DF0981FD1FC09091E208F5
:102880008091E408882321F081E02091DC08211167
:1028900080E01F929F938F931F92DF931F921F924E
:1028A000CF930E94C7058093DE09EDB7FEB7389637
:1028B0000FB6F894FEBF0FBEEDBF80914B0981FDAE
:1028C00010C08091DA08882349F08091DC088111DA
:1028D00009C181E09091DE09911101C080E08093EF
:1028E0004A098091540981FD10C080924C09909250
:1028F0004D09A0924E09B0924F09109250091092C2
:102900005109109252091092530986E499E00E94ED
:1029100088048091DA088823D1F08091DC08811145
:1029200004C08091DE09882329F08091DD0881FFB1
:10293000C093DC088091DC08811104C08091DE091D
:10294000882329F08091E10881FF1092E0088091AE
:10295000E208811114C09091E408911110C0909187
:102960005509992361F02091DF0821FFC093DE080B
:10297000992329F09091DD0891FF1092DC08909145
:102980007B0991FD0EC0811109C08091E40881117D
:1029900005C081E09091DE08911101C080E0809334
:1029A0007A098091840981FD10C0C0927C09D0927F
:1029B0007D09E0927E09F0927F09109280091092C1
:1029C0008109109282091092830986E799E00E949A
:1029D0008804809185098823A1F08091E10881FF16
:1029E000C093E0088091DF0881FF1092DE0880919B
:1029F000DB0881FF1092DA088091D70881FFC0932D
:102A0000D6088091E4099091E509A091E609B0917A
:102A1000E709AC01BD01535D6E4C7E4F4115FAECE8
:102A20005F07FAE96F07FBE37F0708F05DC040939B
:102A3000E4095093E5096093E6097093E7090E9461
:102A4000E7058091EC09811118C0C093EC090E9440
:102A50000E020091ED091091EE092091EF093091DD
:102A6000F009601B710B820B930B6093F10970935B
:102A7000F2098093F3099093F4098091F109909100
:102A8000F209A091F309B091F4094091ED09509138
:102A9000EE096091EF097091F009840F951FA61F50
:102AA000B71F8093F1099093F209A093F309B093B3
:102AB000F4090E940E020091F1091091F20920918F
:102AC000F3093091F409601B710B820B930B603199
:102AD00077428105910510F00E94E70588950E94D4
:102AE00036039ECD81E0FBCE4091E0095091E10993
:102AF0006091E2097091E3099D59A946BA43809318
:102B0000E4099093E509A093E609B093E7094F5FC4
:102B10005F4F6F4F7F4F4093E0095093E1096093FF
:102B2000E2097093E3098BCFE9E3F8E013821282A4
:102B300088EE93E0A0E0B0E084839583A683B7831A
:102B400084E195E09183808385EC90E0958784878C
:102B500084EC90E09787868780EC90E0918B808B67
:102B600081EC90E0938B828B82EC90E0958B848B50
:102B700086EC90E0978B868B118E128E138E148EBE
:102B80000895EE0FFF1F881F8BBF0790F691E02D71
:102B90001994002E083090F0982F872F762F652FEC
:102BA000542F432F322F22270850F4CF220F331FE8
:102BB000441F551F661F771F881F991F0A95B2F77C
:102BC000002D089597FD1094002E083098F00850BD
:102BD000232F342F452F562F672F782F892F912D94
:102BE000F4CF159497958795779567955795479561
:102BF000379527950A95AAF71124002D08950F936C
:102C00001F93CF93DF938230910510F482E090E020
:102C1000E091000AF091010A30E020E0B0E0A0E08D
:102C2000309799F42115310509F44AC0281B390B56
:102C300024303105D8F58A819B816115710589F1B0
:102C4000FB0193838283FE0111C040815181028187
:102C5000138148175907E0F04817590799F410975E
:102C600061F012960C93129713961C933296CF0133
:102C7000DF91CF911F910F9108950093000A109357
:102C8000010AF4CF2115310551F04217530738F0EE
:102C9000A901DB019A01BD01DF01F801C1CFEF01FC
:102CA000F9CF9093010A8093000ACDCFFE01E20F85
:102CB000F31F819391932250310939832883D7CF11
:102CC0002091FE093091FF09232B41F4209102024B
:102CD000309103023093FF092093FE0920910002F6
:102CE000309101022115310541F42DB73EB74091D5
:102CF000040250910502241B350BE091FE09F0916E
:102D0000FF09E217F307A0F42E1B3F0B2817390722
:102D100078F0AC014E5F5F4F2417350748F04E0F37
:102D20005F1F5093FF094093FE09819391939FCFBA
:102D3000F0E0E0E09CCFCF93DF930097E9F0FC0157
:102D4000329713821282A091000AB091010AED011C
:102D500030E020E01097A1F420813181820F931F91
:102D60002091FE093091FF092817390709F061C049
:102D7000F093FF09E093FE09DF91CF910895EA01F6
:102D8000CE17DF07E8F54A815B819E0141155105A9
:102D9000B1F7E901FB83EA8349915991C40FD51F2B
:102DA000EC17FD0761F4808191810296840F951FD5
:102DB000E90199838883828193819B838A83F0E0F0
:102DC000E0E012968D919C9113970097B9F52D91A3
:102DD0003C911197CD010296820F931F2091FE091D
:102DE0003091FF092817390739F6309751F51092BD
:102DF000010A1092000AB093FF09A093FE09BCCF0C
:102E0000D383C28340815181840F951FC817D9078E
:102E100061F44E5F5F4F88819981480F591F51833C
:102E200040838A819B81938382832115310509F038
:102E3000B0CFF093010AE093000A9ECFFD01DC01C0
:102E4000C0CF13821282D7CFFB01DC0102C00190F8
:0E2E50000D9241505040D8F70895F894FFCFEE
:102E5E000000020A800000C0C101C30302C2C60600
:102E6E0007C705C5C404CC0C0DCD0FCFCE0E0ACAB4
:102E7E00CB0BC90908C8D81819D91BDBDA1A1EDE04
:102E8E00DF1FDD1D1CDC14D4D515D71716D6D212B4
:102E9E0013D311D1D010F03031F133F3F23236F6C4
:102EAE00F737F53534F43CFCFD3DFF3F3EFEFA3A74
:102EBE003BFB39F9F83828E8E929EB2B2AEAEE2E04
:102ECE002FEF2DEDEC2CE42425E527E7E62622E274
:102EDE00E323E12120E0A06061A163A3A26266A6C4
:102EEE00A767A56564A46CACAD6DAF6F6EAEAA6A34
:102EFE006BAB69A9A86878B8B979BB7B7ABABE7E84
:102F0E007FBF7DBDBC7CB47475B577B7B67672B233
:102F1E00B373B17170B050909151935352929656C3
:102F2E005797559594549C5C5D9D5F9F9E5E5A9AF3
:102F3E009B5B99595898884849894B8B8A4A4E8E83
:102F4E008F4F8D4D4C8C44848545874746868242F3
:102F5E0043834181804000C1814001C0804101C056
:102F6E00804100C1814001C0804100C1814000C14B
:102F7E00814001C0804101C0804100C1814000C13B
:102F8E00814001C0804100C1814001C0804101C02B
:102F9E00804100C1814001C0804100C1814000C11B
:102FAE00814001C0804100C1814001C0804101C00B
:102FBE00804100C1814000C1814001C0804101C0FB
:102FCE00804100C1814001C0804100C1814000C1EB
:102FDE00814001C0804101C0804100C1814000C1DB
:102FEE00814001C0804100C1814001C0804101C0CB
:102FFE00804100C1814000C1814001C0804101C0BB
:10300E00804100C1814001C0804100C1814000C1AA
:10301E00814001C0804100C1814001C0804101C09A
:10302E00804100C1814001C0804100C1814000C18A
:10303E00814001C0804101C0804100C1814000C17A
:10304E00814001C0804100C1814001C0804101C06A
:10305E00804100C181400100000000000000080016
:10306E0000000001D6080F00D8080F00DA080F0084
:10307E00DC080F00DE080F00E0080F00E2080F006A
:10308E00E4080F00E6080F00E8080F00EA080F003A
:10309E00EC080A00F5080F00F7080A000009020004
:1030AE0002090F0004090A000D090A0016090F0093
:1030BE0018090F001A090F001C090A0025090F0034
:1030CE0027090A003009020032090F0034090A00EC
:1030DE003D090A0046090F0048090F004A090F0072
:1030EE004C090A0055090F0057090A006009020031
:1030FE0062090F0064090A006D090A0076090F00C3
:10310E0078090F007A090F007C090A0085090F0063
:10311E0087090A009009020092090F0094090A001B
:10312E009D090A00A6090F00A8090F00AA090F00A1
:10313E00AC090F00AE090A00B7090F00B9090A0061
:10314E00C2090200C4090F00C6090A00CF090A000D
:10315E00D8090F00DA090F00DC090F00DE090F0095
:10316E0000000000C90233026002160391026F02D2
:10317E0083023932353261353664346136616362C9
:10318E003130613439633839343838353738346151
:04319E006532000096
:00000001FF
