:100000000C941B010C944C010C944C010C944C016D
:100010000C944C010C944C010C944C010C944C012C
:100020000C944C010C944C010C944C010C944C011C
:100030000C944C010C944C010C944C010C944C010C
:100040000C944C010C944C010C944C010C944C01FC
:100050000C944C010C944C010C944C010C945E10CB
:100060000C944C010C94D2100C94A8100C944C01DC
:100070000C944C010C944C010C944C010C944C01CC
:100080000C944C010C944C010C944C010C944C01BC
:100090000C944C010C944C010C944C010C944C01AC
:1000A0000C944C010C944C010C944C010C944C019C
:1000B0000C944C010C944C010C944C010C944C018C
:1000C0000C944C010C944C010C944C010C944C017C
:1000D0000C944C010C944C010C944C010C944C016C
:1000E0000C944C010C94C9020C94C6010C94CD15CF
:1000F0000C9460020C94F3010C94D3010C94E10174
:100100000C94A7010C9491020C94AC010C9416036E
:100110000C94CD010C94D7010C94C2010C94830271
:100120000C94F9010C94BE010C94EB010C94E501C4
:100130000C94CA010C94EF010C946F020C94FD0115
:100140000C94DD010C9433020000220025002800ED
:100150002B002E00310034000201000005010801CF
:100160000B0105050505070508080808020202023B
:100170000A0A080804040404010101010101010143
:100180000303030303030303040707070C0C0C0C0E
:100190000C0C0C0C020202020606060606060606F7
:1001A0000B0B0B0B0B0B0B0B010210202008081084
:1001B00020401020408002010201080402010102D7
:1001C00004081020408080402010080402018004B0
:1001D000020180402010080402010804020101020B
:1001E0000408102040800102040810204080000014
:1001F0000A0B02090C0D0E080703040100000000A1
:1002000000000000000000000000000000000000EE
:1002100000000000000000000000121110000000AB
:1002200000000000000000000000000000000000CE
:1002300000000000CD1511241FBECFEFDFEFDEBFA1
:10024000CDBF00E00CBF15E0A0E0B2E0E0EDFEE2C3
:1002500000E00BBF02C007900D92AC34B107D9F794
:100260002AE0ACE4B5E001C01D92A131B207E1F78C
:1002700011E0CBE1D1E000E006C021970109802F19
:10028000FE010E94FA15CA31D10780E00807A9F7DC
:100290000E9408110C9466170C940000FC0181E088
:1002A00080838283148216821782108611861286BA
:1002B0001386148615861786118A128A138A148A61
:1002C000158A168A178A108E128E148E168E178E25
:1002D00010A211A212A213A214A215A217A210A674
:1002E00011A612A613A614A615A616A60895282FC1
:1002F00030E0F901E251FE4F9491F901E855FE4FCB
:1003000044912E593E4FF9012491222309F435C01E
:10031000992311F191509231F8F4E92FF0E08827F8
:10032000EB56FE4F8F4F0C94FA15C601CA01A70178
:10033000BE01C201AC01CD01D301D701DD01E10154
:10034000E501EB01EF01AC01F301F901FD01809141
:1003500080008F7780938000E22FF0E0EE0FFF1F88
:10036000E85BFE4FA591B4918FB7F894EC916111C1
:1003700048C040954E234C938FBF089580918000D4
:100380008F7DE8CF80918000877FE4CF84B58F7721
:1003900084BDE2CF84B58F7DFBCF8091B0008F7795
:1003A0008093B000D9CF8091B0008F7DF9CF80913C
:1003B00090008F7780939000CFCF809190008F7DB9
:1003C000F9CF80919000877FF5CF8091A0008F7743
:1003D0008093A000C1CF8091A0008F7DF9CF809144
:1003E000A000877FF5CF809120018F778093200137
:1003F000B3CF809120018F7DF9CF80912001877F3D
:10040000F5CF4E2BB8CF8230910538F0880F991F69
:10041000880F991F05970197F1F708953FB7F89452
:100420008091090A90910A0AA0910B0AB0910C0AD6
:1004300026B5A89B05C02F3F19F00196A11DB11D3F
:100440003FBFBA2FA92F982F8827BC01CD01620F7B
:10045000711D811D911D42E0660F771F881F991F36
:100460004A95D1F70895AF92BF92CF92DF92EF9263
:10047000FF920F931F93CF93DF936C017B018B014E
:10048000040F151FEB015E01AE18BF08C017D1079E
:1004900059F06991D601ED91FC910190F081E02D28
:1004A000C6011995892B79F7C501DF91CF911F916D
:1004B0000F91FF90EF90DF90CF90BF90AF90089595
:1004C000FC01538D448D252F30E0842F90E0821B5A
:1004D000930B541710F0CF96089501970895FC01DF
:1004E000918D828D981761F0A28DAE0FBF2FB11D37
:1004F0005D968C91928D9F5F9F73928F90E008958F
:100500008FEF9FEF0895FC01918D828D981731F048
:10051000828DE80FF11D858D90E008958FEF9FEF9C
:100520000895FC01918D228D892F90E0805C9F4F72
:10053000821B91098F739927089581E498E00E94A6
:10054000910221E0892B09F420E0822F0895FC011B
:10055000A48DA80FB92FB11DA35ABF4F2C91848D24
:1005600090E001968F739927848FA689B7892C9381
:10057000A089B1898C91837080648C93938D848DD4
:10058000981306C00288F389E02D80818F7D8083D7
:100590000895EF92FF920F931F93CF93DF93EC0197
:1005A00081E0888F9B8D8C8D98131AC0E889F9891A
:1005B000808185FF15C09FB7F894EE89FF8960831D
:1005C000E889F98980818370806480839FBF81E09E
:1005D00090E0DF91CF911F910F91FF90EF900895E0
:1005E000F62E0B8D10E00F5F1F4F0F731127E02EBB
:1005F0008C8D8E110CC00FB607FCFACFE889F989F3
:10060000808185FFF5CFCE010E94A702F1CFEB8D4F
:10061000EC0FFD2FF11DE35AFF4FF0829FB7F894C6
:100620000B8FEA89FB8980818062CFCFCF93DF93E4
:10063000EC01888D8823B9F0AA89BB89E889F989FA
:100640008C9185FD03C0808186FD0DC00FB607FC2F
:10065000F7CF8C9185FFF2CF808185FFEDCFCE0162
:100660000E94A702E9CFDF91CF91089580E090E04A
:10067000892B29F00E949D0281110E94000080E0D8
:1006800090E0892B49F080E090E0892B29F00E94CE
:10069000000081110E94000080E090E0892B49F069
:1006A00080E090E0892B29F00E94000081110E94D7
:1006B000000080E090E0892B49F080E090E0892BF9
:1006C00029F00E94000081110C9400000895FC01A3
:1006D00084819581A681B781408151816281738136
:1006E000811526E3920725E6A20724ECB2073CF029
:1006F00014161506160617068CF4B7FF0FC04150E6
:100700005109610971094083518362837383965350
:10071000A546B44C84839583A683B7838481958151
:10072000A681B781408151816281738181302AEC39
:1007300092072AE9A2072BE3B2073CF477FF14C023
:10074000181619061A061B067CF44F5F5F4F6F4F91
:100750007F4F40835183628373839A5CAA49BB4372
:1007600084839583A683B7830895880F991F880F84
:10077000991FFC01EC5EFB4F8081918122813381C6
:100780002430310569F030F42230310549F080E041
:1007900090E006C02A30310519F02F303105B9F745
:1007A00008958134910598F4880F991F880F991F37
:1007B000FC01EC5EFB4F8281938102978E309105A4
:1007C00030F48A5F9B4FFC01808190E0089590E0B7
:1007D00080E0089520914F05209530E0F901EA5F0F
:1007E000FC4F908190952A5F3D4FD9018C914091AB
:1007F0004D0550914E0542505109EFE4F5E0319618
:100800009F012F5435402417350770F4208192271B
:10081000292F30E0D901AA5FBC4F9C9198272A5F0D
:100820003D4FD9018C91EBCF089523E030E0309318
:100830004E0520934D05EFE4F5E090912E0890834E
:1008400080588183628308950F931F93582F5770A8
:1008500001E010E020E030E004C0000F111F221F73
:10086000331F5A95D2F723E0969587952A95E1F79D
:100870009927E0913808F0913908662321F0E0913A
:100880003E08F0913F08E80FF91F8081442329F0CA
:10089000082B00831F910F91089500950823F9CF2D
:1008A000CF92DF92EF92FF920F931F93CF93DF933C
:1008B000CDB7DEB789899A89AB89BC894D895E89B4
:1008C0006F89788D098D1A8D2B8D3C8DCD8CDE8CAA
:1008D000EF8CF8A080179107A207B30759F44C19C1
:1008E0005D096E097F0914161506160617065CF0D9
:1008F00081E00AC0801B910BA20BB30B18161906DE
:100900001A061B06ACF780E0DF91CF911F910F9183
:10091000FF90EF90DF90CF9008954F925F926F928B
:100920007F928F929F92AF92BF92CF92DF92EF927F
:10093000FF920F931F93CF93DF93CDB7DEB7A097AE
:100940000FB6F894DEBF0FBECDBFFC01238122702D
:10095000308131111AC0211101C01282A0960FB648
:10096000F894DEBF0FBECDBFDF91CF911F910F91E5
:10097000FF90EF90DF90CF90BF90AF909F908F90BF
:100980007F906F905F904F900895211102C021E0F9
:100990002283FC0126A121FD09C028E0EFEEF9E049
:1009A000DC015E9601900D922A95E1F78C01FC0125
:1009B000F28C8481F1101BC0948D9111EAC08823C0
:1009C000C1F0838D81FD02C081E0828FF8018089B2
:1009D00081FF1786F80187A581FD1FC088E07E96FC
:1009E000D801979601900D928A95E1F716C0811172
:1009F0001BC0F801818D81FD08C0118A128A138AFB
:100A0000148A158A168A178A108EF801808981FF48
:100A10001786F801838D81FF128EF801858D81FD87
:100A20009DCF8481848F9ACFF1E0FF12F6CFF80139
:100A300083A594A5A5A5B6A582849384A484B58432
:100A400047A150A561A572A5468057806084718436
:100A5000440D551D661D771D49835A836B837C8326
:100A6000880D991DAA1DBB1D8D839E83AF83B887FA
:100A7000CE0101960E94670388E0FE013196DE01F7
:100A8000519601900D928A95E1F788E0FE017196EA
:100A9000DE01599601900D928A95E1F700D000D0C1
:100AA0001F921F92ADB7BEB7119688E0F8017E96EF
:100AB00001900D928A95E1F700D000D01F921F920D
:100AC000ADB7BEB7119688E0FE01799601900D9200
:100AD0008A95E1F71F9282E0E82EEF921F921F9213
:100AE000FF920E9450040FB6F894DEBF0FBECDBF38
:100AF000F801918D882389F0838D81FFE28EF801C2
:100B0000808981FD02C081E0878788E0F801369600
:100B100091FD83CFD801519665CF91FD7ECF82A103
:100B200093A1A4A1B5A1C3A4D4A4E5A4F6A4468D21
:100B3000578D60A171A187A090A4A1A4B2A4481967
:100B400059096A097B0949875A876B877C878C1901
:100B50009D09AE09BF098D879E87AF87B88BCE01EF
:100B600009960E94670388E0FE013996DE0111961E
:100B700001900D928A95E1F788E0FE013196DE0141
:100B8000199601900D928A95E1F788E0FE01399659
:100B9000C1CF811142CF2DCFCF93DF93CDB7DEB739
:100BA0008B85811108C081E09C85911101C080E096
:100BB000DF91CF91089581E0FBCFCF93DF93CDB745
:100BC000DEB78B85882321F081E09C85911101C0DF
:100BD00080E0DF91CF9108952F923F924F925F92E4
:100BE0006F927F928F929F92AF92BF92CF92DF923D
:100BF000EF92FF920F931F93CF93DF93CDB7DEB7A2
:100C0000C354D1090FB6F894DEBF0FBECDBF10E0BC
:100C100000E0F801EE0FFF1FE254F84F0190F08161
:100C2000E02D309749F041E08081811101C040E022
:100C300060E0C8010E9424040F5F1F4F08331105B4
:100C400041F7E0902F08F09030080EE717E019AF59
:100C500008AF8701005C1F4FF7012EE737E0D9018D
:100C60008D919D919D01009729F0DC018D919C91C2
:100C70009183808332960E171F0789F7D12CC12CE0
:100C8000F601EE0FFF1FE25FF84F0190F081E02DBB
:100C9000309749F041E08081811101C040E061E07E
:100CA000C6010E942404BFEFCB1ADB0AE8E3CE168C
:100CB000D10431F74EEC56E0E0913B08F0913C084E
:100CC0009F01205C3F4FDA018D919D91AD0100970E
:100CD00029F0DC018D919C919183808332962E17AF
:100CE0003F0789F7E6EAF6E0FBAFEAAFF80108E66E
:100CF000E00EF11C26EA36E0D9018D919D919D010F
:100D0000009729F0DC018D919C919183808332962C
:100D1000EE16FF0689F7EEE7F6E0FDAFECAFE091E7
:100D20003208F09133089F01205B3F4F0EE716E039
:100D3000D8018D919D918D01009749F0DC014D9175
:100D40005D916D917C91408351836283738334966E
:100D50002E173F0769F7E6E5F6E0FFAFEEAFE0914B
:100D60003508F09136089F0120563F4F86E596E002
:100D7000DC01CD90DD90CD01C114D104F1F0D6019C
:100D8000EC901196FC90119712960C911297139675
:100D90001C91139714967C91149715966C91159746
:100DA00016965C91169717964C91E082F182028319
:100DB0001383748365835683478338962E173F07C2
:100DC000B9F610924E0510924D05809154069091FF
:100DD0005506DC01ED91FC910084F185E02D19951B
:100DE000892B09F483C08091540690915506DC014B
:100DF000ED91FC910084F185E02D199520914D0530
:100E000030914E05A0915406B0915506ED91FC919C
:100E100011970084F185E02D2817390768F4CD017A
:100E2000199590934E0580934D05809151069091B0
:100E300052060E940302D7CFCD011995813091400F
:100E40000CF054C08091540690915506DC01ED9150
:100E5000FC910084F185E02D199506970CF446C0AD
:100E60004FE4842E45E0942E8401E0904D05F090EF
:100E70004E05C8018F5495408E159F0578F48091DA
:100E8000540690915506DC01ED91FC910284F385A6
:100E9000E02D1995F80181938F01E7CF109150054E
:100EA0008FEB810F853080F00E94EA039701215B70
:100EB0003A4FF9013297408121503109D9012C91E3
:100EC000342F2817390791F490914F0580912E08FF
:100ED000981709F4CDC08091540690915506DC0115
:100EE000ED91FC910680F781E02D1995409138082D
:100EF0005091390830E020E0F901EE0FFF1FE25475
:100F0000F84F0190F081E02D309799F0D90183E0FE
:100F1000B695A7958A95E1F7A40FB51F8C9190E03F
:100F2000622F677002C0959587956A95E2F7817088
:100F300080832F5F3F4F28333105F1F680912F08D2
:100F400090913008BC01605C7F4FDC01E8ADF9ADE9
:100F500021913191F9AFE8AF2115310531F04D9173
:100F60005C911197F9015183408312966A177B07B0
:100F700069F7FB0188599F4FAAADBBAD4D915D91BB
:100F8000BBAFAAAF4115510529F020813181DA01AB
:100F90002D933C9332968E179F0771F7E09132089C
:100FA000F0913308CF01805B9F4FACADBDAD2D916B
:100FB0003D91BDAFACAF2115310551F0408151815C
:100FC00062817381D9014D935D936D937C931397E7
:100FD00034968E179F0749F7E0913508F09136084F
:100FE000CF0180569F4FAEADBFADED90FD90BFAF2E
:100FF000AEAFE114F104F1F00081118172816381DF
:101000005481458136812781D7010C9311961C9319
:10101000119712967C93129713966C9313971496CC
:101020005C93149715964C93159716963C931697C8
:1010300017962C9338968E179F07A9F6CD5BDF4F36
:101040000FB6F894DEBF0FBECDBFDF91CF911F91D9
:101050000F91FF90EF90DF90CF90BF90AF909F9057
:101060008F907F906F905F904F903F902F9008955A
:10107000B2E0EB1AF108F0924E05E0924D05809136
:10108000510590915205382E292E6090530570908D
:101090005405762467247624D09053052091550575
:1010A00030E01F3009F489C5A0F5133009F47FC181
:1010B00058F4113009F4F4C3123009F483C461E028
:1010C00070E0812F90E022C0153009F456C508F475
:1010D0000AC51630A1F7209131088091340890E0BC
:1010E000880F991FE22FF0E08E0F9F1F4091370865
:1010F00004E0409FA0011124480F591F2416350613
:1011000008F448C062E070E086E090E00E941504B8
:101110004EC0123409F4FBC690F4103109F461C2D8
:10112000113469F684E090E090934E0580934D056C
:1011300010935005109251051093520538C0143485
:1011400009F45FC608F4DDC5153409F0B8CF8D3A4F
:10115000FEED9F0709F09FC710924C0585E4809330
:1011600050058EE78093510581E2EAE2F5E0DE0169
:10117000119601900D928A95E1F7FE013196A2E554
:10118000B5E081919D012F543540882309F491C722
:101190008D93F7CF2E163F06D8F4220C331CE09126
:1011A0002F08F0913008E20DF31D7182608280916A
:1011B0004D0590914E0502968130914008F45AC534
:1011C0008091500564E070E090E00E94150452C5E3
:1011D00028163906F0F5A30170E060E0809132082E
:1011E0009091330820FC1CC091012E1B3F0BF9018C
:1011F000EE0FFF1FEC7FF370E80FF91F80819181E4
:10120000A281B381AA27BB27BA0155274427842B83
:10121000952BA62BB72B80839183A283B383C7CF53
:10122000E095F095E20DF31DEE0FFF1FEC7FF370DC
:10123000E80FF91F60807180828093806624772494
:10124000462957296829792940835183628373830A
:10125000AECF9101237033274301B12CA12CC12CB7
:10126000D12C7601E0913508F09136082115310531
:1012700049F5281A390A220C331C38EF232237E0AB
:101280003322E20DF31D5080618072801381B4819E
:10129000A581940140E050E060E070E080E090E0E3
:1012A00000E30E94021625292083632A6182742AA2
:1012B0007282152B1383B62BB483A72BA583868349
:1012C000978375CF2130310541F54FEF241A340A49
:1012D000281A390A220C331C88EF282287E038228A
:1012E000E20DF31D5080618072801381B681A78169
:1012F0009401A501B601C70100E20E940216522A1C
:101300005082632A6182742A7282152B138364834C
:1013100075838B2B86839A2BD3CF2230310529F509
:10132000A2E02A0E311C281A390A220C331CB8EF0D
:101330002B22B7E03B22E20DF31D508061807480C8
:101340001581B681A7819401A501B601C70100E10D
:101350000E940216522A5082632A6182428353837A
:10136000762A7482172B1583D4CF03E0200E311C0C
:10137000281A390A220C331C18EF212217E03122D7
:10138000E20DF31D5281438134812581968187814D
:10139000808291825A2952834B2943833C2934838A
:1013A0002D2925839E2996838F29878300CFC3010A
:1013B000019763E070E08D379105C8F46101C60CB8
:1013C000D71C40913108E0913408F0E0EE0FFF1F88
:1013D000E40FF11D8091370824E0829FC0011124A1
:1013E0008E0F9F1FC816D90628F062E070E083E0D8
:1013F00090E08CCE660C771CC301039690934E054B
:1014000080934D05AFE4B5E011969D012F54354012
:101410002817390710F41C92F7CF93E090935005EA
:10142000835080935105E0903508F0903608A090E5
:101430003208B0903308A0912F08B0913008BAA7B5
:10144000A9A7A42FB0E0BBABAAAB83E090E02C012E
:101450004E1A5F0A3D01609470942C143D0409F407
:10146000A6CEAAA9BBA92A163B0660F49101220FB9
:10147000331FA9A5BAA52A0F3B1FD9018C9111963C
:101480003C911AC02E163F0670F520FC22C0C10107
:10149000AAA9BBA98A1B9B0B880F991F8C7F9370ED
:1014A0008A0D9B1DDC014D915D916D917C91AB018D
:1014B00066277727842F352FD40113963C931397F3
:1014C00014968C93B2E08B0E911C0FEF201A300A09
:1014D000C4CF9301220D331D220F331F2C7F337095
:1014E0002A0D3B1DCACF810103701127011511057B
:1014F00021F581010E1B1F0B000F111F087F1770B4
:101500000E0D1F1DD8012C9111963C91119712962A
:101510004C91129713965C91139714966C911497B3
:1015200015967C91159716968C91169717969C9107
:1015300000E30E941D16822FBFCF0130110511F567
:101540000E1B1F0B020D131D000F111F087F1770BC
:101550000E0D1F1DD8012C9111963C9111971296DA
:101560004C91129713965C91139714966C91149763
:1015700015967C91159716968C91169717969C91B7
:1015800000E2D7CF0230110511F50E1B1F0B020D23
:10159000131D000F111F087F17700E0D1F1DD8019E
:1015A0002C9111963C91119712964C91129713968B
:1015B0005C91139714966C91149715967C911597DE
:1015C00016968C91169717969C9100E1B2CF9201D6
:1015D000220D331D220F331F287F37702E0D3F1D24
:1015E0004CCFC30101978B37910530F4C301880FAD
:1015F000991F2817390729F063E070E080E190E037
:1016000085CDD101A60DB71DBDABACAB8091310826
:1016100040903408512C440C551CA82EB12C4A0C77
:101620005B1C20913708B4E02B9F90011124240DFE
:10163000351DECA9FDA9E217F30718F062E070E090
:10164000DDCF26E030E030934E0520934D0510931A
:101650005005309251052092520510925305609228
:1016600054056090350870903608C0903208D090CC
:101670003308DFAACEAA40912F085091300891017B
:10168000220F331F7A01E20EF31EFBAAEAAAD10150
:10169000A419B509C50180959095FC01E40DF51DCF
:1016A0002296FFAFEEAF22976201CA18DB0824969C
:1016B000DFAECEAE2497ECA8FDA82E143F0409F4AB
:1016C000D9C2F40147818085542F482F2A143B0446
:1016D00088F4EAA9FBA951834083EAA9FBA93296C1
:1016E000FBABEAAB1196FFEF2F1A3F0A02E0800E28
:1016F000911CE1CF24143504C8F570E060E020FCB3
:1017000020C02496EEADFFAD2497EA0FFB1FEE0F2D
:10171000FF1FEC7FF370CEA8DFA8EC0DFD1D00814C
:1017200011812281338122273327BA01552744278B
:10173000402B512B622B732B408351836283738325
:10174000CCCF2296EEADFFAD2297EA0FFB1FEE0F36
:10175000FF1FEC7FF370EEA8FFA8EE0DFF1D0081C8
:1017600011812281338100271127E2CFC1018370CB
:1017700099276A01F12CE12C00E010E09801C9A63C
:10178000DAA6EBA6FCA60DA71EA72FA738ABFD0176
:10179000009741F5EE0FFF1FE87FF770E60DF71D8C
:1017A000D080D9AAC180D280E380F480158129A598
:1017B0003AA540E050E060E070E080E090E000E3B7
:1017C0000E94021609A9202B20833C2931834D2930
:1017D00042835E295383F62AF482172B158386836E
:1017E00097837BCF8130910541F53196EE0FFF1F36
:1017F000E87FF770E60DF71D108119ABC180D2802C
:10180000E380F680178129A53AA540E050E060E02A
:1018100070E080E090E000E20E94021609A9202B0F
:1018200020833C2931834D294283E52AE382648366
:1018300075838F298683912BD3CF029729F5329612
:10184000EE0FFF1FE87FF770E60DF71D108119AB53
:10185000C180D480E580F680178129A53AA540E0B3
:1018600050E060E070E080E090E000E10E9402164D
:1018700009A9202B20833C29318342835383D62A14
:10188000D482E72AE582D5CF3396EE0FFF1FE87F9B
:10189000F770E60DF71D19A510832AA521831DCF2A
:1018A000C301019763E070E0803D974068F52091A7
:1018B0003A08C101860D971D62E070E028171906ED
:1018C00018F1C30143E0969587954A95E1F79C018D
:1018D0002D5F3F4F30934E0520934D0593012770A8
:1018E0003327232B29F0049690934E0580934D05C2
:1018F00080914D0590914E05EFE4F5E0813021E0B7
:10190000920728F064E070E081E090E0FFCB319630
:101910009F012F5435402817390710F41082F7CF54
:1019200091E09093500583508093510500913808C1
:101930001091390870E060E020E0C12CD12C7601D4
:10194000C394D701C601022E04C0880F991FAA1F95
:10195000BB1F0A94D2F789A79AA7ABA7BCA7FB0124
:1019600083E0F695E7958A95E1F7EE5AFA4F3081D4
:10197000A10193E0569547959A95E1F74F71552748
:10198000400F511FDA014C9150E0B22DB77002C0E8
:1019900055954795BA95E2F789A540FF0FC0832B6F
:1019A00080832F5F283009F420E0EFEF2E1A3E0AE3
:1019B0006F5F7F4F6616770621F6F9CB8095382347
:1019C0003083EFCFC301019763E070E0803D974023
:1019D00068F520914008C101860D971D62E070E016
:1019E0002817190618F1C30113E0969587951A95E3
:1019F000E1F79C012D5F3F4F30934E0520934D053D
:101A0000930127703327232B29F0049690934E05DA
:101A100080934D0580914D0590914E05EFE4F5E0E2
:101A2000813001E0900728F064E070E082E090E00F
:101A30006DCB31969F012F5435402817390710F48C
:101A40001082F7CF92E09093500583508093510518
:101A500060913E0870913F0850E040E010E0C12CDA
:101A6000D12C7601C394D701C601012E04C0880F82
:101A7000991FAA1FBB1F0A94D2F789A79AA7ABA7E1
:101A8000BCA7FA0133E0F695E7953A95E1F7EE5AEF
:101A9000FA4F00819101A3E036952795AA95E1F7C9
:101AA000260F372F311DD9012C9130E0B22DB770A0
:101AB00002C035952795BA95E2F789A520FF0FC09A
:101AC000802B80831F5F183009F410E0EFEF2E1A8F
:101AD0003E0A4F5F5F4F6416750629F668CB809506
:101AE00008230083EFCFC301019763E070E08D37D7
:101AF000910550F420913D08C101860D971D2817CE
:101B0000190628F462E070E084E090E0FFCAC301A7
:101B1000880F991F039690934E0580934D05EFE42F
:101B2000F5E031969F012F5435402817390710F4FE
:101B30001082F7CF94E09093500583508093510525
:101B4000220C331CE0913B08F0913C08E20DF31DA0
:101B500001E0601A710812E0810E911C2FEF6216ED
:101B6000720609F424CB808191813296D4011196BA
:101B70009C93119712968C93EBCF6114BFEF7B0669
:101B800029F063E070E06114710449F480913A082F
:101B90008150990B8215930528F462E070E085E08E
:101BA00090E0B4CA41E06114EFEF7E0609F040E036
:101BB00060E0C1010E942404FACAA30113E0569513
:101BC00047951A95E1F7842FB30167707727672B44
:101BD00011F081E0840FA30141505109403B57406F
:101BE00018F48217130629F063E070E08FE090E0AC
:101BF0008DCA20913A08C101860D971D2817190634
:101C000018F462E070E0F2CF86E090E090934E0529
:101C100080934D058FE080935005309251052092BE
:101C20005205709253056092540510E000E0F12CCB
:101C3000F801A3E0F695E795AA95E1F7E15BFA4F85
:101C4000478150E00F2C02C0559547950A94E2F762
:101C5000417060E0C101800F911F0E942404F39441
:101C6000B8E0CB2EFC1001C0F12C0F5F1F4F6016A7
:101C70007106F1F600914D0510914E05780122E0B4
:101C8000E20EF11CF0924E05E0924D050E94EA032F
:101C9000F801E15BFA4F908381838091530687FDC1
:101CA00009C061E00E94770180914F069091500633
:101CB0000E9403028091540690915506DC01ED913B
:101CC000FC910280F381E02DA7016FE475E0199586
:101CD0008091540690915506DC01ED91FC910680AF
:101CE000F781E02D199580914F06909150060E9442
:101CF00003028091530687FDF9C860E00E947701D6
:101D0000F5C801E42016310408F070C011E4611632
:101D1000710408F06BC06214730408F467C0C10159
:101D2000880F991F880F991F9C012C5E3B4F6901FA
:101D300051017AE5872E75E0972E90E080E0D6017C
:101D400012962D913C912250310910E000E02E3086
:101D5000310528F42A5F3B4FF901008110E07C0136
:101D6000E00EF11E9701255F3F4F21303140E0F535
:101D7000C5010E94B503A801BC01C4010E945D1702
:101D8000800E911E95012F5F3F4F04E0C00ED11CC5
:101D9000C70115016216730628F5C70107969093CF
:101DA0004E0580934D0583E4809350058EE7809324
:101DB000510510925205209253058091F709909198
:101DC000F8092091F9093091FA09309354052093CC
:101DD0005505909356058093570510925805E0924B
:101DE0005905E5C95901ABCF7C01D7CF83E090E01D
:101DF00090934E0580934D0583E48093500581E8D0
:101E000028C025E122163104D8F4CE0101962C0118
:101E1000FC01D12CC12C92E0890E911C2C143D04A4
:101E2000D9F0D40112968C91129713969C91892720
:101E30009827892781939193BFEFCB1ADB0AEBCFC9
:101E400083E090E090934E0580934D0510935005EC
:101E500082E880935105ABC9B12CA12C19A6712C35
:101E6000612C0BE010E0CA14DB0469F1F201E1908F
:101E7000F1902F01F1E4EF16F10440F083E090E0DF
:101E800090934E0580934D0584E4B7CFC7010E941F
:101E9000D1034C011C01200E311E21E02216320616
:101EA00090F4C7010E94B503A401BC01C801815B85
:101EB0009A4F0E945D17680C791C3FEFA31AB30A72
:101EC000E9A68101D0CF10934E0500934D0584E41F
:101ED000809350058EE78093510510925205C9A456
:101EE000C09253058091F7099091F8092091F90962
:101EF0003091FA0930935405209355059093560577
:101F000080935705709258056092590550C901E4B5
:101F10002016310450F4809154059091550598276E
:101F2000892798278A3F910540F083E090E09093BD
:101F30004E0580934D0582E460CF8101000F111F93
:101F4000000F111FF801EC5EFB4FE280F3808091DF
:101F50004C058130B1F0F801EC5EFB4F008111813E
:101F6000D1102FC0B4E0EB16F10409F487C008F0DB
:101F700076C0F2E0EF16F10489F5F80181818D7FDA
:101F800048C020E1E216F10431F3C1010E94D103FF
:101F90009C0136952795FC01E15BFA4FAFE4B5E073
:101FA0003197CD018F54954082179307A0F617966D
:101FB0008C911797978117969C9317978783119603
:101FC000EFCFC1010E94D103AC0134E0E316F1046C
:101FD00011F178F492E0E916F104A1F183E090E0C8
:101FE00090934E0580934D0582E4809350058EE7D3
:101FF00030CFAAE0EA16F104D9F0BFE0EB16F10405
:1020000069F766E575E0C8010E945D17F8018181F6
:1020100082608183E3CF66E575E0C8010E945D17A9
:10202000D80114968C911497826014968C93D6CF15
:1020300066E575E0C8010E945D17F8018085826041
:102040008087CCCF66E575E0C8010E945D17D80196
:1020500011968C911197826011968C93BFCF2AE0D4
:10206000E216F10481F03FE0E316F10409F0B6CF87
:10207000D80111968C9111978D7FEECFF801848154
:102080008D7F8483ABCFD80118968C9118978D7F64
:1020900018968C93A3CF8E3D9D4A21F481E08093C6
:1020A0004C055CC883E090E090934E0580934D050D
:1020B00055C830934E0520934D0579C81F920F9255
:1020C0000FB60F9211242F933F938F939F93AF934B
:1020D000BF938091050A9091060AA091070AB091DA
:1020E000080A3091040A23E0230F2D3758F5019692
:1020F000A11DB11D2093040A8093050A9093060A3E
:10210000A093070AB093080A8091090A90910A0ADD
:10211000A0910B0AB0910C0A0196A11DB11D8093EC
:10212000090A90930A0AA0930B0AB0930C0ABF9174
:10213000AF919F918F913F912F910F900FBE0F9074
:102140001F90189526E8230F0296A11DB11DD2CF2E
:102150001F920F920FB60F9211240BB60F922F936E
:102160003F934F935F936F937F938F939F93AF931F
:10217000BF93EF93FF9381E498E00E94A702FF9141
:10218000EF91BF91AF919F918F917F916F915F91EF
:102190004F913F912F910F900BBE0F900FBE0F905C
:1021A0001F9018951F920F920FB60F9211240BB625
:1021B0000F922F938F939F93EF93FF93E09151088A
:1021C000F09152088081E0915708F091580882FD03
:1021D0001DC0908180915A088F5F8F7320915B089A
:1021E000821741F0E0915A08F0E0EF5BF74F958FCE
:1021F00080935A08FF91EF919F918F912F910F90AB
:102200000BBE0F900FBE0F901F9018958081F2CFDC
:10221000789484B5826084BD84B5816084BD85B5C1
:10222000826085BD85B5816085BD80916E008160CD
:1022300080936E0010928100809181008260809373
:102240008100809181008160809381008091800075
:102250008160809380008091B10084608093B100A0
:102260008091B00081608093B00080919100826085
:102270008093910080919100816080939100809182
:1022800090008160809390008091A1008260809393
:10229000A1008091A10081608093A1008091A000A5
:1022A00081608093A0008091210182608093210150
:1022B00080912101816080932101809120018160C2
:1022C0008093200180917A00846080937A008091CD
:1022D0007A00826080937A0080917A008160809396
:1022E0007A0080917A00806880937A001092C10011
:1022F000C1E0C093DE081092E0081092E20810924C
:10230000E4081092E608C093E8081092EA081092D8
:10231000EC088EEE98E00E944E018EE199E00E945A
:102320004E018EE499E00E944E018EE799E00E94F2
:102330004E011092AE091092AF091092B00910929E
:10234000B1091092B3091092B50987EB99E00E9488
:102350004E011092E7091092E9091092EB091092D0
:10236000ED09E0915108F091520882E08083E091FC
:102370004D08F0914E081082E0914F08F0915008FE
:1023800080E1808310925908E0915508F091560839
:1023900086E08083E0915308F09154088081806149
:1023A0008083E0915308F091540880818860808395
:1023B000E0915308F0915408808180688083E09117
:1023C0005308F091540880818F7D808381E498E0E8
:1023D00090935506809354068FEF809353068EEEAC
:1023E00092E0909352068093510681E49AE0909394
:1023F000500680934F06C0932E0884E380933108E3
:1024000084E1809334088093370888E380933A0806
:1024100090E290933D088093400887E090E00E940E
:1024200038169093390880933808009709F451C002
:10243000C7E0FC012C2F11922A95E9F788E690E07D
:102440000E9438169093300880932F08009709F463
:1024500040C028E6FC0111922A95E9F780E590E05A
:102460000E9438169093330880933208009789F1C0
:1024700020E5FC0111922A95E9F780EA90E00E949C
:1024800038169093360880933508009711F120EAAA
:10249000FC0111922A95E9F787E090E00E94381636
:1024A00090933F0880933E08009799F0FC011192A9
:1024B000CA95E9F780E490E00E94381690933C08B2
:1024C00080933B08009729F020E4FC0111922A95A3
:1024D000E9F7D0E0C0E08E01000F111F0254184F41
:1024E000F80180819181892B49F481E090E00E947C
:1024F0003816F80191838083FC0110822196C8333D
:10250000D10549F7C0912F08D0913008EEE7F7E0E8
:1025100090E080E021913191232B39F4DF01129773
:102520009E01280F391F2D933C930296803491050C
:1025300089F7F12CE12C8701000F111F025F184F62
:10254000F80180819181892B49F481E090E00E941B
:102550003816F80191838083FC011082FFEFEF1A97
:10256000FF0A28E3E216F10431F720913B0830918D
:102570003C08EEECF6E090E080E041915191452B73
:1025800039F4DF011297A901480F591F4D935C934D
:1025900002968034910589F7E6EAF6E090E080E063
:1025A000C05CDF4F21913191232B39F4DF01129769
:1025B0009E01280F391F2D933C9302968832910576
:1025C00089F74091320850913308EEE7F6E090E049
:1025D00080E021913191232B59F4DF0112979C0166
:1025E000220F331F220F331F240F351F2D933C93CF
:1025F00001968431910569F740913508509136086C
:10260000E6E5F6E090E080E021913191232B61F442
:10261000DF0112979C0163E0220F331F6A95E1F7F7
:10262000240F351F2D933C9301968431910561F75A
:1026300080E29EE4A0E0B0E08093FC099093FD0965
:10264000A093FE09B093FF090E940E026093000A56
:102650007093010A8093020A9093030AC1E083E019
:10266000C82ED12CE12CF12C9AE0892E912CA12C92
:10267000B12CD2E00E940E020091000A1091010AD2
:102680002091020A3091030A601B710B820B930B9D
:102690000091FC091091FD092091FE093091FF097C
:1026A000601771078207930708F43CC28091F7090D
:1026B0009091F809A091F909B091FA090196A11D2C
:1026C000B11D8093F7099093F809A093F909B0938D
:1026D000FA098091E80981FD18C08091EC081F92E9
:1026E0008F938091EA088F931F92DF931F921F921E
:1026F000CF930E94CC058093E7098DB79EB70896CB
:102700000FB6F8949EBF0FBE8DBF8091EA0981FD80
:1027100018C08091DE081F928F938091E7098F93F4
:102720001F92DF931F921F92CF930E94DD0580932B
:10273000E909EDB7FEB738960FB6F894FEBF0FBEA5
:10274000EDBF8091DE08882349F09091E909992333
:1027500029F09091B60991FFC093B5099091B30902
:10276000992351F09091E50891FFC093E40890916E
:10277000E90891FF1092E8089091F30891FF809387
:10278000F2088091FC0881FD10C08092F4089092BC
:10279000F508A092F608B092F7081092F808109287
:1027A000F9081092FA081092FB088EEE98E00E9449
:1027B0008D048091B509882371F08091FD088823EC
:1027C00051F08091E10881FFC093E0088091DF081B
:1027D00081FF1092DE088091230981FD04C0809161
:1027E000E0088093220980912C0981FD10C0C092DD
:1027F0002409D0922509E0922609F0922709109227
:1028000028091092290910922A0910922B098EE1A9
:1028100099E00E948D0480912D09882351F08091C8
:10282000E30881FFC093E2088091E10881FF1092E4
:10283000E0089091EA08911127C08091EC0881117D
:1028400023C08091E8088823F9F02091E208222330
:1028500029F02091DF0821FFC093DE088823A1F032
:102860002091E208222329F02091E30821FF109211
:10287000E208882349F08091E208882329F08091BA
:10288000B60981FF1092B5098091EC0981FD22C043
:102890002091EC08992349F08091E808882329F0D9
:1028A00081E09091E208911101C080E01F922F9386
:1028B0008F931F92DF931F921F92CF930E94CC059C
:1028C0008093EB098DB79EB708960FB6F8949EBF1C
:1028D0000FBE8DBF8091EB09882329F08091B60946
:1028E00081FFC093B5098091EE0981FD1FC09091D1
:1028F000EA088091EC08882321F081E02091E40827
:10290000211180E01F929F938F931F92DF931F925C
:102910001F92CF930E94CC058093ED09EDB7FEB7CF
:1029200038960FB6F894FEBF0FBEEDBF80915309E5
:1029300081FD10C08091E208882349F08091E4086D
:10294000811109C181E09091ED09911101C080E0F0
:102950008093520980915C0981FD10C080925409D6
:1029600090925509A0925609B092570910925809B1
:102970001092590910925A0910925B098EE499E05D
:102980000E948D048091E2088823D1F08091E408B0
:10299000811104C08091ED09882329F08091E50818
:1029A00081FFC093E4088091E408811104C0809104
:1029B000ED09882329F08091E90881FF1092E80849
:1029C0008091EA08811114C09091EC08911110C017
:1029D00090915D09992361F02091E70821FFC09350
:1029E000E608992329F09091E50891FF1092E408F8
:1029F0009091830991FD0EC0811109C08091EC086E
:102A0000811105C081E09091E608911101C080E03C
:102A10008093820980918C0981FD10C0C092840945
:102A2000D0928509E0928609F09287091092880970
:102A30001092890910928A0910928B098EE799E009
:102A40000E948D0480918D098823A1F08091E9086E
:102A500081FFC093E8088091E70881FF1092E608A3
:102A60008091E30881FF1092E2088091DF0881FFE6
:102A7000C093DE088091F3099091F409A091F509C3
:102A8000B091F609AC01BD01535D6E4C7E4F41150E
:102A9000FAEC5F07FAE96F07FBE37F0708F05DC018
:102AA0004093F3095093F4096093F5097093F60984
:102AB0000E94EC058091FB09811118C0C093FB09AD
:102AC0000E940E020091FC091091FD092091FE095F
:102AD0003091FF09601B710B820B930B6093000A0E
:102AE0007093010A8093020A9093030A8091000A6E
:102AF0009091010AA091020AB091030A4091FC0949
:102B00005091FD096091FE097091FF09840F951F96
:102B1000A61FB71F8093000A9093010AA093020A90
:102B2000B093030A0E940E020091000A1091010A5C
:102B30002091020A3091030A601B710B820B930BE8
:102B4000603177428105910510F00E94EC0588956F
:102B50000E9436038FCD81E0FBCE4091EF0950916A
:102B6000F0096091F1097091F2099D59A946BA43A3
:102B70008093F3099093F409A093F509B093F609B3
:102B80004F5F5F4F6F4F7F4F4093EF095093F009B6
:102B90006093F1097093F2098BCFE1E4F8E01382BE
:102BA000128288EE93E0A0E0B0E084839583A68350
:102BB000B7838CE195E09183808385EC90E09587E5
:102BC000848784EC90E09787868780EC90E0918BF7
:102BD000808B81EC90E0938B828B82EC90E0958BE4
:102BE000848B86EC90E0978B868B118E128E138EE1
:102BF000148E0895EE0FFF1F881F8BBF0790F6916C
:102C0000E02D1994002E083090F0982F872F762F02
:102C1000652F542F432F322F22270850F4CF220F35
:102C2000331F441F551F661F771F881F991F0A9562
:102C3000B2F7002D089597FD1094002E083098F0FB
:102C40000850232F342F452F562F672F782F892F89
:102C5000912DF4CF1594979587957795679557950E
:102C60004795379527950A95AAF71124002D0895C1
:102C70000F931F93CF93DF938230910510F482E07E
:102C800090E0E0910F0AF091100A30E020E0B0E00F
:102C9000A0E0309799F42115310509F44AC0281BAA
:102CA000390B24303105D8F58A819B816115710576
:102CB00089F1FB0193838283FE0111C04081518120
:102CC0000281138148175907E0F04817590799F412
:102CD000109761F012960C93129713961C933296EC
:102CE000CF01DF91CF911F910F91089500930F0AAB
:102CF0001093100AF4CF2115310551F042175307F4
:102D000038F0A901DB019A01BD01DF01F801C1CF53
:102D1000EF01F9CF9093100A80930F0ACDCFFE01F7
:102D2000E20FF31F81939193225031093983288355
:102D3000D7CF20910D0A30910E0A232B41F4209118
:102D400002023091030230930E0A20930D0A209163
:102D50000002309101022115310541F42DB73EB733
:102D60004091040250910502241B350BE0910D0A9D
:102D7000F0910E0AE217F307A0F42E1B3F0B281761
:102D8000390778F0AC014E5F5F4F2417350748F0E4
:102D90004E0F5F1F50930E0A40930D0A819391933B
:102DA0009FCFF0E0E0E09CCFCF93DF930097E9F076
:102DB000FC01329713821282A0910F0AB091100A7F
:102DC000ED0130E020E01097A1F420813181820FE5
:102DD000931F20910D0A30910E0A2817390709F028
:102DE00061C0F0930E0AE0930D0ADF91CF91089530
:102DF000EA01CE17DF07E8F54A815B819E014115A4
:102E00005105B1F7E901FB83EA8349915991C40F58
:102E1000D51FEC17FD0761F4808191810296840F24
:102E2000951FE90199838883828193819B838A839B
:102E3000F0E0E0E012968D919C9113970097B9F520
:102E40002D913C911197CD010296820F931F2091F5
:102E50000D0A30910E0A2817390739F6309751F5C7
:102E60001092100A10920F0AB0930E0AA0930D0A46
:102E7000BCCFD383C28340815181840F951FC81773
:102E8000D90761F44E5F5F4F88819981480F591FC0
:102E9000518340838A819B819383828321153105ED
:102EA00009F0B0CFF093100AE0930F0A9ECFFD0116
:102EB000DC01C0CF13821282D7CFFB01DC0102C03C
:102EC00001900D9241505040D8F70895F894FFCFEB
:102ED0000000110A800000C0C101C30302C2C6067F
:102EE00007C705C5C404CC0C0DCD0FCFCE0E0ACA42
:102EF000CB0BC90908C8D81819D91BDBDA1A1EDE92
:102F0000DF1FDD1D1CDC14D4D515D71716D6D21241
:102F100013D311D1D010F03031F133F3F23236F651
:102F2000F737F53534F43CFCFD3DFF3F3EFEFA3A01
:102F30003BFB39F9F83828E8E929EB2B2AEAEE2E91
:102F40002FEF2DEDEC2CE42425E527E7E62622E201
:102F5000E323E12120E0A06061A163A3A26266A651
:102F6000A767A56564A46CACAD6DAF6F6EAEAA6AC1
:102F70006BAB69A9A86878B8B979BB7B7ABABE7E11
:102F80007FBF7DBDBC7CB47475B577B7B67672B2C1
:102F9000B373B17170B05090915193535292965651
:102FA0005797559594549C5C5D9D5F9F9E5E5A9A81
:102FB0009B5B99595898884849894B8B8A4A4E8E11
:102FC0008F4F8D4D4C8C4484854587474686824281
:102FD00043834181804000C1814001C0804101C0E4
:102FE000804100C1814001C0804100C1814000C1D9
:102FF000814001C0804101C0804100C1814000C1C9
:10300000814001C0804100C1814001C0804101C0B8
:10301000804100C1814001C0804100C1814000C1A8
:10302000814001C0804100C1814001C0804101C098
:10303000804100C1814000C1814001C0804101C088
:10304000804100C1814001C0804100C1814000C178
:10305000814001C0804101C0804100C1814000C168
:10306000814001C0804100C1814001C0804101C058
:10307000804100C1814000C1814001C0804101C048
:10308000804100C1814001C0804100C1814000C138
:10309000814001C0804100C1814001C0804101C028
:1030A000804100C1814001C0804100C1814000C118
:1030B000814001C0804101C0804100C1814000C108
:1030C000814001C0804100C1814001C0804101C0F8
:1030D000804100C1814001000400000000000800A0
:1030E00000000001DE080F00E0080F00E2080F00FA
:1030F000E4080F00E6080F00E8080F00EA080F00D8
:10310000EC080F00EE080F00F0080F00F2080F00A7
:10311000F4080A00FD080F00FF080A000809020071
:103120000A090F000C090A0015090A001E090F0000
:1031300020090F0022090F0024090A002D090F00A1
:103140002F090A00380902003A090F003C090A0059
:1031500045090A004E090F0050090F0052090F00DF
:1031600054090A005D090F005F090A00680902009E
:103170006A090F006C090A0075090A007E090F0030
:1031800080090F0082090F0084090A008D090F00D1
:103190008F090A00980902009A090F009C090A0089
:1031A000A5090A00AE090400B3090F00B5090F0014
:1031B000B7090F00B9090F00BB090F00BD090A00CC
:1031C000C6090F00C8090A00D1090200D3090F007F
:1031D000D5090A00DE090A00E7090F00E9090F0016
:1031E000EB090F00ED090F0000000000C9023302D7
:1031F0006002160391026F02830234343134383393
:1032000035373531633663376561363634313337B8
:0C3210003138333632616464313600001E
:00000001FF
